:020000040000fa
:10000000f87f0020f5100000cd1200001b14000046
:1000100000000000000000000000000000000000e0
:100020000000000000000000000000008714000035
:1000300000000000000000004111000091130000ca
:100040006b1300006b1300006b130000ad10000079
:100050006b1300006b1300006b1300006b130000a8
:100060006b1300006b1300006b1300006b13000098
:10007000c504000000000000000000006b13000039
:10008000000000001d1300006b1300006b13000044
:100090006b1300006b1300006b1300006b13000068
:1000a0006b1300006b1300006d1300006b13000056
:0c00b0006b1300006b1300006b130000ca
:020000040000fa
:1000bc00f8b5c046f8bc08bc9e4670478d100000d1
:1000cc00f8b5c046f8bc08bc9e46704765100000e9
:020000040000fa
:1000dc00f0b5de46474680b583b000900e00019324
:1000ec009500280000f012fd071e00d1d2e054202c
:1000fc0000f00cfd041e60d007632a00a521380017
:10010c0001f0acf9236b9846002e5cd03378342286
:10011c00a354002b09d0012322003432f15cd154ba
:10012c00002902d00133102bf8d143230022e254d2
:10013c000a9b9b46042b01d904239b465b46e36236
:10014c0063640026a664271d380001f0bcf920006a
:10015c00183001f0b8f9246105235a469b1aa361a3
:10016c00646223004c331e705e709e70de7004332c
:10017c001e70281f404407239843019a009901f0f0
:10018c0013f920600b9b002b00d01c6001f028f9a8
:10019c00444a136801331360434b1b68002b16d081
:1001ac00424b1b68002b17d13f4b1b68db6ae26a82
:1001bc00934211d83c4b1c600ee0380001f088f9da
:1001cc000120404268e034230022e254b0e7364b71
:1001dc001c601368012b33d0354a1368013313604c
:1001ec00e26a344b1b689a4201d9324b1a6032498d
:1001fc0093009b189b00cb185b68a3609a68e26025
:10020c0057609f60e06a83001a1892008a18626136
:10021c001a189200525801321b189b005a5001f0c8
:10022c00f7f8224b1b680120002b35d01e4b1b68a6
:10023c00da6ae36a9a422fd201f0c6f801202be069
:10024c001d4d280001f0d8f82800143001f0d4f826
:10025c002800283001f0d0f828003c3001f0ccf810
:10026c002800503001f0c8f8144e300001f0c4f8ea
:10027c00134d280001f0c0f8124801f0bdf81248e7
:10028c0001f0baf8114801f0b7f8114b1e60114b90
:10029c001d60a1e70120404203b00cbc90469b4678
:1002ac00f0bdc046681200205c1200208c120020a9
:1002bc007412002078120020c0100020d8110020e9
:1002cc00ec11002000120020281200201412002033
:0802dc006012002064120020f2
:020000040000fa
:1002e400a01100201c000000000000003c120020af
:1002f4000800000000000000bc1100201c000000e9
:100304000000000000100020c000000000000000f9
:10031400441200200800000000000000a812002081
:100324000400000001000000aaaaaaaa5412002096
:100334000400000000000000000000200010000085
:10034400000000005812002004000000000000001b
:100354005c12002004000000000000006012002075
:1003640004000000000000006412002004000000eb
:1003740000000000c0100020640000000000000025
:100384006812002004000000000000006c1200202d
:1003940004000000000000007012002004000000af
:1003a400000000007412002004000000000000009f
:1003b400781200200400000000000000d811002082
:1003c4001400000000000000ec11002014000000e4
:1003d400000000007c120020040000000000000067
:1003e400801200200400000000000000841200209d
:1003f4000400000000000000881200200400000037
:1004040000000000001200201400000000000000a2
:100414008c120020040000000000000014120020d0
:100424001400000000000000281200201400000046
:1004340000000000901200200400000000000000f2
:10044400941200200400000000000000ac12002000
:100454000400000001000000040000004c12002011
:100464000800000000000000741100202c000000af
:1004740000000000a41200200100000000000000a1
:100484009812002004000000000000009c120020cc
:1004940004000000000000002411002050000000af
:1004a40000000000a0120020040000000000000072
:1004b4000000000000000000444444444444444418
:020000040000fa
:1004c40010b5694b9b7d002b17d0674b5b8b9b074b
:1004d40014d5664b2022ff2199540132fd399954d9
:1004e400624a2023d35c5bb2013300d18be05f4ac4
:1004f4002023d35c062b00d19de010bd5a4b5b8baf
:10050400db0707d5594b2022ff2199540132fd39cd
:100514009954e5e7544b5b8b5b0707d5534b20227b
:10052400ff2199540132fe399954d9e74f4a2023c7
:10053400d35c5bb2032b44d0042b0fd0022bcfd15e
:100544001369002b04d09088002100f037fdc7e721
:10055400464b9888012100f031fdc1e7434a936975
:10056400126993420cd0414a9168cc5c3e482821e0
:100574004454013393610200d369002bfcd1afe7eb
:100584003a4b5b69002b0ed0384b9b885b000122f1
:100594001343354a5362d369002bfcd1334a2033c9
:1005a4000321d1549ce7304a5168c0239b020b437a
:1005b4005360d369002bfcd12c4a20330621d1543b
:1005c4008ee72a4a5369013bd2699a420dd0264ae2
:1005d400d369002bfcd1254ad36923482821415ce7
:1005e400d068c1540133d3617ae71f4a5168e023cc
:1005f400db020b435360d369002bfcd11b4a20332d
:100604000621d154e3e720230021d154164a51682e
:10061400c0239b020b435360d369002bfcd1124bc4
:1006240083221a76114b5b6a002b00d165e70f4acf
:10063400906a984761e71300002220215a5401313f
:100644005a54094b83321a761900533a4b8b134090
:10065400102bfbd1054b5b6a002b00d14de7034afd
:10066400906a984749e7c046001000427411002080
:020000040000fa
:10067400f0b5d6464f464646c0b582b0554b1b68ca
:10068400002b00d098e0544b1c6801341c60002cf3
:1006940019d0524b1b68a34222d900230193504b1b
:1006a4001b68da6a93009b189b004e4a9b58012be7
:1006b40001d9012301934c4b1b68002b00d181e02d
:1006c400012301937ee0494a1168494b1868106080
:1006d4001960484a13680133136000f0c9fdd8e774
:1006e40000230193414eb24600239946424b98465b
:1006f4003c493b4b9c4637e0384b012252421a603e
:10070400cde7364b1a60cae7dd68556041e01d6ae3
:1007140055604d469d621568013d1560dd6a42468f
:100724001268954201d9344a1560aa005219920000
:100734008a1852689a609568dd6068609060dd6a26
:10074400aa005019800008185861501980004058b8
:10075400013052199200505062461068da6ac36a36
:100764009a4201d30123019333681b68002bc3d041
:1007740053461b68db68db685a689442c1d35a69e4
:100784009d68d868a8609d684560181d55688542b5
:10079400bad04d465d611568013d15609a6a002a1c
:1007a400bcd01d6adf69bd60df696f601d0018354c
:1007b4005768af42add1aae7104a136801331360fa
:1007c40000230193019802b01cbc90469946a246ae
:1007d400f0bdc0467012002090120020801200204c
:1007e4005c120020c010002094120020601200202f
:1007f4006412002084120020781200208812002045
:020000040000fa
:10080400f0b5de4657464e464546e0b583b000f0a7
:10081400ebfd4c4b1a68013a1a601b680024002b4c
:1008240003d1494b1b68002b0fd100f0f5fd2000cc
:1008340003b03cbc90469946a246ab46f0bd3b6a29
:1008440063601fe0fb686b602ae000273f480600f6
:1008540000213f4b9b4601933e4a3f4b99463f4bf9
:1008640098460368002b4dd0f368df68bc6afb69c7
:100874003d6a9d603b6afd695d603b0018336568b5
:100884009d42dcd0b9622368013b23607d69bc686a
:10089400fb68a360bc685c603c1d6b68a342d1d05c
:1008a40079612b68013b2b60fd6a5b461b689d42a6
:1008b40001d9019b1d60ab005b199b00d3185b68d9
:1008c400bb609d68fd606c609c60fb6a9c00e518e1
:1008d400ad00aa46924455467d61e518ad00ad5879
:1008e400aa460125ac46e244e3189b0054469c50ba
:1008f4004b461b68db6afc6a9c42b2d30123444624
:100904002360aee7002f01d000f0b2fc144b1c684a
:10091400002c0ed0114e012502e0013c002c05d024
:10092400fff7a6fe0028f8d03560f6e70c4b00224e
:100934001a600a4b1c68002c00d176e700f048fdd1
:10094400012472e7701200206812002000120020b7
:1009540078120020c01000205c12002094120020a5
:0409640088120020d5
:020000040000fa
:10096800324b5a6852031b68db0c13439b029b0ae9
:100978002f4a936300235375110004228b691a428e
:10098800fcd12b491022cb681a42fcd0294b0022fb
:100998009a611a61284b294a1a62190004224b6885
:1009a8001a42fcd1244a88234021d15010004831f2
:1009b800402243581a42fcd01f4ad8234021d15024
:1009c80010009831402243581a42fcd01a4ae823b2
:1009d8004021d1501000a831402243581a42fcd07f
:1009e800154af0234021d1501000b031402243581d
:1009f8001a42fcd0104a82235b004021d1501000db
:100a08001900402243581a42fcd00b4a84235b0049
:100a18004021d15010001900402243581a42fcd0fe
:100a2800074b084a1a61084ada617047206080005b
:100a38000010004000140040001c004006010100a6
:0c0a480000080040ff1d00001002060026
:020000040000fa
:100a540010b52a4b1b68002b03d0294b01221a60c6
:100a640010bd274b00221a60264b1b681b6b264abd
:100a74001968914202d1596891422fd0214b1868cc
:100a84001968343100f058fb204b1b689a00d218c7
:100a940092001f495258002a06d1013b9a00d218ed
:100aa40092005258002af8d019489a00d1188900a7
:100ab40041184c6864684c60d2189200083282185d
:100ac400944212d09a00d218920011498a1852689e
:100ad400d1680c4a11600d4a1360c1e799689142cc
:100ae400ccd1db689342c9d1cee760689a00d218b2
:100af400920007498a185060e4e7c046701200204b
:100b0400941200205c120020a5a5a5a5781200204f
:040b1400c0100020ed
:020000040000fa
:100b180070b50400430707d0072302009a43130067
:100b28000833834227d91c0000f092fc184b1b683d
:100b3800002b0dd0002c24d0164b1b681c19164a0c
:100b480094420bd8a3420cd3fff758fe1be00024b5
:100b58000f4a124b07218b431360ebe7fff74efe5a
:100b680011e00b4a1568ed180a4b1c60fff746feaa
:100b7800002d0bd107e000f06bfc054b1b68002b28
:100b8800e5d0fff73bfe00f0a3fc0025280070bd70
:100b98005412002058120020f70f00000700002010
:020000040000fa
:100ba8001e4a137801210b431370110001224b6870
:100bb8001a42fcd1194912234b701033cb611b0721
:100bc8000b62174b8b610b61164b00221a810132a5
:100bd8009a820f321a849a851a8744201a520c3046
:100be8001a520c301a520c301a520c301a520c305d
:100bf8001a520c301a520c301a520c301a520c304d
:100c08001a52ac32a13898520b78022213430b7057
:100c180002224b681a42fcd17047c04600280040a7
:080c2800038000000010002011
:020000040000fa
:100c30008223db05012240215a5401315a540131eb
:100c40005a5401315a5401315a5401315a54013124
:100c50005a5401315a5402315a5400214e20195429
:100c600001301a540130195401301954023019540a
:100c700003301a5401301a5401301a5401301a54f6
:100c80002f3299541f3a28381a5401301a5401301f
:100c90001a54233223389854033299540132995408
:100ca000013299540232223199540132443199541b
:020cb00070478b
:020000040000fa
:020cb200704789
:020000040000fa
:100cb400bff35f8f62b6174bc02080001a58120230
:100cc400120ac02109060a431a5008221a60c321d5
:100cd40089005a58ff2082433f3802435a508022e9
:100ce40052011a60c42080001a580b491140c022d6
:100cf40012020a431a50802292021a6008301a58cb
:100d040006491140c02212040a431a508022d20418
:100d14001a60704700e100e0ff00ffffffff00ffe3
:020000040000fa
:100d24000021f0b5174b184a934208d30027174afd
:100d340013685168002b05d1002903d1f0bd197047
:100d44000133f1e7100095680c305c18002d16d0c3
:100d54000b25ed1a5219a3420ad10b0003221340aa
:100d64005a1e934189085918890040180200dfe788
:100d74005d1cae5c1e702b00ede71f700133a342b7
:100d8400fbd1f3e70000002000000020e402000093
:020000040000fa
:100d9400f0b5c64600b5144b9846144f144e1d00ca
:100da40043461b68002b17d000f01efbfb68dc6871
:100db400201d00f0c5fa3368013b33602b68013b0a
:100dc4002b6000f029fb206b00f086fb200000f074
:100dd40083fb2b68002be7d1064b1b68012bdfd963
:100de40000f0f6fadce7c0466c120020281200205e
:080df40068120020c01000206d
:020000040000fa
:100dfc00144b01221a601a00d369002bfcd1114b41
:100e0c00802252005a601a00d369002bfcd10d4b82
:100e1c00e822da600c4a1a601a00d369002bfcd164
:100e2c00084b10225a831a00d369002bfcd1074bb4
:100e3c00002221215a5401395a54024b83329a759b
:100e4c007047c046001000421600100074110020bc
:020000040000fa
:100e5c0000b583b00e4b01930023009380220d4903
:100e6c000d48fff735f9012803d00c4b1b6803b074
:100e7c0000bd72b60a4b012252421a60094b023273
:100e8c001a60094b00221a6000f0b6f9ede7c04673
:100e9c007c120020b4140000950d0000ac12002050
:0c0eac00801200208c1200209012002008
:020000040000fa
:100eb80000230e4a10b513600d4a13600d4a1360e3
:100ec8000d4a13600d4a13600d4a536213610133d2
:100ed800936000f000fb00f0fefa0a4c0a4b9c42bb
:100ee80000d310bd08cc9847f8e7c046a0120020f0
:100ef800301100202c11002024110020281100207e
:0c0f080034110020c8000000cc000000e4
:020000040000fa
:100f1400134b01221a7019000b8c1342fcd1114b94
:100f24001b689a00e021c9000a401b055b0f1a43a5
:100f34000b4b9a8502225a7002325a7301329a700c
:100f440005321a810a325a810a221a7307229a71c7
:100f540001225a711a00138c9bb2002bfbd17047eb
:080f64000048004220608000fb
:020000040000fa
:100f6c00114b01229a6119008b691a42fcd00e4b6d
:100f7c009a6902210a439a610c4ada61802226316d
:100f8c0099509a6927398a439a61190001228b6911
:100f9c001a42fcd1064b00221a605a609a60da6041
:100fac001a615a619a617047001c00421746002e64
:040fbc00bc11002044
:020000040000fa
:100fc00010b5114b00229a61da61104b83321a7608
:100fd0005a680f4c22405a601a00d369002bfcd18a
:100fe00000290cd0084a20330324d454400008437d
:100ff000064b58621a00d369002bfcd110bd024a7f
:1010000020230424d454f1e774110020001000427e
:04101000fffffbffe4
:020000040000fa
:10101400114b01221a7019000b8c1342fcd10f4b97
:101024001b681a02e021c9000a409b065b0f1a43a1
:10103400094b9a8500225a70032159730231997021
:10104400ee3199625a8107229a711a00138c9bb26d
:10105400002bfbd17047c046004400422060800052
:020000040000fa
:1010640010b5064c2378002b07d1054b002b02d07a
:10107400044800e000bf0123237010bda01100202c
:101084000000000000000000044b10b5002b03d04a
:101094000349044800e000bf10bdc0460000000042
:0810a400a4110020000000006f
:020000040000fa
:1010ac00f0b5c64600b50e4d00240e4f01239846f0
:1010bc0004e07e6101340c35102c0ed02a7ae3b298
:1010cc009a42f7d17b694646a6401e42f2d02b6865
:1010dc00002beed068689847ebe704bc9046f0bd57
:0810ec00001000200028004064
:020000040000fa
:1010f40010b50a4b98470a4b984700f0e1f9094ba1
:10110400ff229343084a9360084b9847084b98473b
:10111400084b984700f0aef9fee7c04657140000ac
:10112400571400000000000000ed00e0b90e0000bc
:081134005714000057140000dd
:020000040000fa
:04113c0072b6fee7a2
:020000040000fa
:10114000eff309800e4b1a6820381060f0c0444657
:101150004d4656465f46f0c008b572b6fff77afcba
:1011600062b60cbc116808681030f0c8a046a946e9
:10117000b246bb4680f309882038f0c81847c046fd
:041180005c120020dd
:020000040000fa
:1011840010b50e4b06225a60fff750fdfff7eafb3d
:10119400fff732fe00f076f9fff789fdfff7e4fe72
:1011a400fff700fd00f00cf8fff732fffff7b0fe89
:1011b40000f06ef9fff77cfd10bdc0460040004111
:020000040000fa
:1011c4000c4b01221a6019008b681a42fcd1094b9e
:1011d40000221a600221d963962149011964064943
:1011e400d96206490a6001329a621a009368002b98
:1011f400fcd17047002400420ffc0f004c12002069
:020000040000fa
:1012040010b50c4b1968ff2212040a431a601968be
:10121400ff2212060a431a6000f06af8064b002205
:101224001a6000f00bf8fff713fc00f009f9002036
:0c12340010bdc04620ed00e0a812002014
:020000040000fa
:101240000b4a13681868203080f30988022080f365
:101250001488bff36f8f3fbcae4608bc04bc62b6b7
:101260001847c046c046c046c046c046c046c046f5
:041270005c120020ec
:020000040000fa
:10127400084b1b681b68002b04d1074b0122524208
:101284001a607047034b1b68db681a68024b1a60cc
:0c129400f7e7c046601200208012002026
:020000040000fa
:1012a00000b583b0064b01930123009300238022f5
:1012b00004490548fef712fffff7d0fd03b000bd5b
:0c12c00098120020a0140000bd140000d3
:020000040000fa
:1012cc0010b5074b5b88db0709d5054b01225a800b
:1012dc00044b1b68002b02d0024a5068984710bd83
:0812ec0000280040441200201c
:020000040000fa
:1012f400054b00221a6005490a60054a0549116038
:1013040007221a607047c04610e000e018e000e0d1
:0813140014e000e07fbb0000c3
:020000040000fa
:10131c0010b5064bd86a064ada62db6a054b1b68c5
:10132c00002b02d0034a5168984710bd002400429c
:08133c000ffc0f004c12002011
:020000040000fa
:101344000369416882688a60416851605a688242d0
:1013540006d0002202611a68013a1a6018687047c0
:0613640082685a60f5e703
:020000040000fa
:02136a00fee79c
:020000040000fa
:10136c0010b5064b9879c0b201229a71044b1b68d8
:10137c00002b02d0024a5168984710bd0048004229
:04138c003c120020ef
:020000040000fa
:1013900010b500f08bf80400fff76cf9002803d0bb
:1013a000034b802252051a60200000f08ff810bd18
:0413b00004ed00e068
:020000040000fa
:1013b40010b5031f802464041c60043b1960043bc3
:1013c40002491960143b1a60403810bd45140000ee
:020000040000fa
:1013d400044b802252051a60bff34f8fbff36f8f07
:0813e4007047c04604ed00e073
:020000040000fa
:1013ec0072b6044a136801331360bff34f8fbff317
:0813fc006f8f7047a81200205a
:020000040000fa
:10140400030008334360012252428260c3600361d7
:0614140000230360704795
:020000040000fa
:02141a00fee7eb
:020000040000fa
:10141c00034a1368013b1360002b00d162b670477e
:04142c00a8120020e2
:020000040000fa
:10143000034b1b78002b02d1014b01221a7070471d
:04144000a4120020d2
:020000040000fa
:1014440082b00023019372b6019b002bfcd002b042
:021454007047df
:020000040000fa
:021456007047dd
:020000040000fa
:10145800024a1368013313607047c04670120020b7
:020000040000fa
:1014680003001218934200d1704719700133f9e74d
:020000040000fa
:0e14780010b50020fff782fefff70efffce725
:020000040000fa
:021486007047ad
:020000040000fa
:0c148800014b84225a6070470040004174
:020000040000fa
:0c149400014b00221a707047a4120020c7
:020000040000fa
:0c14a0004150505f5461736b7300c046f4
:020000040000fa
:0814ac00eff3108072b67047e7
:020000040000fa
:0814b40049444c450000c0460c
:020000040000fa
:0814bc0010b5fff7b7fffce7d4
:020000040000fa
:0814c40010b5fff72dfc10bd6f
:020000040000fa
:0614cc0080f31088704758
:020000040000fa
:0614d200002303617047d6
:020000040000fa
:0414d80072b6fee703
:020000040000fa
:0214dc00704757
:020000040000fa
:0214de00704755
:020000040000fa
:0200000400807a
:04400000770800003d
:020000040000fa
:0200000400807a
:044004000000ffffba
:00000001FF
