:020000040000fa
:10000000f87f0020810a0000f10b00006f0c000057
:1000100000000000000000000000000000000000e0
:10002000000000000000000000000000730c000051
:100030000000000000000000110b0000190c00007f
:100040006d0c00006d0c00006d0c0000c90a000072
:100050006d0c00006d0c00006d0c00006d0c0000bc
:100060006d0c00006d0c00006d0c0000dd00000048
:100070006d0c000000000000000000006d0c00008e
:10008000000000006d0c00006d0c00006d0c000005
:100090006d0c00006d0c00006d0c00006d0c00007c
:1000a0006d0c00006d0c00006d0c00006d0c00006c
:0c00b0006d0c00006d0c00006d0c0000d9
:020000040000fa
:1000bc00f8b5c046f8bc08bc9e467047610a000003
:1000cc00f8b5c046f8bc08bc9e467047390a00001b
:020000040000fa
:1000dc0010b5694b9b7d002b17d0674b5b8b9b0737
:1000ec0014d5664b2022ff2199540132fd399954c5
:1000fc00624a2023d35c5bb2013300d18be05f4ab0
:10010c002023d35c062b00d19de010bd5a4b5b8b9a
:10011c00db0707d5594b2022ff2199540132fd39b9
:10012c009954e5e7544b5b8b5b0707d5534b202267
:10013c00ff2199540132fe399954d9e74f4a2023b3
:10014c00d35c5bb2032b44d0042b0fd0022bcfd14a
:10015c001369002b04d09088002100f0c3fbc7e783
:10016c00464b9888012100f0bdfbc1e7434a9369d7
:10017c00126993420cd0414a9168cc5c3e482821cc
:10018c004454013393610200d369002bfcd1afe7d7
:10019c003a4b5b69002b0ed0384b9b885b000122dd
:1001ac001343354a5362d369002bfcd1334a2033b5
:1001bc000321d1549ce7304a5168c0239b020b4366
:1001cc005360d369002bfcd12c4a20330621d15427
:1001dc008ee72a4a5369013bd2699a420dd0264ace
:1001ec00d369002bfcd1254ad36923482821415cd3
:1001fc00d068c1540133d3617ae71f4a5168e023b8
:10020c00db020b435360d369002bfcd11b4a203318
:10021c000621d154e3e720230021d154164a51681a
:10022c00c0239b020b435360d369002bfcd1124bb0
:10023c0083221a76114b5b6a002b00d165e70f4abb
:10024c00906a984761e71300002220215a5401312b
:10025c005a54094b83321a761900533a4b8b13407c
:10026c00102bfbd1054b5b6a002b00d14de7034ae9
:10027c00906a984749e7c046000c00427401002080
:020000040000fa
:10028c00f0b5d6464f464646c0b582b0554b1b68b6
:10029c00002b00d098e0544b1c6801341c60002cdf
:1002ac0019d0524b1b68a34222d900230193504b07
:1002bc001b68da6a93009b189b004e4a9b58012bd3
:1002cc0001d9012301934c4b1b68002b00d181e019
:1002dc00012301937ee0494a1168494b186810606c
:1002ec001960484a13680133136000f065fcd8e7c5
:1002fc0000230193414eb24600239946424b984647
:10030c003c493b4b9c4637e0384b012252421a6029
:10031c00cde7364b1a60cae7dd68556041e01d6acf
:10032c0055604d469d621568013d1560dd6a42467b
:10033c001268954201d9344a1560aa0052199200ec
:10034c008a1852689a609568dd6068609060dd6a12
:10035c00aa005019800008185861501980004058a4
:10036c00013052199200505062461068da6ac36a22
:10037c009a4201d30123019333681b68002bc3d02d
:10038c0053461b68db68db685a689442c1d35a69d0
:10039c009d68d868a8609d684560181d55688542a1
:1003ac00bad04d465d611568013d15609a6a002a08
:1003bc00bcd01d6adf69bd60df696f601d00183538
:1003cc005768af42add1aae7104a136801331360e6
:1003dc0000230193019802b01cbc90469946a2469a
:1003ec00f0bdc046ec01002000020020f40100200a
:1003fc00e0010020c000002004020020e4010020e5
:10040c00e8010020f8010020f0010020fc01002090
:020000040000fa
:10041c00a00100201c00000000000000740100205e
:10042c002c00000000000000bc0100201c0000009b
:10043c000000000000000020c000000000000000d0
:10044c00d80100200800000000000000e00100209e
:10045c000400000000000000e40100200400000083
:10046c0000000000e8010020040000000000000073
:10047c00c00000206400000000000000ec0100201f
:10048c000400000000000000f00100200400000047
:10049c0000000000f4010020040000000000000037
:1004ac00f80100200400000000000000fc01002006
:1004bc000400000000000000000200200400000006
:1004cc0000000000040200200400000000000000f6
:1004dc00080200200400000000000000240100209d
:1004ec0050000000000000000c020020040000007e
:1004fc0000000000000000000000000044444444e0
:020000040000fa
:10050c002d4b5a6852031b68db0c13439b029b0a4e
:10051c002a4a936300235375110004228b691a42f3
:10052c00fcd126491022cb681a42fcd0244b002265
:10053c009a611a61234b244a1a62190004224b68ef
:10054c001a42fcd11f4a88234021d1501000483157
:10055c00402243581a42fcd01a4ad4234021d1508d
:10056c0010009431402243581a42fcd0154ae8231b
:10057c004021d1501000a831402243581a42fcd0df
:10058c00104a82235b004021d150100019004022f8
:10059c0043581a42fcd00b4a84235b004021d150b3
:1005ac0010001900402243581a42fcd0074b084a4d
:1005bc001a61084ada617047206080000010004020
:1005cc0000140040001c004006010100000800401f
:0805dc00ff1d000008000600ed
:020000040000fa
:1005e40010b52a4b1b68002b03d0294b01221a603b
:1005f40010bd274b00221a60264b1b681b6b264a32
:100604001968914202d1596891422fd0214b186840
:100614001968343100f026fb204b1b689a00d2186d
:1006240092001f495258002a06d1013b9a00d21861
:1006340092005258002af8d019489a00d11889001b
:1006440041184c6864684c60d218920008328218d1
:10065400944212d09a00d218920011498a18526812
:10066400d1680c4a11600d4a1360c1e79968914240
:10067400ccd1db689342c9d1cee760689a00d21826
:10068400920007498a185060e4e7c046ec01002054
:1006940004020020e0010020a5a5a5a5f00100208a
:0406a400c000002072
:020000040000fa
:1006a8008223db05012240215a5401315a54013179
:1006b8005a5401315a5401315a5401315a540131b2
:1006c8005a5401315a5400214820195401301a54ff
:1006d80001301954013019540330195401301a5497
:1006e80001301954013019540230195403301a5486
:1006f80001301a5401301a5401301a542f329954c7
:100708001f3a28381a5401301a5401301a54233227
:100718002338985401329954023299540132995429
:100728000132995402322231995401324431995498
:02073800704708
:020000040000fa
:02073a00704706
:020000040000fa
:10073c001e4a137801210b431370110001224b68e0
:10074c001a42fcd1194912234b701033cb611b0791
:10075c000b62174b8b610b61164b00221a81013215
:10076c009a820f321a849a851a8744201a520c30b6
:10077c001a520c301a520c301a520c301a520c30cd
:10078c001a520c301a520c301a520c301a520c30bd
:10079c001a52ac32a13898520b78022213430b70c8
:1007ac0002224b681a42fcd17047c0460028004018
:0807bc00038000000000002092
:020000040000fa
:1007c4000021f0b5174b184a934208d30027174a63
:1007d40013685168002b05d1002903d1f0bd1970ad
:1007e4000133f1e7100095680c305c18002d16d029
:1007f4000b25ed1a5219a3420ad10b000322134010
:100804005a1e934189085918890040180200dfe7ed
:100814005d1cae5c1e702b00ede71f700133a3421c
:10082400fbd1f3e700000020000000201c040000be
:020000040000fa
:10083400144b01221a601a00d369002bfcd1114b0e
:10084400802252005a601a00d369002bfcd10d4b50
:10085400e822da600c4a1a601a00d369002bfcd132
:10086400084b10225a831a00d369002bfcd1074b82
:10087400002221215a5401395a54024b83329a7569
:100884007047c046000c004216001000740100209e
:020000040000fa
:1008940000230e4a10b513600d4a13600d4a13600d
:1008a4000d4a13600d4a13600d4a536213610133fc
:1008b400936000f0ddf900f0dbf90a4c0a4b9c422e
:1008c40000d310bd08cc9847f8e7c0460c020020be
:1008d400300100202c0100202401002028010020e8
:0c08e40034010020c8000000cc0000001f
:020000040000fa
:1008f00010b5114b00229a61da61104b83321a76df
:100900005a680f4c22405a601a00d369002bfcd160
:1009100000290cd0084a20330324d4544000084353
:10092000064b58621a00d369002bfcd110bd024a55
:1009300020230424d454f1e774010020000c004269
:04094000fffffbffbb
:020000040000fa
:10094400114b01229a6119008b691a42fcd00e4b9b
:100954009a6902210a439a610c4ada61802226319b
:1009640099509a6927398a439a61190001228b693f
:100974001a42fcd1064b00221a605a609a60da606f
:100984001a615a619a617047001c00421746002e92
:04099400bc01002082
:020000040000fa
:10099800114b01221a7019000b8c1342fcd10f4b1a
:1009a8001b681a02e021c9000a409b065b0f1a4324
:1009b800094b9a8500225a700321597302319970a4
:1009c800ee3199625a8107229a711a00138c9bb2f0
:1009d800002bfbd17047c0460044004220608000d5
:020000040000fa
:1009e800114b01221a7019000b8c1342fcd10f4bca
:1009f8001b689a00e021c9000a401b055b0f1a43d7
:100a0800094b9a8503225a705a7302329a7005323a
:100a18001a81063a5a8107229a711a00138c9bb2de
:100a2800002bfbd17047c046004800422060800080
:020000040000fa
:100a380010b5064c2378002b07d1054b002b02d0ac
:100a4800044800e000bf0123237010bda00100206e
:100a58000000000000000000044b10b5002b03d07c
:100a68000349044800e000bf10bdc0460000000074
:080a7800a401002000000000b1
:020000040000fa
:100a800010b50a4b98470a4b984700f0e6f8094b17
:100a9000ff229343084a9360084b9847084b9847b6
:100aa000084b984700f0d0f8fee7c046710c0000f4
:100ab000710c00000000000000ed00e0950800004f
:080ac000710c0000710c000034
:020000040000fa
:100ac800f0b5c64600b50e4d00240e4f01239846da
:100ad80004e07e6101340c35102c0ed02a7ae3b282
:100ae8009a42f7d17b694646a6401e42f2d02b684f
:100af800002beed068689847ebe704bc9046f0bd41
:080b080000000020002800405d
:020000040000fa
:100b1000eff309800e4b1a6820381060f0c044468d
:100b20004d4656465f46f0c008b572b6fff75afd0f
:100b300062b60cbc116808681030f0c8a046a9461f
:100b4000b246bb4680f309882038f0c81847c04633
:040b5000e0010020a0
:020000040000fa
:100b540010b50c4b06225a60fff7a4fdfff7d4fc36
:100b640000f06af8fff764fefff7e5fdfff7e8fe23
:100b7400fff7e2fdfff70efffff734ff00f004f884
:080b840010bdc0460040004115
:020000040000fa
:100b8c00bff35f8f62b60b4ac020800013581b0264
:100b9c001b0ac02109060b431350082313600830ad
:100bac0013581b021b0a0b43135080231b011360a9
:080bbc007047c04600e100e0b3
:020000040000fa
:100bc400084b1b681b68002b04d1074b01225242bf
:100bd4001a607047034b1b68db681a68024b1a6083
:0c0be400f7e7c046e4010020f401002007
:020000040000fa
:100bf00010b5074b5b88db0709d5054b01225a80ee
:100c0000044b1b68002b02d0024a5068984710bd65
:080c100000280040d80100207b
:020000040000fa
:100c180010b500f01af80400fff734fb002803d0e1
:100c2800034b802252051a60200000f016f810bd10
:040c380004ed00e0e7
:020000040000fa
:0c0c3c00014b84225a60704700400041c8
:020000040000fa
:0a0c480010b50020fff782fffee761
:020000040000fa
:080c5200eff3108072b6704749
:020000040000fa
:080c5a0010b5fff7b2fd10bd5b
:020000040000fa
:060c620080f310887047ca
:020000040000fa
:040c680072b6fee77b
:020000040000fa
:020c6c00fee7a1
:020000040000fa
:020c6e00fee79f
:020000040000fa
:020c70007047cb
:020000040000fa
:020c72007047c9
:020000040000fa
:020c74007047c7
:020000040000fa
:0200000400807a
:04400000770800003d
:020000040000fa
:0200000400807a
:044004000000ffffba
:00000001FF
