:020000040000fa
:10000000f07f002065460000514c0000874e000044
:1000100000000000000000000000000000000000e0
:10002000000000000000000000000000f750000089
:100030000000000000000000f14600005d4d0000df
:100040002b4000002b4000002b400000e51000007a
:100050002b4000002b4000002b4000002b400000f4
:100060002b4000002b4000002b4000002b400000e4
:10007000b91f000000000000000000002b4000003d
:1000800000000000794c00002b4000002b400000d5
:10009000114b0000e14a00002b4000002b40000003
:1000a0002b4000002b400000394d00002b40000089
:0c00b0002b4000002b4000002b40000003
:020000040000fa
:1000bc00f8b5c046f8bc08bc9e467047fd4500002c
:1000cc00f8b5c046f8bc08bc9e467047d545000044
:020000040000fa
:1000dc00f0b5de4657464e464546e0b587b0a34bd5
:1000ec001878002808d001280ad007b03cbc9046ec
:1000fc009946a246ab46f0bd9c4901220a70f4e732
:10010c0001249b4d9b4e30686242290002f0dafdbf
:10011c00af1c994b994624350495342048440590de
:10012c0096498846964a92469b46b94678e094484a
:10013c008168281c04f02cfd002800d193e0904a23
:10014c00956090e002340437049ba34256d021887a
:10015c004e01731a98004218960090198300c21829
:10016c0056017042874b9c46614403f027fa04f019
:10017c00b8fd2860844903f053fb04f019fb834a53
:10018c00834b03f04df801f051fb009001917e4937
:10019c00286803f045fb04f00bfb7e4a7e4b02f013
:1001ac00bff801f043fb029003917c4a7c4b009812
:1001bc00019902f0b5f8009001917a4a7a4b0298b5
:1001cc00039902f0adf802000b000098019901f0c0
:1001dc002dfd03f0f3fe061c744908603860744969
:1001ec0004f0d6fc0028add065484168301c04f002
:1001fc00b8fc0028a6d0624a5660a3e75d46cb4601
:10020c00a9460224a446e1440234a446e344049fd4
:10021c000a370497059e1436059666498b452ad0f5
:10022c004c46208804f00cfe04f0c2fa02000b00cd
:10023c006148624902f0f4ff03f0c0fe051c46461b
:10024c0030605f463860011c5346186802f0f8fabb
:10025c00514608600969281c04f083fc002800d171
:10026c0065e7474c2561049c0a3c059f544dcc46e0
:10027c00d946e3466be7534c208804f0e1fd04f0cb
:10028c0097fa02000b004c484c4902f0c9ff03f0ee
:10029c0095fe051c394a1060394f396802f0d0fac6
:1002ac003860494903f0bcfaf8603348056325000f
:1002bc000a342600424f03e00235b54200d185e0f6
:1002cc0069884b015c1aa20050188300c418a20064
:1002dc00a018430158422b4ca046414403f06ef940
:1002ec0004f0fffc3860284903f09afa04f060fa35
:1002fc00264a274b02f094ff01f098fa00900191e6
:10030c002149386803f08cfa04f052fa214a224b46
:10031c0002f006f801f08afa029003911f4a204b72
:10032c000098019901f0fcff009001911d4a1e4bb1
:10033c000298039901f0f4ff02000b000098019958
:10034c0001f074fc03f03afe041c184908601849cb
:10035c0004f01efc0028afd0094a5168201c04f0a0
:10036c0000fc0028a8d006484460a5e75066002091
:10037c008c6200202466002000600020286600208b
:10038c002865002000fcffff00007a44c408e1d17e
:10039c00c611b3bf3ca583f57f0e83bf48e17a1429
:1003ac00aea74b4085eb51b81ea54f402c660020e4
:1003bc000000fa4330600020fca9f1d24d62a0404d
:1003cc003066002074650020000050415f4d2868a5
:1003dc0004f0eef90022002301f028fc06000f00c7
:1003ec005b4b186804f0e4f902000b003000390094
:1003fc0004f09af9431e9841564c207054494868b1
:10040c0004f0d6f902000b003000390004f08cf92e
:10041c00431e98414f4a50704d48806804f0c8f90b
:10042c0002000b003000390004f07ef9431e9841a5
:10043c00484da870464bd86804f0baf902000b007e
:10044c003000390004f070f9431e9841414ce070c3
:10045c003f49086904f0acf902000b003000390088
:10046c0004f062f9431e98413a4a107138484069c9
:10047c0004f09ef902000b003000390004f054f92e
:10048c00431e9841334d6871314b986904f090f9d3
:10049c0002000b003000390004f046f9431e98416d
:1004ac002c4ca0712a49c86904f082f902000b0097
:1004bc003000390004f038f9431e9841254ad071b8
:1004cc002348006a04f074f902000b003000390074
:1004dc0004f02af9431e98411e4d28721c4b586a91
:1004ec0004f066f902000b003000390004f01cf92e
:1004fc00431e9841174c60721549886a04f058f9ec
:10050c0002000b003000390004f00ef9431e984134
:10051c00104a90720e48c06a04f04af932003b004f
:10052c0004f024f9431e98410a4de872084b186bed
:10053c0004f03ef902000b003000390004f0f4f82e
:10054c00431e9841044e3070cfe5c046286500200c
:0c055c0000600020686500208a6200201a
:020000040000fa
:10056800746400201c00000000000000c863002024
:100578004400000000000000806500200800000022
:1005880000000000906400201c0000000000000033
:1005980038610020c00000000000000088650020cd
:1005a8000800000000000000486400202c00000043
:1005b8000000000090650020080000000000000016
:1005c800986500200800000000000000a0650020d9
:1005d8000800000000000000ac64002018000000c3
:1005e8000000000020630020580000000000000008
:1005f800b06500200400000000000000b465002081
:100608000400000000000000b8650020040000009d
:1006180000000000bc65002004000000000000008d
:10062800c06500200400000000000000c465002030
:100638000400000000000000c8650020040000005d
:1006480000000000646600200400000001000000b3
:10065800aaaaaaaacc650020040000000000000095
:10066800000000200060000000000000d0650020ad
:100678000400000000000000d46500200400000011
:1006880000000000d8650020040000000000000001
:10069800dc6500200400000000000000e065002088
:1006a8000400000000000000a86500200800000009
:1006b80000000000e46500200400000000000000c5
:1006c800e86500200400000000000000ec65002040
:1006d80004000000000000000c6400203c00000042
:1006e80000000000f0650020040000000000000089
:1006f800f46500200400000000000000f8650020f8
:100708000400000000000000fc6500200400000058
:100718000000000000660020040000000000000047
:10072800c46400201400000000000000d864002009
:10073800140000000000000004660020040000000f
:10074800000000000866002004000000000000000f
:100758000c66002004000000000000001066002065
:100768000400000000000000ec64002014000000f9
:1007780000000000146600200400000000000000d3
:10078800006500201400000000000000146500202f
:10079800140000000000000018660020040000009b
:1007a800000000001c66002004000000000000009b
:1007b800686600200400000001000000020000003c
:1007c80020660020040000000000000050650020a2
:1007d8000c0000000000000060660020020000001d
:1007e800000000005c66002001000000000000001e
:1007f800246600200400000000000000f8610020ca
:10080800920000000000000058660020010000006f
:10081800000000005c6500200c00000000000000e3
:10082800546600200100000000000000506600200f
:1008380001000000000000000060002038010000f6
:10084800000000008c620020920000000000000000
:1008580028660020040000000000000068650020f1
:100868000c00000000000000746500200c0000006f
:10087800000000008a620020010000000000000063
:100888002865002014000000000000002c660020ed
:100898000400000000000000306600200400000092
:1008a800000000004c66002001000000000000006d
:1008b80034660020040000000000000038660020b4
:1008c80004000000000000008b620020010000000e
:1008d8000000000048660020010000000000000041
:1008e8001e63002001000000000000001f630020bc
:1008f80001000000000000003c650020140000001a
:10090800000000003c660020040000000000000019
:10091800406600200400000000000000786300200a
:1009280050000000000000004466002004000000a1
:10093800000000000000000000000000444444449f
:020000040000fa
:10094800f8b5060004f058fb4523f45c64b2002cab
:1009580064dd706a002861d035002435611e0727e0
:100968000f4000d17be1280002f020fb002800d0d6
:1009780048e1013c64b2726a002a4fd0012f00d1cd
:100988006de1022f3ed0032f31d0042f24d0052f44
:1009980017d0062f0ad0280002f008fb002800d044
:1009a80033e1013c64b2736a002b37d0280002f0af
:1009b800fdfa002800d02be1013c64b2706a0028df
:1009c8002cd0280002f0f2fa002800d023e1013ce4
:1009d80064b2716a002921d0280002f0e7fa0028e1
:1009e80000d01be1013c64b2776a002f16d02800c2
:1009f80002f0dcfa002800d013e1013c64b2726a0c
:100a0800002a0bd0280002f0d1fa002800d00be110
:100a1800013c64b2736a002b00d020e14525ff2019
:100a2800705504f02bfb04f0e7fa4427f15d4cb253
:100a3800002c5cdd3269002a59d035001035631e60
:100a480007271f4000d18ae0280002f0affa0028eb
:100a580059d1013c64b23069002848d0012f00d137
:100a68007de0022f39d0032f2dd0042f21d0052f60
:100a780015d0062f09d0280002f098fa002845d191
:100a8800013c64b23169002931d0280002f08efaa5
:100a980000283ed1013c64b23269002a27d02800e0
:100aa80002f084fa002837d1013c64b23369002b84
:100ab8001dd0280002f07afa002830d1013c64b237
:100ac8003769002f13d0280002f070fa002829d1c6
:100ad800013c64b23069002809d0280002f066faa7
:100ae800002822d1013c64b23169002937d144255c
:100af800ff22725504f0c2faf8bd04f04ffbb4e0cf
:100b080004f04cfb30e004f049fba2e704f046fb9c
:100b1800b6e704f043fbbde704f040fbc4e704f08c
:100b28003dfbcbe704f03afbd2e704f037fbd9e70b
:100b380004f034fb24e004f031fb2be004f02efb3e
:100b480032e004f02bfb39e004f028fb41e004f02c
:100b580025fb49e0013c64b231690029c7d028006f
:100b680002f024fa0028cbd1013c64b2002cbed09c
:100b78003269002abbd0280002f018fa0028d7d121
:100b8800013c67b23369002bb1d0280002f00efa9d
:100b98000028d0d1013f7cb230690028a7d02800b6
:100ba80002f004fa0028c9d1013c67b23169002972
:100bb8009dd0280002f0faf90028c2d1013f7cb28a
:100bc8003269002a00d192e7280002f0eff90028e4
:100bd800bad1013c67b23369002b00d187e72800fe
:100be80002f0e4f90028b2d1013f7cb23069002854
:100bf80000d17ce7280002f0d9f90028aad004f037
:100c0800cdfaa7e704f0cafab3e604f0c7fac8e6d3
:100c180004f0c4fad0e604f0c1fad8e604f0befa4b
:100c2800e0e604f0bbfae8e604f0b8faf0e604f00f
:100c3800b5fa28e004f0b2fa30e004f0affa38e090
:100c480004f0acfa40e004f0a9fa48e004f0a6fa8f
:100c580050e0013c64b2736a002b00d1dee6280044
:100c680002f0a4f9002800d047e7013c64b2002c48
:100c780000d1d3e6706a002800d1cfe6280002f040
:100c880095f90028d3d1013c67b2716a002900d1d7
:100c9800c4e6280002f08af90028cbd1013f7cb2d3
:100ca800726a002a00d1b9e6280002f07ff900280c
:100cb800c3d1013c67b2736a002b00d1aee62800ad
:100cc80002f074f90028bbd1013f7cb2706a002899
:100cd80000d1a3e6280002f069f90028b3d1013c4d
:100ce80067b2716a002900d198e6280002f05ef91f
:100cf8000028abd1013f7cb2726a002a00d18de690
:100d0800280002f053f90028a3d004f047faa0e71e
:020000040000fa
:100d1800f0b5de4657464e464546e0b587b00490e6
:100d2800059103920293129d13ab1f78002d33d0c7
:100d380001214a422a6003f0d7fb061e2cd0012f5e
:100d480010d0022f15d0082f13d00298002823d0d6
:100d5800039c002c20d0119b002b1dd0109900293a
:100d68000dd119e0119c002c16d0109b002b06d138
:100d780012e0029a002a0fd0039800280cd031689c
:100d88008a460a0152449000c74ca146814448460d
:100d980002f092fd002806d107b03cbc9046994667
:100da800a246ab46f0bd33689c46190161448800f1
:100db800bd4a13185c6a196a8846002900d186e181
:100dc800207823002c330022002800d1ace0501af0
:100dd8000721814300d1a5e001321c002c33180003
:100de8002c380078002800d19fe0012900d1f4e0d8
:100df800022931d0032927d004291dd0052913d071
:100e0800062908d001321c002c3319002c39087827
:100e1800002800d189e001321c002c3319002c393c
:100e28000878002800d180e001321c002c3319001a
:100e38002c390878002878d001321c002c3319008e
:100e48002c390878002870d001321c002c33190086
:100e58002c390878002868d001321c002c3319007e
:100e68002c390878002860d01295511c0a00884552
:100e780000d12ce11c002c332c25684283469b446e
:100e88005d462878002800d197e04a1c1c002c25d4
:100e9800ab469b441878002800d190e08a1c5c4639
:100ea800180058302c256d42ab4683445d462d789a
:100eb800002d00d185e0ca1c04002c302c256d4281
:100ec800ab4683445d462d78002d7cd00a1d040076
:100ed8002c302c256d42ab4683445d462d78002d81
:100ee80073d04a1d04002c302c256d42ab46834438
:100ef8005d462d78002d6ad08a1d04002c302c25e3
:100f08006d42ab4683445d462d78002d61d0ca1de5
:100f180004003533ff3319002c3908780028a4d190
:100f2800129d02e01295a0e7002201232370002100
:100f3800a162306803061b0c614608016044810009
:100f480059484118888d00040343ff2002401a4382
:100f580022628a8d013290b2544b98423bd061464e
:100f68000a01624493005049ca1890850598608028
:100f7800109b63601199a160039ae2600298206156
:100f8800049ba36100212422a154233a227761758e
:100f98002775206a28604b46996a00291fd0564653
:100fa80037015744bd00404a5019836a002b68d066
:100fb8009e6a002e61d11e0062e0129db5e7129d67
:100fc800b3e7129db1e7129dafe7129dade7129d01
:100fd800abe7129da9e70120c1e7129545e79c629e
:100fe80050460301534499002f4a501843697169c8
:100ff8008b4210d0300014305246130153449900ec
:10100800294a904688444346d9684a69002190474e
:1010180040467669466102232377012f35d0022f97
:1010280046d063682269e168608857463e015644a5
:10103800b6001d4fbe19f668a7680097b668b04796
:1010480000281ed1012046422e60554629015144f0
:101058008b00154ad718f8680669b04724256055eb
:10106800615d4a4251414a4202231340013b637584
:10107800484603f0e4ff04e00e00b16a0029fbd102
:10108800b462484602f0fefd86e6608852461701c3
:101098005744be0004498b19da681768a26861686a
:1010a800b8470028edd1cde7c8630020ffff000056
:1010b800608851460a0152449300074ffe18f168b0
:1010c8004b682269e16898470028dad1bae74846b0
:0c10d80002f0d8fd60e6c046c8630020ae
:020000040000fa
:1010e40010b5b14b187a002858d0af49087d0128b3
:1010f40063d0ad4b188cc1b2022900d16de0aa496e
:101104008a8dd3b2032b00d177e0a74b188fc1b2dd
:10111400042900d181e0a44944228b5c052b00d131
:101124008be0a1495023c85c062800d194e09e4975
:101134005c200b5c072b00d19de09b496823c85cb5
:10114400082800d1a6e098487423c25c092a00d17b
:10115400b0e095488023c25c0a2a00d1bae09248e4
:101164008c23c25c0b2a00d1c4e08f499823ca5c4b
:101174000c2a00d1d0e08c48a423c25c0d2a00d1f3
:10118400dce08949b023ca5c0e2a00d1e8e0864835
:10119400bc23c25c0f2a00d1f4e010bd83494a6924
:1011a400d307a2d5804b1968002902d07e48406835
:1011b40088477e4b01225a6197e77c4b5a69930713
:1011c40000d496e77849cb68002b02d076480069b2
:1011d4009847764902224a618be7744a53695b0750
:1011e40000d48ce770488169002902d06e4ad06926
:1011f40088476e4b0420586181e76c4841690b07ae
:1012040000d482e7684a536a002b02d06648806a99
:101214009847664908224a6177e7644a5369db06be
:1012240000d478e76048016b002902d05e4a506b15
:1012340088475e4b102058616de75c48426993060d
:1012440000d46ee7c96b002902d0574b186c88474d
:1012540056482022426164e7544a53695b0600d42d
:1012640065e7896c002902d04f48c06c88474f4b12
:1012740040225a615be74d4a5069030600d45ce79b
:10128400496d002902d0484b986d88474748802211
:10129400426152e7454a5369db0500d453e7096ebe
:1012a400002902d04048406e8847404b80225100bc
:1012b400596148e73d494b699b0500d449e7c16e34
:1012c400002902d03848006f8847384b80229100ab
:1012d40059613ee735494b695b0500d43fe7816faf
:1012e400002902d03048c06f8847304b8022d1009b
:1012f400596134e72d494b691b0500d435e7842235
:101304008358002b03d02848882140589847274bfe
:1013140080221001586128e724484369db0400d483
:1013240029e790228b58002b03d01f49942008589a
:1013340098471e4b8022510159611ce71b494b6998
:101344009b0400d41de79c228358002b03d016482d
:10135400a02140589847154b80229001586110e70e
:10136400124843695b0400d411e7a8228b58002b70
:1013740003d00d49ac20085898470c4b8022d1016a
:10138400596104e709494b691b0400d405e7b422f9
:101394008358002b02d0b82140589847034b802231
:1013a40010025861f9e6c046386100200028004068
:020000040000fa
:1013b400f0b5de46474680b583b000900f00019338
:1013c4009500280001f0a0f9061e00d100e1542088
:1013d40001f09af9041e00d194e00663002f00d1b5
:1013e40096e0397834228154002943d07b78013245
:1013f4008354002b3ed0b97801328154002939d06e
:10140400fb7801328354002b34d039790132815472
:1014140000292fd07b7901328354002b2ad0b9794b
:1014240001328154002925d0fb7901328354002be9
:1014340020d0397a0132815400291bd07b7a0132c1
:101444008354002b16d0b97a01328154002911d06b
:10145400fb7a01328354002b0cd0397b0132815446
:10146400002907d07b7b01328354002b02d0bf7b41
:10147400422287544320002121540a9b9b46022b7d
:1014840001d90227bb465a46e26262640027a76478
:10149400201d804603f0d9fe2000183003f0d5fe4d
:1014a400246103215b46ca1aa261646220004c30a5
:1014b400077047708770c77004300770043d701957
:1014c4000726b043019a009903f08efc20600b9f1d
:1014d400002f00d03c6003f091fd41490b680133bb
:1014e4000b60404a1068002816d03f4d2e68002e2d
:1014f40017d13c4f3968cb6ae26a934211d8394814
:1015040004600ee0300002f09ffe0121484261e0d9
:1015140034230022c254b0e7324d2c600e68012ef1
:1015240034d0324a106801301060e76a304e3568b2
:10153400af4201d92e490f602e4ebb00da1990003c
:1015440037187d68a560a968e16043464b60ab60cd
:10155400e06a87003a189500711961613b189a0096
:101564009559013538188700bd5103f089fd1e4e89
:101574003168012000292dd01a4b1a68d56ae46a13
:10158400a54227d203f02efd012023e0194f380095
:1015940003f04cfd3800143003f048fd38002830c7
:1015a40003f044fd144e300003f040fd134d2800b9
:1015b40003f03cfd124803f039fd124803f036fdf8
:1015c400114803f033fd11490e60114b1d60a8e76b
:1015d4000120404203b00cbc90469b46f0bdc0467f
:1015e400f0650020e465002014660020fc650020fe
:1015f400006600200c640020c4640020d86400202d
:10160400ec6400201465002000650020e8650020db
:04161400ec65002061
:020000040000fa
:10161800f0b5de4657464e464546e0b583b003f082
:10162800ebfc7b4b1a68013a1a60186800270028ff
:1016380003d178490d68002d0fd103f01ffd380044
:1016480003b03cbc90469946a246ab46f0bd3b6a07
:1016580063601fe0fb686b602ae000276e480600a5
:1016680000216e4ca34601946d4a6e4b99466e4d0f
:10167800a8460468002c4dd0f468e768bc6afb698a
:101688003d6a9d603b6afd695d603b001833656893
:101698009d42dcd0b9622568013d25607d69bc6842
:1016a800fb68a360bc685c603c1d6b68a342d1d03a
:1016b80079612b68013b2b60fd6a5b461b689d4284
:1016c80001d9019b1d60ab005d19ab00d5186b6893
:1016d800bb609d68fd606c609c60fb6a9c00e518bf
:1016e800ad00aa46924455467d61e518ad00ad5857
:1016f800aa460125ac46e244e3189d005446ac5086
:101708004b461d68eb6afc6a9c42b2d301254346ee
:101718001d60aee7002f01d003f06afa434f3c6822
:10172800002c3fd0404d01260720204046d00128fc
:101738002dd0022825d003281dd0042815d005282f
:101748000dd0062805d000f009fd002800d02e6035
:10175800013c00f003fd002800d02e60013c00f0a1
:10176800fdfc002800d02e60013c00f0f7fc0028aa
:1017780000d02e60013c00f0f1fc002800d02e6063
:10178800013c00f0ebfc002800d02e60013c00f08a
:10179800e5fc002800d02e60013c002c0ed1234926
:1017a80000220a60204b1f68002f00d145e703f094
:1017b80017fc012741e7073c002cf0d000f0cefcd5
:1017c800002800d02e60013c00f0c8fc002800d0a2
:1017d8002e6000f0c3fc002800d02e6000f0befc94
:1017e800002800d02e6000f0b9fc002800d02e6040
:1017f80000f0b4fc002800d02e6000f0affc0028f8
:1018080000d02e6000f0aafc0028d4d02e60d2e7c9
:10181800f8650020f0650020ec64002000660020d8
:101828000c640020e46500201c660020106600207f
:020000040000fa
:10183800f0b5c6464b000d000a005b0d6449013b3c
:1018480000b5040006008b4200d99de0614b9d4223
:1018580000ddb1e000d1abe05f4b9a4200d984e0f3
:1018680000d17ee05d4a6b005b08934200d882e0bd
:10187800eb0f5b4adb075a4017000026594a5a4bc0
:101888002000290000f04efd32003b0000f0d0f9a6
:1018980003f0d6f8804603f055fb0022534b0600b0
:1018a8000f0000f03ffd22002b0000f0c1f9504a64
:1018b80004000d004f4b3000390000f033fd0200ea
:1018c8000b002000290000f0b3f902000b0006000d
:1018d8000f0000f027fd04000d00474a474b00f0b9
:1018e80021fd474a474b00f0a3f922002b0000f0e6
:1018f80019fd0022444b00f09bf932003b0000f038
:1019080011fd424a06000f00414b2000290000f05b
:1019180009fd404a404b00f08bf922002b0000f0f3
:1019280001fd320004000d003b0000202c4903f0ab
:1019380007fc02000b002000290000f079f944465a
:1019480002000b003000390001f06cfc0134002269
:10195800234b00f06df9220002f09cfd04bc904678
:10196800f0bd2e4b9e4200d87ce722222c4b002053
:101978001a600021f2e7934203d12a4b9e4200d914
:1019880076e700202849e9e7290000196941274b33
:10199800994219d816d0002e00d069e7244b9a42f4
:1019a80012d0244b9a4200d062e700200021d5e7ec
:1019b800214b984200d84fe72222194b00201a6089
:1019c8001b49cbe70028e6d020002900c6e7c0461f
:1019d800fd070000422e86402b2386c0a19cc73bf2
:1019e8000000e03f3cf92f9e2c15f73f0030e6bf82
:1019f800a80c615c10d02b3f1cdc586fa452f13e40
:101a0800e0f6b36fe4707c3f0000d03f0938de6f2a
:101a1800993f403fb35142718e71ac3fd2bc7adde1
:101a2800406600202242920c0000f03f0000e0ffd8
:0c1a38000000f07f0000f0ffef39fafe24
:020000040000fa
:101a4400f8b50c00002800d0eae078487849343032
:101a540003f05ef9002800d1e5e0744b587841b2f8
:101a6400022900d092e0714a1578002d00d18de052
:101a74006e4eb778002f00d08fe06c4b586800286a
:101a840000d0bae069498e68002e00d1c1e0cb696c
:101a94001d005a7918330020002a00d184e0c54380
:101aa400af1907223a4035d001301d001833697947
:101ab40000297ad0012a2dd0022a25d0032a1dd04c
:101ac400042a15d0052a0dd0062a05d001301d00a0
:101ad40018336f79002f68d001301d0018336a79ec
:101ae400002a62d001301d001833697900295cd0c6
:101af40001301d0018336f79002f56d001301d00be
:101b040018336a79002a50d001301d0018336979de
:101b140000294ad0411c0800b1427ad01d001a00a5
:101b240018325b79002b40d0481c15001300183381
:101b34005779002f39d0881c1d00170030375b7986
:101b4400002b32d0c81c3d00130048337f79002f8e
:101b54002bd0081d1d00170060375b79002b24d0a3
:101b6400481d3d00130078337f79002f1dd0881d58
:101b74001d00170090375b79002b16d0c81d3d005f
:101b84001300a83379790029c4d10ee027483430f2
:101b940003f010fa0126704244e02448343003f084
:101ba40009fa012040423de0002001266e7123071e
:101bb40002d51e4f0122ba701c4e73680133736044
:101bc400b18d0f04ff22104038432861b08d0130dd
:101bd40083b2174eb3421ad0144fbb853800343049
:101be40003f0e8f900212960042214432c713c69b4
:101bf4006c61a960e960286914e0230700d441e717
:101c04000a48343003f0d6f9012568420ae001237a
:101c1400e2e70648343003f0cdf90124604201e0e4
:101c240001277842f8bd01235842fbe7c86300202e
:041c3400ffff0000ae
:020000040000fa
:101c3800f0b40125ed070f005f405ad48b4200d164
:101c4800824205d950404240504059404b4059408b
:101c58004e18760ddf187f0d3bd0741c640529d013
:101c6800f41b352c26d80e0ddb022b43db0ac902e8
:101c78002943c9121700202c1ed2e741e2405740e1
:101c8800e3415a40a340e3405a4000248018594198
:101c98000ad3b21c520521d0c207012f6241170096
:101ca8004008cb0718434908013636054208af41ba
:101cb80060417141f0bc7047203c06d01f00e741ed
:101cc800e3405f400024012a6741c0186141ebd31b
:101cd800dfe7002eeed129400020ebe70136310581
:101ce8000020e7e7e742e5d10020c143090dc90418
:101cf800e0e76b400e00871a9e4104d26e40c01b7d
:101d0800b141d21973414e18df18ac0ae642e9d244
:101d1800760d7f0d31d0f41b362ccbd8b4460e0d82
:101d2800db022b43db0ac9022943c90a012c32d83a
:101d380004d1d4075208df073a435b08ef0a64422c
:101d4800904199411ed0002239424dd12419404179
:101d580049410124394204d101340018494139422a
:101d6800fad06246a24204d9361b013e36058919cb
:101d7800a0e7f10ac90700209ce736429ad1002063
:101d8800002197e70200224394d0b842ded2010036
:101d980020002024e3d1202c13dd203ce241170051
:101da800a240e2405740e3415a40a340e3405a4032
:101db800012fbf410137174300227c4298419141ce
:101dc8000ce01700e741e2405740e3415a40a34086
:101dd800e3405a407c429041994100220f0303d2cc
:101de800013e241940414941013e36054708ac41ae
:081df80050417141f0bc70473d
:020000040000fa
:101e0000f0b5de4657464e464546e0b589b0614bd3
:101e100099461820484408215f4c08225542a8469c
:101e2000a04405909b46894658e05c4a13889de093
:101e30005a4a108851460880032002f0e7ff013417
:101e40000235062c3bd00f2204a98a465244147056
:101e5000386806ae00960123049903f093f8062033
:101e600002f0d4ff069802f01dfa386800960223ab
:101e70004a4a049902f0f9ffaa462e88002ed7d0cc
:101e8000464b188802f0e2ff02f098fc444a454baa
:101e900000f04cfa02900391300002f0d7ff02f0fc
:101ea0008dfc3f4a404b00f041fa02000b000298c3
:101eb0000399fff7c1fe02f088fe80b2bae7032063
:101ec00002f0a4ff0125ac46e1440135aa46d34403
:101ed000059c0a3405944f46142f4cd00f2204afb2
:101ee000bc46624443464846195c4c0111252c43cc
:101ef000147087b204972d4d286806ac0094012316
:101f0000390003f03ff8062002f080ff069802f047
:101f1000c9f9286800940223204a390002f0a5ff7d
:101f2000062002f073ff5d462c88002c00d17ce770
:101f30001a48008802f08aff02f040fc184a194b48
:101f400000f0f4f906000f00200002f07fff02f01d
:101f500035fc134a144b00f0e9f902000b00300085
:101f60003900fff769fe02f030fe83b22b80059d39
:101f700001240e4f67e70e4e3068002300220d4902
:101f800000f022fe09b03cbc90469946a246ab4602
:101f9000f0bdc046fa610020506500206066002058
:101fa000333333333333c33f3333eb3f20660020c7
:081fb00024660020f861002006
:020000040000fa
:101fb80010b5684b987d002817d066494a8b93075f
:101fc80014d5654c2022ff20a0540132fd38a054be
:101fd800614c2023e15c4ab2531c00d18ae05e4880
:101fe8002024035d062b00d19ce010bd594c638b67
:101ff800db0707d558482023ff21c1540133fd3999
:10200800c154e5e75348418b4b0707d5524b202273
:10201800ff249c540132fe3c9c54d9e74e4a2024ac
:10202800135d58b2032843d004280fd00228cfd11b
:102038001069002804d09088002102f0adf9c7e7a4
:1020480045498888012102f0a7f9c1e7424a936906
:1020580011698b420bd0404a9468e45c3d482821c2
:10206800445401339361c369002bfcd1b0e73a4a69
:102078005469002c0ed0384b9a8854000120044330
:1020880034494c62cb69002bfcd1334a20330324fa
:10209800d4549de72f484168c0239a020a434260fe
:1020a800c469002cfcd12c482034062101558fe747
:1020b80029494c69013cca69a2420dd02549cc691d
:1020c800002cfcd1244ad36922482821445cd068da
:1020d800c4540133d3617be71e484168e023dc0226
:1020e8000c434460c369002bfcd11b4a20330620f3
:1020f800d054e3e720230020e054164c6168c02246
:1021080093020b436360e0690028fcd1114c8321e2
:102118002176114a536a002b00d166e70e48806a7f
:10212800984762e70022202142540131425409496c
:1021380083320a760c00533a638b1340102bfbd181
:102148000548416a002900d14fe7034a906a884749
:0c2158004be7c046001000424864002025
:020000040000fa
:10216400f0b5d6464f464646c0b582b0554b1868c2
:10217400002800d098e0544d2c6801342c60002cc9
:1021840019d0524d2e68a64222d9002401945048f9
:102194000568ef6abb00dc19a6004e497258012a93
:1021a40001d9012001904c4d2f68002f00d181e00e
:1021b400012301937ee0494e3768494b186830602b
:1021c4001f60484a11680131116002f013fdd8e71d
:1021d40000270197414eb246002399464248804663
:1021e4003c493b4a944637e0384e01214a4232602a
:1021f400cde7364c2560cae7dd687d6041e01d6aa5
:1022040055604f469f621568013d1560df6a42467e
:102214001568af4201d9344a1760bd00ef19ba00fe
:102224008d186f689f60ba68da605060b860dd6ac4
:10223400af0078198200881858617a1990004058c4
:1022440001307d19af00785062461068dd6ac36ab8
:102254009d4201d30127019735682f68002fc3d011
:1022640053461868c268d3685d68ac42c1d35f69dd
:102274009a68d86890609d684560181d7a688242a3
:10228400bad04a465a613d68013d3d609a6a002ac7
:10229400bcd01d6adf69bd60df696f601d00183541
:1022a4005768af42add1aae7104a116801311160f5
:1022b40000240194019802b01cbc90469946a246a1
:1022c400f0bdc046f86500201866002008660020ae
:1022d400e46500200c6400201c660020e8650020f2
:1022e400ec6500200c6600200066002010660020cb
:020000040000fa
:1022f40008d1002806d1f54204d801d3002a01d11f
:102304006d0d09d10020c143090dc904f0bdf9d1f7
:102314001242f7d1640df5d00020c14349054908a4
:10232400a6e000206146f0bdf0b50127ff070e00ce
:102334005e403e40b446be0a4c18dd18f442d7d283
:10234400f542e4d2640decd06d0dead06419c902f3
:102354003943460dc0023143db023b43db0a10b470
:102364008e4685b297b26f43140c6c433e0ca4198d
:10237400260c2404bfb227439cb26c43a419190c45
:102384006943250ca4b249190d04090c6419000c05
:1023940095b245433e0c76193743bfb2360c150c43
:1023a4004543ad19a6b2240cad192e0437432e0ca7
:1023b40036199db24543ad19acb22e0c89191d0cca
:1023c40045436d182e04290c3443704680b295b2ef
:1023d40045433e0c76193743bfb2360c150c4543c2
:1023e400ad19a6b2ad19240c2e0437432e0c3619a0
:1023f4009db24543ad19acb22e0c89191d0c454351
:102404006d182e043443290c75462d0c90b2684384
:102414003e0c80190604bfb23e43070ca0b23f181d
:10242400120c6a43d019020c80b2240ca4189ab27c
:102434006a43121914042043120c89181b0c6b43b1
:10244400c91810bc01273d05294203d1b6194041e2
:102454004941013cff077d0d013d641b0bdb6d0011
:10246400ac4209da240500254208be4168416141b5
:0a24740066463143f0bd54e74ee721
:020000040000fa
:02247e007047a5
:020000040000fa
:10248000f8b506000c0015001f0002f0d1fe069bf7
:10249000002b06d0210012318a00b3185968069a21
:1024a0001160331950331978cab202211970022f02
:1024b0001ad00bd9032f1dd0042f0ed1022a00d120
:1024c00073e01234a700f3195d6006e0012f04d118
:1024d000a1007418e76c3d43e5640124012a0ed085
:1024e00002f0b2fe2000f8bda4003519ef6c0137f0
:1024f000ef64f2e71234a300f1184d60ede72c4ac7
:102500001568002d43d17569b368f7689f60f4685a
:10251000b1686160371d6a68ba4235d000247461c1
:10252000296801392960f56a224a13689d4201d958
:10253000204c25602049aa005519ab00cc186568cd
:10254000b560aa68f2605760af60f76abb00dc193b
:10255000a5004a197261dc19a5006a580132df1919
:10256000bb005a5015490c68f66ae56a0124ae4270
:10257000b6d9079a002a02d00127079b1f6010498d
:1025800001240c600124abe7f3686b60c6e70d4bd8
:102590005f68f761bc683462310018316160b9600e
:1025a000b3621a6801321a60dce7002498e7c0467b
:1025b000f8650020006600200c640020e46500201f
:0825c0001c660020ec64002001
:020000040000fa
:1025c80070b5434b1878002802d0012806d070bd9a
:1025d8000121404a11703e4c2170f8e73d4d2b789f
:1025e800012b2cd0002b16d0022bf0d13a493b4db1
:1025f800286802f0cffa0028e9d03949394800683c
:1026080002f051fa0028e2d0324b01221a70364902
:1026180000240c70dbe73549324a906802f02afa48
:10262800002803d132490c78002cd0d18225e80546
:1026380080239a024261274901240c70c7e72d497b
:102648002648006802f02ffa00282fd02a49254a88
:10265800106802f028fa002828d0254b187800289e
:102668001dd0204a906802f0a5f8244a244b02f0b5
:102678007ff80028abd08221cc0580252d03a561e9
:10268800e123980002f0befb80208202a261642050
:1026980002f0b8fb65610f4900240c7097e7124df2
:1026a800012028700b4b0130187090e70d4988689d
:1026b80002f080f8114a124b02f05af8002800d1b3
:1026c80085e70b4c2578002d00d180e7d3e7c0467d
:1026d800486600201f6300200000e03f38660020a5
:1026e800000048423c6500208b620020000040400a
:1026f8001e63002000002041000040429a999999e9
:042708009999094052
:020000040000fa
:10270c00f0b5c64600b5040002f008fd454b18684c
:10271c00002813d0444b1e68344236d1601e0a3058
:10272c0036d8083463073dd0072123008b431a00a9
:10273c000832a24235d8fef769ff2be03b4a53071b
:10274c0020d0d61d0727be43c023d801844662443f
:10275c00951b3200364e3260002171605519083dd0
:10276c000727bd432f4b1d6069602960a81a506074
:10277c001560304a1060304e30602b4980252f0692
:10278c000f60c7e7c021cd01e4e7fef73fff01e092
:10279c00fef73cff02f05afd0027380004bc9046bf
:1027ac00f0bd1400244d2f68b846a74202d3204a2e
:1027bc00156804e0fef72affece72a000d006868b4
:1027cc00a04202d229680029f7d1164b1f68af42ec
:1027dc001fd017680837286810606a68111b102909
:1027ec001ad86c684346181b134a106011490b68c1
:1027fc00984201d20f4a106026436e6000262e606c
:10280c000e4d2c6801342c60fef700ff002fc4d154
:10281c00c0e7fef7fbfebde7281941606c6001f0d4
:10282c000dfedee7cc650020d06500200000002006
:10283c00a8650020d8650020d4650020dc65002048
:020000040000fa
:10284c000122d20703004b403dd430b4431a01d2cd
:10285c00c01ac9184b004400240eff2c29d0002ca0
:10286c0024d01b0e20d0e31a182b1ddc09021143b7
:10287c00c40d000210435d4219350a00aa40d2096a
:10288c00d940451801d36d080234013ce405280aef
:10289c000121c9072d062a438a4160414100090ed6
:1028ac00ff2901d3c00dc00530bc7047c00fc00755
:1028bc00fae742001823da41ff2af5d07f20000105
:1028cc000c300005f0e7a4465140431a02d25340a5
:1028dc00c01ac9184b00090211431b0e4400240ee8
:1028ec00ff2c41d0002b10d05b421b19012b10d3b5
:1028fc0022d1c30d4002401a10d3db050100400a5f
:10290c00c90591415841644670472442fbd10020cf
:10291c00f9e7c30d40024900401af4d000210131ff
:10292c004000fcd38c4204d95b1adb05400ac0186a
:10293c00e9e7180ac007e6e7192be4d801330c00c5
:10294c00d940dc414c40012c4941c30d00021043dd
:10295c00441a01d4a4006408013bdb05200a2406b8
:10296c009441584164467047ff2b01d04102cad0b4
:0a297c007f2000010c300005c5e7c4
:020000040000fa
:10298600f0b585b00400019100230093002544268c
:10299600002743e00138a0632268002a09d0236992
:1029a600002b0ad102f06bfb01200090009805b0c5
:1029b600f0bd02f0bafaa060f1e72000103000f096
:1029c600f6fa0028eed002f00cfbebe702f057fb1c
:1029d60000210091eae702a802f01bfb28e0a755b8
:1029e60030e04522a75432e002f007fba06800f071
:1029f60090fd009002f043fb39e02000fdf7a1ffb7
:102a0600fef707fe09e02000fdf79bfffef701fe3b
:102a1600200002f03efb002838d1012502f0edfa35
:102a2600a06b0028b6d101990029cfd0002dd2d0b5
:102a360002f025fb02f075fb02f0dffaa25d55b24b
:102a46006b1cccd04523e05c41b24b1cc9d002f0d4
:102a560016fb01a902a801f042fb0028d3d12000f1
:102a660002f017fb0028c8d020680028bcd0200040
:102a76002430019902f04bfa2000fdf762fffef7c1
:102a8600c8fd0028c9d102f0acfac6e7009e002ea8
:102a960000d18be702f0b1fa616a002903d0276bf7
:102aa6003d680323591ba06800f095ff02f0e7fa82
:062ab600002400947ae701
:020000040000fa
:102abc0070b5002841d00468002900d13649630064
:102acc0099423cd3354884423bd8080002f0b8f90f
:102adc00051c200002f0b4f9011c281c00f0a0fe1b
:102aec00061c2f49281c00f05dfc2e49fff7a8fea0
:102afc00011c301c02f01afb02f060f905002a4997
:102b0c008c4209d8ff235900ff208d421cd8fe3877
:102b1c00012d19d9680817e07e22ff32904212d895
:102b2c00032836d94000032100f098ff0602032148
:102b3c00280000f093ff304306e0002028e000203e
:102b4c0026e0002024e01948174da542a441664216
:102b5c00174a136802218b431360d569002dfcd1f1
:102b6c00134ce06022681348024036061643266078
:102b7c00236802210b4323602500ec69002cfcd157
:102b8c000b48102242830600f369002bfcd1012074
:102b9c0070bd0948d8e7c046006cdc0240420f000b
:102bac0095bfd63300002041801a06007fff00003d
:0c2bbc0000100042fffffffc01020000bf
:020000040000fa
:102bc800f0b5d646474680b585b00400009101921d
:102bd8001f00002544260023984632e03a00009959
:102be800200001f00ef9616a002909d1002810d1ee
:102bf80002f044fa012005b00cbc90469a46f0bd9c
:102c08002000243000f0d2f90028f1d002f0e8f9d1
:102c1800eee702f0e5f9ebe702f030fa0020eae728
:102c280002a802f0f5f919e04046a05520e0452336
:102c38004046e05421e02000fdf782fefef7e8fc64
:102c4800012502f0d9f9a06be26b9042c6d3022f9e
:102c5800c4d001990029dfd0002de1d002f00efa8e
:102c680002f05efa02f0c8f9a55d6bb20133dbd061
:102c78004522a15c4db26b1cd9d002f0fff901a925
:102c880002a801f02bfa002817d102f0b5f9a26bbf
:102c98009246e56b02f0f2f9aa45ccd1200010303b
:102ca800019902f033f92000fdf74afefef7b0fc67
:102cb8000028c5d102f094f9c2e72000fdf740fed4
:082cc800fef7a6fc002096e7d0
:020000040000fa
:102cd000f0b5c64600b584b004000091019200270b
:102ce00044260023984638e00099200002f048f876
:102cf0006b1ea3632569002d06d102f0c3f90120e4
:102d000004b004bc9046f0bd2000103000f052f931
:102d10000028f2d002f068f9efe702f0b3f90020e2
:102d2000eee702a802f078f921e04746a75528e02f
:102d300045214246625429e02000fdf705fefef7da
:102d40006bfc09e02000fdf7fffdfef765fc2000ad
:102d500002f0a2f9002835d1012702f051f9a56b44
:102d6000002dc1d101980028d7d0002fd9d002f072
:102d700089f902f0d9f902f043f9a15d4ab2531c76
:102d8000d3d04523e55c68b2431cd1d002f07af978
:102d900001a902a801f0a6f90028d3d1200002f071
:102da0007bf90028c8d020002430019902f0b2f845
:102db0002000fdf7c9fdfef72ffc0028ccd102f062
:082dc00013f9c9e700209be7ad
:020000040000fa
:102dc800f0b5c64600b53a4e3a4d2c005de01821e4
:102dd800002002f0f9f802f053f802f089f900280f
:102de800fbd002f0bdf968801821012002f0ecf850
:102df80002f046f802f07cf90028fbd002f0b0f9a6
:102e0800a0801821042002f0dff8012001f0faff69
:102e180002f036f802f06cf90028fbd002f0a0f9b5
:102e2800244ff8801821052002f0cef8012001f087
:102e3800e9ff02f025f802f05bf90028fbd002f068
:102e48008ff91c4908811821062002f0bdf80120dd
:102e580001f0d8ff02f014f802f04af90028fbd07c
:102e680002f07ef9134a50811821192002f0acf8bb
:102e7800012001f0c7ff02f003f802f039f9002839
:102e8800fbd002f06df90b4b18803378002b9ed0e5
:102e98008227ff05802041028846b961e12290001f
:102ea80001f0b0ff43467b615a2001f0abff8ee78b
:082eb8008b6200205c65002024
:020000040000fa
:102ec000344a536858031168ca0c10438302980aa5
:102ed0003149886300224a75080004218369194238
:102ee000fcd12d481022c1680a42fcd02b4b002097
:102ef000986118612a492b4a0a6208000421436834
:102f00001942fcd126488822402181504831402274
:102f100043581a42fcd02248d8224021815098318f
:102f2000402243581a42fcd01d48e82240218150db
:102f3000a831402243581a42fcd01948f0224021bf
:102f40008150b031402243581a42fcd01448f82234
:102f500040218150b831402243581a42fcd01048d9
:102f600082214a00402383501100402243581a42d4
:102f7000fcd00b4884214a0040238350110040229a
:102f800043581a42fcd0084808490161084ac26106
:102f90007047c046206080000010004000140040d0
:102fa000001c00400601010000080040ff1d000059
:042fb00010320600d5
:020000040000fa
:102fb40010b5c368db689a6ad869196a8160dc69ec
:102fc4004c60180018305168814242d00021996247
:102fd4001468013c1460284a116800293fd15a69d9
:102fe4009c68d968a160986848601c1d5168a1421a
:102ff40032d000215961106801381060d96a1f4a23
:103004001068814201d91d4a11601d488a00511877
:103014008a0081184a689a609168d9604c6094600b
:10302400dc6aa2001119890041185961111989003b
:10303400095801311419a200115012480168dc6ac0
:10304400cb6a00209c4203d90f4901220a60013057
:1030540010bd1c6a5460b9e7d8685060c9e70b4ad0
:103064005168d9618c681c62606088609a621068db
:1030740001301060e1e7c046f865002000660020da
:103084000c640020e46500201c660020ec64002031
:020000040000fa
:1030940010b52e4b1868002803d02d4b0120186062
:1030a40010bd2b4900220a602a4c2068236801685d
:1030b4001a6b914236d9284803689900ca189400bb
:1030c40026482158002913d15c1ea2001019810042
:1030d40022480a58002a2cd19c1ea1000a199100ea
:1030e4000a58002a27d1033b9c00e1188a00125891
:1030f4001a489a00d418a10041184c6864684c60be
:10310400d218910008314018844216d09c00e0186f
:10311400820012498c186068c1680e4a11600e4c16
:103124002360bde70b4c20682168343102f090f82d
:10313400c1e72300dce72300dae764689a00d118ca
:103144008800064a11184c60e0e7c046f865002084
:103154001c660020e4650020006600200c6400204a
:020000040000fa
:10316400f0b5d6464f464646c0b582b006002d4b54
:103174009846ff27022081460de049462977688852
:10318400f3685b682a69e968984742e02a002100ed
:10319400300001f041fab56a002d3cd0297f0129a5
:1031a40039d1ac69220a3a4013019818810041448c
:1031b40022003a405400a318d800c969441873691e
:1031c4006269934207d020001430f1684b690021f2
:1031d4009847606970612a7d022aced0042a0ed1f4
:1031e400484628776a6894462a69e9686888ab681b
:1031f4000093f3689b689a466346d04709e0012a26
:1032040009d1494629776888f2681368aa68696809
:1032140098470028bad002b01cbc90469946a246f2
:08322400f0bdc046c8630020a4
:020000040000fa
:10322c00f0b40125ed070c005c402c40a446ae0a1e
:10323c004c18df18f4423dd2f74245d2640d4cd005
:10324c007f0d3cd0e41bc9022943cf0adb022b4380
:10325c00db0a0600b61a9f4104d2013cb6197f4125
:10326c00b6185f416812800d241838dd00188442ae
:10327c0025d8e80c0021b6197f41b61a9f4103d31b
:10328c0040414941f7d304e0b6185f410018494169
:10329c00f1d32405b6197f41b61a9f4105d33743a4
:1032ac00c20717430022012f50416141624611436e
:1032bc00f0bc70470cd100280ad1f74208d200208c
:1032cc00c143490d0905f1e7002a01d1f74206d0a7
:1032dc000020c143090dc904eae77f0df8d0002096
:0432ec006146e5e76b
:020000040000fa
:1032f00070b582b08025ad00204c214b0193012692
:10330000009600232a0021001e48fef753f82100f2
:103310000c311d4801900096002380221b48fef7c7
:1033200049f8210018311a4a0192009600232a0018
:103330001848fef73ff821002831174b01930096fb
:1033400000232a001548fef735f8210038311448cb
:1033500001900322009200232a001248fef72af867
:1033600021004831104c0194009600232a000f4898
:10337000fef720f800f088fe02b070bdf4410000b6
:10338000c465002001520000b86500200952000009
:10339000c865002011520000b465002019520000d9
:1033a000c065002021520000bc65002029520000a9
:020000040000fa
:1033b00030b405004d400124e407254042004b0095
:1033c000120e32d01b0e3cd0ff2a33d0ff2b3fd041
:1033d000d21800022043000a09022143090ac4b29c
:1033e0004c43000ac3b24b43000a4843210a5b180e
:1033f000190a091801d44900013a080a7f3a2adb60
:10340000fe2a0fd2d2051c43240601d001242143f9
:10341000c9b280295041802901d140084000284389
:1034200030bc7047ff20c005f9e71b0eff2b0ad008
:103430002800f5e7400206d1ff2bf3d1490202d163
:10344000f0e7ff2af4d17f2000010c300005e7e708
:103450004902f8d1e6e743020132e9d15b120233b7
:06346000e6d9d805e4e7ff
:020000040000fa
:10346600f8b504000d00002851d0c36b0020002bd6
:103476004ed00021266c370c1a0cb8b200282ed17b
:1034860097b2002f1ed10020002941d101f0b5fdd1
:103496002768226ce66b5643b819a0600023a36325
:1034a6006760b11a7f18e760ff264422a6540132ee
:1034b600a654002d22d12569002d16d101f0dffd7d
:1034c600012025e0301cb6b29bb2734387b292b29c
:1034d6007a43180c1618330cd5d00121d3e792b2d3
:1034e600002afad13a1c181cede720001030fff72d
:1034f6005efd0028e2d001f074fddfe72000103009
:1035060001f093fd2000243001f08ffdd6e7002066
:02351600f8bdfe
:020000040000fa
:1035180070b5041e4cd0c26a264b1968cd6aaa42ff
:103528003ed28569002d05db224b1968cd6a03233d
:10353800591b81619000821895001f4b59196069c9
:10354800884205d01b4a1568eb6ae36201202ee029
:10355800251d280001f0b4fb16490868c26ae2621a
:10356800164b19688a4201d914480260124993001f
:103578009a1890000b185868a0608268e26055603d
:103588008560e56aab0058198200881860615c198b
:10359800a200505801305d19ab005850012006e0d8
:1035a800044c2268406cd36a98428941484270bdf5
:1035b8000020fce7e46500200c6400200066002081
:020000040000fa
:1035c800002941d010b4041c4c40a4460123002219
:1035d800002900d54942002800d5404288422cd312
:1035e80001242407a14204d2814202d209011b010d
:1035f800f8e7e400a14204d2814202d249005b000c
:10360800f8e7884201d3401a1a434c08a04202d373
:10361800001b5c0822438c08a04202d3001b9c08b4
:103628002243cc08a04202d3001bdc082243002816
:1036380003d01b0901d00909e3e7101c6446002cdc
:1036480000d5404210bc704701b5002001f002fed1
:1036580002bdc0460029f7d003b5fff7b3ff0ebc83
:083668004243891a1847c046cd
:020000040000fa
:1036700070b5bff35f8f62b61f4bc02084001a592c
:1036800011020d0ac026300605431d5108241c6096
:10369000c32290001958ff26b143c0252943195071
:1036a000802462011a60c42082009958134c214082
:1036b000c020000201439950802291021960c52266
:1036c00091005a58b2432a435a50802675031d6010
:1036d0005a582240104358508024a0031860c62135
:1036e0008e009d59064c2c40c02210042043985156
:1036f0008021ce041e6070bd00e100e0ff00ffffee
:04370000ffff00ffc8
:020000040000fa
:1037040070b504000d001d4b1e681d480068043090
:1037140001f0d8fa631c0dd0341919490a685460b1
:10372400a6421dd9174c2068154a1168043101f0ce
:1037340005fa70bd002defd0134d6e68104b18685c
:1037440086601968b468cc601a68043262601868cc
:103754000430b0601e6875612b6801332b60e8e7a4
:103764000a4d2868064b1968043101f0e7f9084e40
:103774003068a042ddd906490c60dae718660020fb
:10378400e4650020ec65002000650020e865002069
:0437940008660020a3
:020000040000fa
:1037980070b504000d00160001f02efc204b1868cf
:1037a80022001232910043185868002807d11c4a99
:1037b80011680b19503301201870002e20d101f028
:1037c8005dfc01f019fc164e31682200123293009c
:1037d800c8184668002e09d0002d18d0104b19685b
:1037e8002200123290000d1800236b600c490a6801
:1037f800141950340020207001f040fc300070bdd6
:1038080001213000fff77aff01f0eafbd7e7044d0a
:103818002b68721e2100123188001d186a60e5e7c6
:04382800e465002033
:020000040000fa
:10382c0030b405004d400124e407254042004b0014
:10383c00120e26d01b0e34d0ff2a2dd0ff2b35d0e4
:10384c00d21a000220430902214343084908a00d63
:10385c005b1a02d2013a5b005b185b008b4200d30f
:10386c005b1a4041f9d37f3222ddff2a06d2d20502
:10387c00c91a8b425041284330bc7047ff20c00509
:10388c00f9e71b0e03d0ff2b12d1490210d07f2079
:10389c0000010c300005efe74002f8d1ff2bedd111
:1038ac00f5e7ff2aead14002f1d1e7e74902eed170
:0438bc002800e1e718
:020000040000fa
:1038c00070b504008569036b002b0ad02e78002e9a
:1038d0000fd00423e85601f049f84021605430002d
:1038e00070bd3830194901f015fa0028eed10026d4
:1038f000f5e701f071f806006868431c0dd1aa686d
:10390000531c10d1e868431c13d12d696b1c16d1d0
:10391000300001f071fc0126e1e740b201f026f829
:103920003c216054ebe750b201f020f83d23e05415
:10393000e8e740b201f01af83e216054e5e768b2ca
:1039400001f014f83f22a054e2e7c046ffff000058
:020000040000fa
:103950008223db05f02210031860012240215a5413
:1039600001315a5401315a5401315a5401315a54d7
:1039700001315a5401315a5401315a5402315a54c6
:1039800000214e20195401301a54013019540130cd
:103990001954013019540130195403301a540130ac
:1039a0001a5401301a5401301a542f3299541f3ac4
:1039b00028381a5401301a5401301a54233223384b
:1039c0009854033299540132995401329954023275
:0c39d0002231995401324431995470475f
:020000040000fa
:1039dc0070b5041e09d0436c8b4200d20b00e26a16
:1039ec009a4202d0a16c012900d070bde362a0699b
:1039fc00002802db0325eb1aa36191008a189000c2
:103a0c00144d291863698b42efd1251d280001f054
:103a1c0055f9e26a104801688a4201d90e4b1a60c6
:103a2c000c49900082189300c8184368a3609a68e8
:103a3c00e26055609d60e56aa80043199a008b18f6
:103a4c0063614419a200545801344519a80044502c
:0c3a5c00cbe7c0460c6400200066002090
:020000040000fa
:103a6800002934d00123002210b488422cd3012429
:103a78002407a14204d2814202d209011b01f8e7be
:103a8800e400a14204d2814202d249005b00f8e777
:103a9800884201d3401a1a434c08a04202d3001ba3
:103aa8005c0822438c08a04202d3001b9c082243d6
:103ab800cc08a04202d3001bdc082243002803d014
:103ac8001b0901d00909e3e7101c10bc704701b5b8
:103ad800002001f0bffb02bd0029f8d003b5fff7b5
:0c3ae800c1ff0ebc4243891a1847c046bb
:020000040000fa
:103af40070b50d00002832d11d4b1878002831d143
:103b04001b48343001f049fa012802d001235842fd
:103b14002ae01748383001f040fa012825d1144c26
:103b2400012121702a68e2606b69a3616868e06121
:103b3400ab68a36028696062eb6823620020a0621e
:103b44006060a0702063a185ad692561656192699b
:103b540021000848904702216170002004e00125fb
:103b6400684201e00120404270bd01246042fbe74d
:083b7400c86300209d41000020
:020000040000fa
:103b7c001e4a137801210b43137010000122436875
:103b8c001a42fcd11949122048701030c861020742
:103b9c000a62174b8b610b61164b00221a810132a2
:103bac009a820f321a849a851a8744201a520c3042
:103bbc001a520c301a520c301a520c301a520c3059
:103bcc001a520c301a520c301a520c301a520c3049
:103bdc001a52ac32a13898520b78022213430b7054
:103bec0002204b681842fcd17047c04600280040a8
:083bfc00038000003861002085
:020000040000fa
:103c0400f0b583b0002300938224e4058025ed02ff
:103c14002e00184f21e001f0abfa01f015f900f085
:103c2400cbfd154a154bfef77ffb0022144bfef724
:103c34007bfb00f0c7f90099009001f07bfa0021aa
:103c4400fff7b4fb0199fef7fffd386065610122bf
:103c5400524201210020fff79dfda66101f020f9e9
:103c640008490098fff7e0fd019001f04bfa0028a5
:103c7400fbd0d0e7346600206666666666660a4056
:083c84000000503f00401c4607
:020000040000fa
:103c8c0070b5040085692b78002b09d04026815d26
:103c9c000423e85601f00ef9206b00282bd070bde0
:103cac0000f094fe06006868431c0cd1aa68531cf3
:103cbc000fd1e868431c12d12d696b1c15d1300053
:103ccc0001f094fae8e73c21615c40b201f0f2f8b3
:103cdc00ece73d23e15c50b201f0ecf8e9e73e2162
:103cec00615c40b201f0e6f8e6e73f22a15c68b205
:103cfc0001f0e0f8e3e72000383001f057f9cee7a7
:020000040000fa
:103d0c0070b5041e33d0836c013b8364c26a416c72
:103d1c008a422ed00020002b00d070bd251d28001b
:103d2c0000f0ccff606ce06203231a1aa261124906
:103d3c000b68984201d9104a10601049830018187a
:103d4c0082008b185868a0608268e26055608560bc
:103d5c00e56aab0058198200881860615c19a200f2
:103d6c00505801305d19ab0058500120d5e70020a8
:103d7c00d3e70020d1e7c046006600200c64002089
:020000040000fa
:103d8c0070b505000e00002834d00020090c2b0c57
:103d9c008ab2002a29d19cb2002c18d100282cd12f
:103dac003000684300240100493124d84830fef724
:103dbc00a7fc041e1fd00300002e00d04833236044
:103dcc00e563266401212000fff747fb13e0191c73
:103ddc00341cb3b2aab25a43a4b289b26143130cd5
:103dec00ca18140cdad00120d8e79bb2002bfad1f8
:0e3dfc002c1ceee70024200070bd0024fbe725
:020000040000fa
:103e0a0070b504001600856b026c002a0cd10020e4
:103e1a002368002b02d00135a56370bda068fff7a7
:103e2a0070ff0022a260f6e7002e0ed1406801f072
:103e3a0054f96368226c9446634463603000a66850
:103e4a00b342e8d321686160e5e7c06801f045f94b
:103e5a00236c5a42e0688318e36021688b4203d2dc
:103e6a00a06884466244e2600020022ed3d1002d6d
:063e7a00d1d0013dcfe7ad
:020000040000fa
:103e800010b5194b06225a60fff762fdfff718f8cc
:103e900000f0ccf801f074f9fef7f1fa00f056faf0
:103ea00000f0a8fafff76afe00f0aafc00f0c8fcd8
:103eb00000f0e6fc00f042fb00f01efa0b49002087
:103ec000fff718fe0a49086001f072f901f076f96f
:103ed00001f07af901f07ef901f082f901f086f93a
:103ee000fff7c6fb10bdc04600400041dc4e00009d
:043ef000b065002099
:020000040000fa
:103ef4000021f0b5174b184a934208d30027174afc
:103f040013685168002b05d1002903d1f0bd197045
:103f14000133f1e7100095680c305c18002d16d0c1
:103f24000b25ed1a5219a3420ad10b0003221340a8
:103f34005a1e934189085918890040180200dfe786
:103f44005d1cae5c1e702b00ede71f700133a342b5
:103f5400fbd1f3e70000002000000020680500000a
:020000040000fa
:103f6400f0b5c64600b5134da846134f134e43464d
:103f74001868002817d001f041f8f968cc68201db2
:103f840000f0a0fe3268013a32602b68013b2b60de
:103f940001f076f8206b00f057f9200000f054f996
:103fa40028680028e7d106490c68012cdfd901f004
:103fb40019f8dce7f465002014650020f0650020a2
:043fc4000c64002069
:020000040000fa
:103fc8004b1801225205da4217d25b0d0722d201a3
:103fd8009b1a0fd9ff2b13d2db05ca0fd207134345
:103fe8000903020d1143490ac200524100d90131a7
:103ff800c8187047c80fc007704706d1002804d1f9
:10400800c80f0002ff30c00570470123db070a0014
:10401800c900400f084398431a4010435b0a1843ed
:024028007047df
:020000040000fa
:02402a00fee7af
:020000040000fa
:10402c00134b01221a601800c1690029fcd1104bf6
:10403c008022500058601900cb69002bfcd10c4831
:10404c00e822c2600b490160c369002bfcd108490e
:10405c0010224a830800c369002bfcd106480022b9
:10406c002121425401394254014b83329a757047d5
:0c407c00001000421600100048640020f4
:020000040000fa
:1040880000b583b080220e4b019300230093920069
:104098000c490d48fdf78af9012803d00b4a13682b
:1040a80003b000bd72b60a4801214a420260094bba
:1040b80002321a6008480021016000f0fdfbede7bc
:1040c8000466002038520000653f00006866002042
:0c40d80008660020146600201866002016
:020000040000fa
:1040e40070b505000c0000f089ff124b1a682368b4
:1040f400591c1ad06968104800682e68864205d099
:10410400914203d80021216001240fe0501a834218
:1041140003d800252560012408e09a1a5318236067
:10412400280000f077ff002400e0002400f0a8ff3e
:0c413400200070bd186600200c66002002
:020000040000fa
:1041400000230e4a10b513600d4a13600d4a136028
:104150000d4a13600d4a13600d4a53621361013317
:10416000936001f000f800f0feff0a4c0a4b9c42fd
:1041700000d310bd08cc9847f8e7c046446600203d
:104180008463002080630020786300207c6300202b
:0c41900088630020c8000000cc00000084
:020000040000fa
:10419c0070b504000378002b1ed001214256022a70
:1041ac001ad1826a9169080aff2528400301181860
:1041bc0083000c48c0182b000b405d00eb18dd0091
:1041cc00c0692d182b69994207d0200000f035ffeb
:1041dc0029002000fef7c0ff70bd2900200000f070
:0841ec0017faf5e7c863002093
:020000040000fa
:1041f4004932435f5461736b7300000043414e5f67
:104204005461736b7300000056545f53454e53451d
:104214005f5461736b730000415645524147455fdb
:104224005461736b7300000043555252454e545f02
:104234005461736b73000000434845434b535f5410
:0842440061736b730000c046ba
:020000040000fa
:10424c0010b500280bd00300083b5b680f4a1268be
:10425c001a4204d0010008390c68002c00d010bda3
:10426c00083804009343436000f058ff0848636823
:10427c000268944663440360200000f0dff80549af
:10428c000c6801340c60fdf7c1f9e8e7d06500203b
:08429c00d4650020e06500205c
:020000040000fa
:1042a40070b505000304180e0024002801d0200076
:1042b40070bd0f48fff702fb002817d0ff212940eb
:1042c4000b4a136a8b4207d92c20484308494a6a8f
:1042d4001318186aa84203d00548fff7d5fce6e78f
:1042e40024255c5de4b200215955f5e70024dee79e
:0442f400c86300207b
:020000040000fa
:1042f800124901220a700800038c1342fcd11049ac
:1043080008688200e023d9000a400005430f1a43d9
:104318000a48828502224270023242730521817066
:10432800053101810631418102730723837101221e
:104338004271018c8bb2002bfbd1704700480042c0
:044348002060800071
:020000040000fa
:10434c00114901228a61080083691a42fcd00e4887
:10435c00826902210a4382610c4bc361802226319f
:10436c008150836927398b43836101218269114212
:10437c00fcd1074b0020186058609860d860186119
:10438c00586198617047c046001c00421746002ec9
:04439c009064002009
:020000040000fa
:1043a00010b5114b00229a61da61104b83321a76f4
:1043b0005a680f4c22405a601a00d369002bfcd176
:1043c00000290cd0084a20330324d4544000084369
:1043d000064a50621100cb69002bfcd110bd024a85
:1043e00020230424d454f1e7486400200010004244
:0443f000fffffbffd1
:020000040000fa
:1043f40010b5114b18691a6902218a431a611a69a6
:104404000e4c22401a61014211d018001b690b4363
:10441400036101000422cc682242fcd006480369ef
:10442400db0504d404490122cc682242fcd00248b2
:10443400034bc36110bdc046001800401e003f007e
:04444400040002006e
:020000040000fa
:1044480010b5124a00e01a0013688342fbd3516882
:104458005418a04208d041684418a34209d0036008
:10446800904200d0106010bd4068411851601000a3
:10447800f1e7074c2468a34206d05b6859184160ed
:10448800146823680360ebe70460e9e7a865002087
:04449800cc650020cf
:020000040000fa
:10449c0070b5104c4b005b0da3420fd0002b0dd010
:1044ac00d3180d4a93420adc002b0fdd0b4a1b0577
:1044bc001140194304000d002000290070bdc90fe4
:1044cc00074bc9070b4300241d00f5e7c90f002457
:1044dc00cd07f1e7ff070000fe070000ffff0f808c
:0444ec000000f07f5d
:020000040000fa
:1044f000431e033317d801040a0e16d1ff210140d1
:104500000d4b9a68914212d24b005918cb000a4abf
:10451000d1695b181a6982420bd15879421e9041c9
:104520004042184070470020fce70020fae70020d6
:0c453000f8e70020f6e7c046c863002052
:020000040000fa
:10453c00104901220a700800038c1342fcd10e4969
:10454c0008680202e023d9000a408006430f1a4390
:10455c000848828500224270032141730231817028
:10456c000281428107238371028c91b20029fbd115
:0c457c007047c0460044004220608000f0
:020000040000fa
:1045880010b50e4b1878002802d0012813d010bda2
:10459800002292210120fff7f5fb094908600f214d
:1045a8000020fdf74bfa074a106001230648037004
:1045b80002490b70ebe7fdf71ffce8e75c6600209b
:0c45c8002466002020660020f86100201e
:020000040000fa
:1045d40010b5064c2378002b07d1054b002b02d0d5
:1045e400044800e000bf0123237010bd7464002060
:1045f4000000000000000000044b10b5002b03d0a5
:104604000349044800e000bf10bdc046000000009c
:084614007864002000000000a2
:020000040000fa
:10461c00f8b505000f001600c368186980472421ff
:10462c007054745c63425c41624202241440013c4d
:10463c007475366a280000f000fdbb68002b0ad0a8
:10464c00286b01302863fa68bf6831002000b84736
:08465c00296b01392963f8bd47
:020000040000fa
:1046640010b50a4b98470a48804700f0e7fd09490e
:10467400ff229143084ca160084b984708488047a3
:104684000849884700f066fdfee7c0466f50000009
:104694006f5000000000000000ed00e04141000008
:0846a4006f5000006f50000090
:020000040000fa
:1046ac000e4b002221215a5401395a540c480368ec
:1046bc001e398b430360c269002afcd10848036889
:1046cc0002210b430360c269002afcd10448102369
:1046dc0043830100ca69002afcd17047486400205a
:0446ec000010004278
:020000040000fa
:1046f000eff309800e4b1a6820381060f0c0444672
:104700004d4656465f46f0c008b572b6fef7c2fc8d
:1047100062b60cbc116808681030f0c8a046a94603
:10472000b246bb4680f309882038f0c81847c04617
:04473000e46500201c
:020000040000fa
:1047340030b401256d054c00e54215d85c00e54216
:1047440012d80c001c436400044314430fd005d258
:1047540082428b418041013030bc70479042994184
:104764008041013030bc7047002030bc70470120cc
:0447740030bc70479e
:020000040000fa
:1047780030b401256d054c00e54215d85c00e542d2
:1047880012d80c001c436400044314430fd005d214
:10479800904299418041013030bc704782428b4140
:1047a8008041013030bc7047002030bc7047012088
:0447b80030bc70475a
:020000040000fa
:1047bc0041008c46012212068a420bd80909382383
:1047cc001b06c918c30fdb07194340076346da42bf
:1047dc0004d27047c10fc9070020704703d138239a
:1047ec001b06c918704738231b06c9180122d204ae
:0447fc0011437047ae
:020000040000fa
:104800000c4901220a60080003691a42fcd10948d8
:10481000c221ca0002600323037307498183332244
:104820008272064b00211960012242720369002b3b
:10483000fcd17047003400423e49000090650020e2
:020000040000fa
:104840000c4901220a60080003691a42fcd1094898
:10485000e221ca00026003230373074981833322e4
:104860008272064b00211960012242720369002bfb
:10487000fcd1704700300042cba4ffff98650020b8
:020000040000fa
:104880000c4901220a60080083681a42fcd10948d9
:10489000002202600221c163962359010164064b84
:1048a000c36206490a60013282628268002afcd132
:1048b0007047c046002400420ffc0f00a065002096
:020000040000fa
:1048c00010b50c4b1968ff221004084318601968d2
:1048d000ff2210060843186000f0e2f9064b0021a1
:1048e000196000f07df8fef7d5fb00f0f2fb002028
:0c48f00010bdc04620ed00e06466002012
:020000040000fa
:1048fc0010b50c4c2023e45c0023002c01d01800d4
:10490c0010bd084b9880d9605a6100229a601a61d8
:10491c00012199701a7020315a542039fff73afd51
:08492c000123ece748640020c0
:020000040000fa
:1049340070b50c4d20242d5d0024002d01d02000e5
:1049440070bd084ca080e360049b6361a160226198
:104954000021a17021702122a1540021fff71efd26
:084964000124ece74864002087
:020000040000fa
:10496c0070b5050000f0a6fb0024002d0edb0949f4
:10497c000a681f232b40da400134144001259d4066
:10498c0080228d50bff34f8fbff36f8f00f05ffb12
:08499c00200070bd00e100e005
:020000040000fa
:1049a40010b50b4c2023e45c0023002c01d018002c
:1049b40010bd074b9880dc605c6199601a619c7043
:1049c4001c7021229c540021fff7e8fc0123eee730
:0449d4004864002013
:020000040000fa
:0849d80010b500f071fb10bde9
:020000040000fa
:1049e0000b4a13681868203080f30988022080f38e
:1049f0001488bff36f8f3fbcae4608bc04bc62b6e0
:104a00001847c046c046c046c046c046c046c0461d
:044a1000e465002039
:020000040000fa
:104a140000b585b000230393084a106803a90191e7
:104a2400009300220021fdf729fd039b002b03d0f6
:104a3400034880225105016005b000bdc065002017
:044a440004ed00e09d
:020000040000fa
:104a4800f4464a1805d200f0bef801d5c017400850
:104a5800604701235b05d34206d200f0b4f801d5c4
:104a68000120c0074042604701d10042f5d0d0176d
:044a7800400870473b
:020000040000fa
:104a7c00012212064300da4211d84b00da420ed85a
:104a8c0002000a43520008d003d281428041013017
:104a9c0070478842804101307047012070470020e8
:024aac00704751
:020000040000fa
:104aae00012212064300da4211d84b00da420ed828
:104abe0002000a43520008d003d2884280410130de
:104ace0070478142804101307047012070470020bd
:024ade0070471f
:020000040000fa
:104ae00010b5094b587a00280dd007498a7ad0b200
:104af00033238b72002806d004490b68002b02d0a8
:104b0000024a5168984710bd003400429065002069
:020000040000fa
:104b100010b5094b587a00280dd007498a7ad0b2cf
:104b200033238b72002806d004490b68002b02d077
:104b3000024a5168984710bd003000429865002035
:020000040000fa
:104b400030b50c6802000832631c02d1026904e02f
:104b50001a0053681d68a542fad953684b609960e2
:0e4b60008a605160086101680131016030bd5a
:020000040000fa
:104b6e00012212064300da420fd84b00da420cd86b
:104b7e0002000a43520008d003d2814280414042d3
:0e4b8e007047884280414042704700207047c7
:020000040000fa
:104b9c00012212064300da420fd84b00da420cd83d
:104bac0002000a43520008d003d28842804140429e
:0e4bbc007047814280414042704700207047a0
:020000040000fa
:104bca004a0010d2520d03231b02ff33d21a0ad411
:104bda0052421f3209d4400dc90208430123db07a0
:0e4bea001843d040704700207047d017704726
:020000040000fa
:104bf800084b18680168002904d1074b012041427d
:104c080019607047034a1368d8680168024a11603e
:0c4c1800f7e7c046e865002008660020b1
:020000040000fa
:104c240010b5084b1878002802d0012808d010bd10
:104c34000021054800f0aefa024901220a70f6e7a5
:0c4c4400fef7deff4c660020154a000061
:020000040000fa
:104c500010b5074b5888c30709d5054901224a807a
:104c6000044b1968002902d002484068884710bdeb
:084c70000028004088650020c7
:020000040000fa
:104c780010b5064bd86a064ada62db6a05490b6842
:104c8800002b02d0034a5168984710bd0024004207
:084c98000ffc0f00a0650020d5
:020000040000fa
:104ca000054b00221a6005490a600548054a026062
:104cb000072119607047c04610e000e018e000e0ee
:084cc00014e000e07fbb0000de
:020000040000fa
:104cc8000369416882688a60416851605a68824213
:104cd80006d0002202611868013818601868704709
:064ce80081685960f5e748
:020000040000fa
:104cee00c20f12029d3201000cd001d5494202d4ee
:104cfe00013a4900fcd5d205080a0906494100d3fc
:064d0e000129504170472d
:020000040000fa
:104d140010b5074b994207d00068fdf732fe013801
:104d24004342584140b210bd01214942f4e7c04614
:044d3400ffff00007d
:020000040000fa
:104d380010b5064b9879c0b201229a7104490b68e4
:104d4800002b02d0024a5168984710bd0048004223
:044d58008065002052
:020000040000fa
:104d5c0010b500f067fa0400fdf7fef9002803d047
:104d6c00034b802250051860200000f067fa10bd3c
:044d7c0004ed00e062
:020000040000fa
:104d800010b50c00026c002a0bd0c3689b18c360de
:104d900081688b4201d30368c360c168200000f0c2
:044da000a1f910bda8
:020000040000fa
:104da40010b5020000210120fef7eeff041e07d01b
:104db400002383600360c36000220021fdf702ff2b
:044dc400200010bdfe
:020000040000fa
:104dc80041000dd2090e7f390ad449421f3105d45a
:104dd80000020122d2071043c8407047c817704725
:044de80000207047f0
:020000040000fa
:104dec0010b5031f802464041c60043b1960043b51
:104dfc0002491960143b1a60403810bdd3500000b2
:020000040000fa
:104e0c0010b5041e09d000f089f900212000fef72e
:104e1c0073fcfcf7fbfb002801d100f0dff810bda0
:020000040000fa
:104e2c0010b5064b1878002802d0012804d010bd0c
:104e3c00024901220a70fae7fdf7c0ff5466002010
:020000040000fa
:104e4c009d2201000ad002d4013a4900fcd5d205ba
:0e4e5c00080a0906494100d301295041704758
:020000040000fa
:104e6a0010b584b001240394069c02940193009225
:0c4e7a0000230022fbf74bff04b010bd2a
:020000040000fa
:024e8600fee745
:020000040000fa
:104e8800054a137e02210b43137610008022d100bd
:0c4e9800038c0b42fcd170470044004228
:020000040000fa
:104ea400054a137e02210b43137610008022d100a1
:0c4eb400038c0b42fcd170470048004208
:020000040000fa
:104ec000002907d0002805db1f2318401e3b834024
:0c4ed000014a13607047c04600e100e09a
:020000040000fa
:104edc00f84e0000ac64002001000000020000004d
:0c4eec00206300207050000064000000f3
:020000040000fa
:104ef800fd480000a549000035490000ad46000006
:0c4f080019510000bd2a00008d5100006e
:020000040000fa
:104f140010b50c00044b19681831fff70ffe01217e
:0c4f24002000fef7edfb10bde46500204e
:020000040000fa
:104f3000054b1868002804d003490a68936c0133b4
:0c4f40009364014800687047e46500209d
:020000040000fa
:104f4c00054b004206d5404200b5984708bc0122eb
:0c4f5c00d207114318470000694f000005
:020000040000fa
:104f680042221201033a010007d002d4013a001884
:0c4f7800fcd51205c30a400599187047cb
:020000040000fa
:104f840010b584b002240394069c02940024019476
:0a4f94000094fbf7bffe04b010bd4f
:020000040000fa
:104f9e0010b5040000202368002b00d010bd013096
:0a4fae00fff7f9fe20600120f8e78c
:020000040000fa
:104fb80010b50068002300220021fdf701fe01382a
:084fc8004342584140b210bd04
:020000040000fa
:104fd0000143044b198119000422088c1042fcd1b2
:084fe0007047c0460044004286
:020000040000fa
:104fe800044b802250051860bff34f8fbff36f8fbb
:084ff8007047c04604ed00e023
:020000040000fa
:1050000072b6044a136801331360bff34f8fbff3c6
:085010006f8f704764660020f9
:020000040000fa
:10501800034b19680160034a136843607047c04630
:085028000c6600201866002050
:020000040000fa
:10503000030008334360012251428160c360036171
:065040000023036070472d
:020000040000fa
:10504600836a002b05d09a6a8262002018779862dc
:045056001870704717
:020000040000fa
:10505a00002803d0bff35f8f62b6704772b6bff302
:04506a005f8ffae773
:020000040000fa
:02506e00704789
:020000040000fa
:10507000010000000c000000000000000000000023
:04508000000000002c
:020000040000fa
:10508400034a1368013b1360002b00d162b67047da
:04509400646600202e
:020000040000fa
:1050980010b50400fff7b0ffa46bfff7efff604205
:0450a800604110bd96
:020000040000fa
:1050ac00034b1878002802d1014901220a7070477d
:0450bc005866002012
:020000040000fa
:1050c000eff3108072b6bff35f8f43425841c0b216
:0250d000704727
:020000040000fa
:1050d20082b00023019372b601980028fcd002b07e
:0250e200704715
:020000040000fa
:1050e400002310b59a4200d110bdcc5cc4540133e6
:0250f400f8e7db
:020000040000fa
:0250f600704701
:020000040000fa
:1050f800024bd879c143cab2d00970470044004274
:020000040000fa
:10510800024bd879c143cab2d0097047004800425f
:020000040000fa
:10511800024a2123d05cc0b27047c04648640020d0
:020000040000fa
:10512800024a1368013313607047c046f8650020cf
:020000040000fa
:105138000122d2075140014b1847000051280000b6
:020000040000fa
:10514800f0b40125ed076b40004c20473f1c0000e0
:020000040000fa
:0e51580010b50020fef790fefef7c6f8fce74b
:020000040000fa
:02516600704790
:020000040000fa
:0c516800014b988c80b27047004400425c
:020000040000fa
:0c517400014b988c80b27047004800424c
:020000040000fa
:0c518000014b84225a607047004000413f
:020000040000fa
:0c518c00014b5862996270474864002093
:020000040000fa
:0c519800014b186059607047a0650020b2
:020000040000fa
:0c51a400014b01221a6070471c660020bd
:020000040000fa
:0c51b000014b00221a7070475c66002062
:020000040000fa
:0c51bc00014b00221a707047586600205a
:020000040000fa
:0c51c800014b00221a7070475466002052
:020000040000fa
:0c51d400014b00221a707047506600204a
:020000040000fa
:0c51e000014b00221a7070474c66002042
:020000040000fa
:0c51ec00014b00221a707047486600203a
:020000040000fa
:0851f80010b5fff72eff10bdfa
:020000040000fa
:0852000010b5fff7c1f9fce74e
:020000040000fa
:0852080010b5fff74ffffce7b2
:020000040000fa
:0852100010b5fff70bfefce7ef
:020000040000fa
:0852180010b5faf75ffffce797
:020000040000fa
:0852200010b5fff7fffcfce7ed
:020000040000fa
:0852280010b5fdf7cdf9fce71c
:020000040000fa
:08523000eff3108072b6704725
:020000040000fa
:0852380049444c450000c0464a
:020000040000fa
:0852400010b5fef757fe10bd8a
:020000040000fa
:0652480080f3108870479e
:020000040000fa
:06524e000023036170471c
:020000040000fa
:0452540072b6fee749
:020000040000fa
:0452580072b6fee745
:020000040000fa
:04525c007047c04691
:020000040000fa
:0200000400807a
:04400000770800003d
:020000040000fa
:0200000400807a
:044004000000ffffba
:00000001FF
