:020000040000fa
:10000000f87f0020213d0000d13f00002149000081
:1000100000000000000000000000000000000000e0
:100020000000000000000000000000000749000080
:100030000000000000000000013e0000314300000d
:100040001712000017120000171200005d270000b1
:1000500017120000171200001712000017120000fc
:1000600017120000171200001712000017120000ec
:10007000fd05000000000000000000001712000055
:1000800000000000553f000017120000171200008a
:10009000413c0000f53b0000171200001712000061
:1000a0001712000017120000953f00001712000001
:0c00b000171200001712000017120000c9
:020000040000fa
:1000bc00f8b5c046f8bc08bc9e467047013d000030
:1000cc00f8b5c046f8bc08bc9e467047d93c000049
:020000040000fa
:1000dc00a86200201c00000000000000fc61002051
:1000ec0044000000000000005c63002008000000d9
:1000fc0000000000c46200201c0000000000000092
:10010c0000600020c00000000000000064630020bc
:10011c0008000000000000007c6200202c000000a1
:10012c00000000006c6300200800000000000000cc
:10013c007463002008000000000000007c630020b5
:10014c000800000000000000e06200201800000021
:10015c000000000054610020580000000000000066
:10016c00946300200400000000000000986300204d
:10017c0004000000000000009c630020040000004c
:10018c0000000000a063002004000000000000003c
:10019c00a46300200400000000000000a8630020fd
:1001ac000400000000000000206400200400000097
:1001bc0001000000aaaaaaaaac6300200400000057
:1001cc0000000000406200203c0000000000000025
:1001dc00f862002014000000000000000c630020f6
:1001ec001400000000000000b063002004000000b8
:1001fc0000000000b46300200400000000000000b8
:10020c002063002014000000000000003463002074
:10021c001400000000000000b8630020040000007f
:10022c0000000000486300201400000000000000e3
:10023c00bc6300200400000000000000c06300202c
:10024c000400000000000000c46300200400000053
:10025c0000000000c8630020040000000000000043
:10026c00cc6300200400000000000000d0630020dc
:10027c000400000000000000d46300200400000013
:10028c0000000000d8630020040000000000000003
:10029c00dc6300200400000000000000e06300208c
:1002ac000400000000000000246400200400000092
:1002bc000100000002000000e463002004000000c4
:1002cc0000000000e86300200400000000000000b3
:1002dc001c6400200100000000000000c060002031
:1002ec0092000000000000001864002001000000d3
:1002fc000000000014640020010000000000000059
:10030c001064002001000000000000000c640020bc
:10031c0001000000000000008463002008000000c1
:10032c000000000000000020006000000000000041
:10033c008c6300200800000000000000ec6300202b
:10034c000400000000000000f06300200400000026
:10035c0000000000f4630020040000000000000016
:10036c00f86300200400000000000000fc63002083
:10037c0004000000000000000064002004000000e5
:10038c0000000000046400200400000000000000d5
:10039c00ac61002050000000000000000864002048
:1003ac00040000000000000000000000000000003d
:020000040000fa
:1003bc0080b58cb000aff860b9607a601a00fb1c95
:1003cc001a700123fb62fb68bb6204f08bfa03001a
:1003dc007b62bb6b002b08d0ba6abb6812339b00e4
:1003ec00d31804331a68bb6b1a602323fb18b96a41
:1003fc005020ba688a18121812781a70ba6a5021ea
:10040c00bb68d3185b1802221a70fb1c1b78042bd8
:10041c003fd89a006f4bd3181b689f46ba6abb68cb
:10042c0012339b00d31804331a687b681a43b96ad9
:10043c00bb6812339b00cb1804331a602ce0ba6ae9
:10044c00bb6812339b00d31804331b685a1cb96a5f
:10045c00bb6812339b00cb1804331a601ce0ba6ad9
:10046c00bb6812339b00d31804337a681a6013e00c
:10047c002323fb181b78022b08d0ba6abb681233f3
:10048c009b00d31804337a681a6005e00023fb62e2
:10049c0002e0c04600e0c0462323fb181b78012b6a
:1004ac0000d08de04c4b1b68002b5dd1bb6a5b69a7
:1004bc00fb61bb6a9b68ba6ad2689a60bb6adb68ec
:1004cc00ba6a92685a60fb695a68bb6a04339a42ea
:1004dc0003d1bb6ada68fb695a60bb6a00225a61b5
:1004ec00fb691b685a1efb691a60bb6ada6a3b4bd4
:1004fc001b689a4203d9bb6ada6a384b1a60bb6a2a
:10050c00da6a374913009b009b189b00cb18043305
:10051c001b68bb61bb6aba699a60bb699a68bb6aa3
:10052c00da60bb699b68ba6a04325a60bb6a1a1dee
:10053c00bb699a60bb6ada6a13009b009b189b002c
:10054c00274a9a18bb6a5a61bb6ada6a24491300b3
:10055c009b009b189b005b58581c214913009b0067
:10056c009b189b0058501be01e4b5b687b61bb6a61
:10057c007a69da617b699a68bb6a1a627b699b68e3
:10058c00ba6a18325a60bb6a18331a007b699a60cf
:10059c00bb6a144a9a62134b1b685a1c114b1a60a3
:1005ac00bb6ada6a104b1b68db6a9a4208d9fb6b90
:1005bc00002b02d0fb6b01221a600c4b01221a603b
:1005cc007b6a180003f022fefb6a1800bd460cb0d3
:1005dc0080bdc046e0470000e4630020c4630020f7
:1005ec004062002020630020ac630020d063002018
:020000040000fa
:1005fc0080b500af894b9b7ddbb2002b00d10ae1ab
:10060c00864b5b8b9bb21a0002231340022b08d142
:10061c00834b2022ff219954814b21220221995492
:10062c00b0e07e4b5b8b9bb21a0001231340012b75
:10063c0008d17b4b2022ff219954794b2122022196
:10064c0099549fe0754b5b8b9bb21a0004231340ab
:10065c00042b08d1724b2022ff219954704b21227c
:10066c00012199548ee06e4b20229b5c5bb2022bd5
:10067c0009d003dc002b00d183e083e0032b54d0a2
:10068c00042b12d07ee0664b1b69002b06d0644b0a
:10069c009b880021180003f091f873e0604b9b8855
:1006ac000121180003f08af86ce05d4b9a695c4bf1
:1006bc001b699a4225d15a4b5b69002b10d0584bc1
:1006cc009b885a00554b01210a435a62c046534b32
:1006dc00db69002bfbd1524b20220321995451e0b2
:1006ec004e4b5a684d4bc02189020a435a60c04692
:1006fc004a4bdb69002bfbd1494b20220621995434
:10070c0040e0474b9a68464b9b69d318434a19788b
:10071c002823d154424b9b695a1c414b9a61c046c9
:10072c003e4bdb69002bfbd12ce03d4bda693c4b9b
:10073c005b69013b9a420fd1384b5a68374be02129
:10074c00c9020a435a60c046344bdb69002bfbd10b
:10075c00334b202206219954c046304bdb69002bc9
:10076c00fbd12e492e4bda682d4bdb69d31828228e
:10077c008a5cd2b21a702a4bdb695a1c284bda619c
:10078c0000e0c046264b20229b5c5bb201331dd19e
:10079c00234b202200219954204b5a681f4bc02117
:1007ac0089020a435a60c0461c4bdb69002bfbd103
:1007bc001a4b83221a761a4b5b6a002b2bd0184be0
:1007cc005a6a174b9b6a1800904724e0144b20225e
:1007dc009b5c5bb2062b1ed1114b2022002199543d
:1007ec000f4b2122002199540c4b83221a76c046c0
:1007fc000a4b5b8b9bb21a0030231340102bf7d1a2
:10080c00074b5b6a002b06d0054b5a6a044b9b6a5c
:10081c0018009047c046c046bd4680bd001000423f
:04082c007c620020ca
:020000040000fa
:1008300080b588b000af0023fb61744b1b68002bb0
:1008400000d0d9e0724b1b680133bb61704bba69b1
:100850001a60bb69002b10d16e4b1b687b616e4b1d
:100860001a686c4b1a606c4b7a691a606b4b1b6888
:100870005a1c6a4b1a6003f0c3fd694b1b68ba69c6
:100880009a4200d2a4e0634b1b681b68002b04d182
:10089000634b012252421a609ae05e4b1b68db6890
:1008a000db683b613b695b68fb60ba69fb689a4245
:1008b00003d25b4bfa681a608ae03b695b69bb60f4
:1008c0003b699b683a69d2689a603b69db683a6920
:1008d00092685a60bb685a683b6904339a4203d1f4
:1008e0003b69da68bb685a603b6900225a61bb68a1
:1008f0001b685a1ebb681a603b699b6a002b1ed09e
:100900003b699b6a7b603b69db693a69126a9a6062
:100910003b691b6a3a69d2695a607b685a683b69cd
:1009200018339a4203d13b691a6a7b685a603b6963
:1009300000229a627b681b685a1e7b681a603b69ba
:10094000da6a384b1b689a4203d93b69da6a354b3d
:100950001a603b69da6a344913009b009b189b00bc
:10096000cb1804331b683b603b693a689a603b686c
:100970009a683b69da603b689b683a6904325a605e
:100980003b691a1d3b689a603b69da6a13009b0059
:100990009b189b00244a9a183b695a613b69da6aa2
:1009a000214913009b009b189b005b58581c1e4953
:1009b00013009b009b189b0058503b69da6a1b4b45
:1009c0001b68db6a9a4200d25de70123fb615ae7ac
:1009d000164b1b68da6a144913009b009b189b0096
:1009e0005b58012b01d90123fb61114b1b68002bc4
:1009f00007d00123fb6104e00e4b1b685a1c0d4b12
:100a00001a60fb691800bd4608b080bde463002091
:100a1000c0630020b0630020b4630020d4630020d2
:100a2000dc630020c463002040620020ac6300202f
:080a3000d0630020cc6300201c
:020000040000fa
:100a380080b586b000af00237b6100233b6103f0e3
:100a4800affd644b1b685a1e624b1a60614b1b68f2
:100a5800002b00d0b7e0604b1b68002b00d1b2e040
:100a680089e05e4bdb68db687b617b699b6abb6006
:100a78007b69db697a69126a9a607b691b6a7a69a1
:100a8800d2695a60bb685a687b6918339a4203d1a5
:100a98007b691a6abb685a607b6900229a62bb68e4
:100aa8001b685a1ebb681a607b695b697b607b693f
:100ab8009b687a69d2689a607b69db687a69926810
:100ac8005a607b685a687b6904339a4203d17b6910
:100ad800da687b685a607b6900225a617b681b6808
:100ae8005a1e7b681a607b69da6a3d4b1b689a421a
:100af80003d97b69da6a3a4b1a607b69da6a394941
:100b080013009b009b189b00cb1804331b683b60a9
:100b18007b693a689a603b689a687b69da603b68e7
:100b28009b687a6904325a607b691a1d3b689a602f
:100b38007b69da6a13009b009b189b00294a9a1864
:100b48007b695a617b69da6a264913009b009b1806
:100b58009b005b58581c234913009b009b189b0063
:100b680058507b69da6a204b1b68db6a9a4202d3c9
:100b78001e4b01221a60194b1b68002b00d070e72e
:100b88007b69002b01d003f037fc194b1b68fb6015
:100b9800fb68002b0fd0fff747fe031e02d0134b54
:100ba80001221a60fb68013bfb60fb68002bf2d155
:100bb8000f4b00221a600d4b1b68002b03d001233a
:100bc8003b6103f047fd03f0fdfc3b691800bd469f
:100bd80006b080bde4630020bc63002020630020d1
:100be800c463002040620020ac630020d063002072
:040bf800cc630020aa
:020000040000fa
:100bfc0080b586b000af0200bb1d1a807b1d0a1c9d
:100c0c001a7000233b61bb1d1b88002b02d00123f3
:100c1c005b42abe0bb1d1a8813001b019b189b00a9
:100c2c00544a9b183b613b693433534a11001800fa
:100c3c0002f08aff031e02d101235b4296e03b695e
:100c4c005b785bb2022b06d13b691b7801225340c7
:100c5c00dbb2002b07d03b693433180003f03dfcaa
:100c6c0001235b4282e03b699b78002b07d03b69f8
:100c7c003433180003f031fc01235b4276e03b690e
:100c8c005b68002b0cd07b1d1b780822134007d00f
:100c9c003b693433180003f020fc01235b4265e010
:100cac0000237b6156e07a6913005b009b18db0024
:100cbc001a003b69db69d318fb60fb685b79012286
:100ccc005340dbb2002b42d0fb6801225a717b1dd2
:100cdc001b780822134002d03b6901229a703b69b1
:100cec005b685a1c3b695a603b69988dbb1d1b881d
:100cfc00dbb27a69d2b2190003f0faf90200fb6890
:100d0c001a613b699b8d180003f02cfa03001a0042
:100d1c003b699a853b693433180003f0defbbb1d3d
:100d2c001a88fb681a607b1d1b7804221343dab205
:100d3c00fb681a713b691a69fb685a61fb680022ef
:100d4c009a60fb680022da60fb681b690ee07b6925
:100d5c0001337b613b699b687a699a42a3d13b69f9
:100d6c003433180003f0b9fb01235b421800bd4675
:0c0d7c0006b080bdfc610020ffff0000fd
:020000040000fa
:100d880080b588b000af78607b68db68db68bb61e2
:100d9800bb699b6a7b61bb69db69ba69126a9a6045
:100da800bb691b6aba69d2695a607b695a68bb69b0
:100db80018339a4203d1bb691a6a7b695a60bb69c6
:100dc80000229a627b691b685a1e7b691a60494b2c
:100dd8001b68002b5dd1bb695b693b61bb699b6884
:100de800ba69d2689a60bb69db68ba6992685a6066
:100df8003b695a68bb6904339a4203d1bb69da6814
:100e08003b695a60bb6900225a613b691b685a1edc
:100e18003b691a60bb69da6a374b1b689a4203d987
:100e2800bb69da6a344b1a60bb69da6a3349130062
:100e38009b009b189b00cb1804331b68fb60bb69a5
:100e4800fa689a60fb689a68bb69da60fb689b6815
:100e5800ba6904325a60bb691a1dfb689a60bb699b
:100e6800da6a13009b009b189b00244a9a18bb69f6
:100e78005a61bb69da6a214913009b009b189b00e1
:100e88005b58581c1d4913009b009b189b00585029
:100e98001be01b4b5b68bb60bb69ba68da61bb6867
:100ea8009a68bb691a62bb689b68ba6918325a604b
:100eb800bb6918331a00bb689a60bb69104a9a620a
:100ec8000f4b1b685a1c0e4b1a60bb69da6a0d4b34
:100ed8001b68db6a9a4205d90123fb610a4b012290
:100ee8001a6001e00023fb61fb691800bd4608b0e9
:100ef80080bdc046e4630020c46300204062002037
:0c0f080020630020ac630020d0630020b8
:020000040000fa
:100f140008d1002806d1f54204d801d3002a01d112
:100f24006d0d09d10020c143090dc904f0bdf9d1eb
:100f34001242f7d1640df5d00020c1434905490898
:100f4400a6e000206146f0bdf0b50127ff070e00c2
:100f54005e403e40b446be0a4c18dd18f442d7d277
:100f6400f542e4d2640decd06d0dead06419c902e7
:100f74003943460dc0023143db023b43db0a10b464
:100f84008e4685b297b26f43140c6c433e0ca41981
:100f9400260c2404bfb227439cb26c43a419190c39
:100fa4006943250ca4b249190d04090c6419000cf9
:100fb40095b245433e0c76193743bfb2360c150c37
:100fc4004543ad19a6b2240cad192e0437432e0c9b
:100fd40036199db24543ad19acb22e0c89191d0cbe
:100fe40045436d182e04290c3443704680b295b2e3
:100ff40045433e0c76193743bfb2360c150c4543b6
:10100400ad19a6b2ad19240c2e0437432e0c361993
:101014009db24543ad19acb22e0c89191d0c454344
:101024006d182e043443290c75462d0c90b2684378
:101034003e0c80190604bfb23e43070ca0b23f1811
:10104400120c6a43d019020c80b2240ca4189ab270
:101054006a43121914042043120c89181b0c6b43a5
:10106400c91810bc01273d05294203d1b6194041d6
:101074004941013cff077d0d013d641b0bdb6d0005
:10108400ac4209da240500254208be4168416141a9
:0a10940066463143f0bd54e74ee715
:020000040000fa
:10109e0080b58ab000af7860396000237b627b68d0
:1010ae00fb6100233b6203f078fafb699b6bbb612b
:1010be00bb69002b1dd0bb695a1efb699a63fb6985
:1010ce001b68002b04d103f08cfa0200fb699a60b6
:1010de00fb691b69002b08d0fb6910331800fff762
:1010ee004cfe031e01d003f0b2fa03f068fa01239e
:1010fe0086e03b68002b03d103f061fa00237fe00a
:10110e007b6a002b06d10c23fb18180003f00dfa96
:10111e0001237b6203f053fa03f01bfb03f03dfa4d
:10112e00fb6944229b5c5bb2013303d1fb69442211
:10113e0000219954fb6945229b5c5bb2013303d1bc
:10114e00fb6945220021995403f039fa3a000c2329
:10115e00fb181100180001f0d6fe031e2ed1fb69fc
:10116e00180003f08ef9031e21d0fb691b68002bbb
:10117e000ad103f012fafb699b68180000f071fbac
:10118e0003003b6203f01bfafb6924333a6811003b
:10119e00180003f014f9fb69180001f036fbfff795
:1011ae0044fc031e00d07ee703f051fa7be7fb6997
:1011be00180001f02afbfff738fc74e7fb691800f2
:1011ce0001f023fbfff731fcfb69180003f059f91e
:1011de00031e00d167e73b6a002b10d003f0ddf948
:1011ee00fb69180003f037f903007b61fb699b680c
:1011fe007a691100180000f05afd03f0e0f900239f
:08120e001800bd460ab080bdc6
:020000040000fa
:02121600fee7f1
:020000040000fa
:1012180080b586b000af78600023fb6003f09cfacd
:101228004e4b1b68002b01d101f034fa4c4b1b6864
:101238007a68134000d085e07b68002b1dd0082217
:101248007b68d3187a689a4217d208227b689b1861
:101258007b607b680722134011d07b680722934389
:1012680008337a689a4205d27b6807229343083389
:101278007b6004e000237b6001e000237b607b68e7
:10128800002b5fd0374b1b687a689a425ad8364b86
:101298003b61354b1b687b6104e07b693b617b6983
:1012a8001b687b617b695b687a689a4203d97b69b2
:1012b8001b68002bf1d1294b1b687a699a4241d0ef
:1012c8003b691b6808229b18fb607b691a683b69ad
:1012d8001a607b695a687b68d21a08235b009a42b5
:1012e80010d97a697b68d318bb607b695a687b68b8
:1012f800d21abb685a607b697a685a60bb68180062
:1013080001f00cfd174b1a687b695b68d21a154b04
:101318001a60144b1a68154b1b689a4203d2114b7a
:101328001a68124b1a607b695a680d4b1b681a437e
:101338007b695a607b6900221a600d4b1b685a1c36
:101348000b4b1a60fff774fbfb68002b01d102f00e
:101358004ffdfb681800bd4606b080bdec63002059
:1013680000640020f06300208c630020f4630020f8
:04137800f8630020f6
:020000040000fa
:10137c00f0b587b002af786039600023bb600f23f3
:10138c00fb1801221a700f23fb1801221a707b68bc
:10139c00180003f08cf90300bb60bb68002b00d174
:1013ac0083e0bb681b7f012b00d07ee0bb689b6990
:1013bc00ff221a4013005b009b18db001800bb686f
:1013cc009b691b0aff221a403e4913001b019b1804
:1013dc009b00cb181c331b68c3183b607b685a6995
:1013ec003b685b699a420bd07b68db685b693a6847
:1013fc0014320021100098473b685a697b685a6187
:10140c00bb681b7d022b16d0042b27d0012b3dd1a2
:10141c00bb6802221a777b68db681d68bb6858883a
:10142c00bb685968bb689b680f22bc181a00a84798
:10143c00030023702be0bb6802221a777b68db6801
:10144c005d68bb685888bb68d968bb681b690f228c
:10145c00bc181a00a8470300237018e0bb680222ce
:10146c001a777b68db689d68bb685888bb68d9684d
:10147c00bb681a69bb685e68bb689b680f243c1923
:10148c0000933300a8470300237000e0c0460f23ed
:10149c00fb181b7801225340dbb2002b05d0ba6835
:1014ac0039687b68180001f0ddfe0f23fb181b78f0
:1014bc0001225340dbb2002b00d064e7c046bd468e
:0814cc0005b0f0bdfc61002039
:020000040000fa
:1014d4000122d20703004b403dd430b4431a01d259
:1014e400c01ac9184b004400240eff2c29d0002c2c
:1014f40024d01b0e20d0e31a182b1ddc0902114343
:10150400c40d000210435d4219350a00aa40d209f5
:10151400d940451801d36d080234013ce405280a7a
:101524000121c9072d062a438a4160414100090e61
:10153400ff2901d3c00dc00530bc7047c00fc007e0
:10154400fae742001823da41ff2af5d07f20000190
:101554000c300005f0e7a4465140431a02d2534030
:10156400c01ac9184b00090211431b0e4400240e73
:10157400ff2c41d0002b10d05b421b19012b10d340
:1015840022d1c30d4002401a10d3db050100400aea
:10159400c90591415841644670472442fbd100205b
:1015a400f9e7c30d40024900401af4d0002101318b
:1015b4004000fcd38c4204d95b1adb05400ac018f6
:1015c400e9e7180ac007e6e7192be4d801330c0051
:1015d400d940dc414c40012c4941c30d0002104369
:1015e400441a01d4a4006408013bdb05200a240644
:1015f4009441584164467047ff2b01d04102cad040
:0a1604007f2000010c300005c5e74f
:020000040000fa
:10160e0080b500af8223db05f02212031a6082231d
:10161e00db054022012199548223db054122012161
:10162e0099548223db054222012199548223db0542
:10163e004322012199548223db054422012199542e
:10164e008223db054522012199548223db054622a4
:10165e00012199548223db054722012199548223cb
:10166e00db054922012199548223db054e220021fc
:10167e0099548223db054f22012199548223db05e5
:10168e005022002199548223db05512200219954c6
:10169e008223db055222002199548223db0553223b
:1016ae00002199548223db0556220121995482236d
:1016be00db055722012199548223db055822012193
:1016ce0099548223db055922012199548223db058b
:1016de003022002199548223db05312211219954a5
:1016ee008223db053222112199548223db0533221a
:1016fe00112199548223db0534221021995482231f
:10170e00db053722002199548223db053822002184
:10171e0099548223db053922002199548223db055b
:10172e003b22222199548223db053c2266219954c7
:06173e00c046bd4680bd5f
:020000040000fa
:1017440080b58ab000aff860b9607a603b6000236e
:101754007b62fb683b6202f025ff3b6a9a6b3b6a43
:10176400db6b9a4202d33b68022b1ed13a68b968fc
:101774003b6a180000f05cfe0300fb613b6a5b6a95
:10178400002b09d03b6a24331800fff7fbfa031e31
:1017940007d002f061ff04e0fb69002b01d002f0e6
:1017a4005bff02f011ff01235be07b68002b03d198
:1017b40002f00aff002354e07b6a002b06d11423b5
:1017c400fb18180002f0b6fe01237b6202f0fcfe57
:1017d40002f0c4ff02f0e6fe3b6a44229b5c5bb26b
:1017e400013303d13b6a4422002199543b6a4522c8
:1017f4009b5c5bb2013303d13b6a452200219954bf
:1018040002f0e2fe3a1d1423fb181100180001f047
:101814007ffb031e1ed13b6a180002f009fe031e63
:1018240011d03b6a10337a681100180002f0ccfd25
:101834003b6a180000f0eefffff7fcf8031e8ad1a4
:1018440002f00aff87e73b6a180000f0e3fffff7a6
:10185400f1f880e73b6a180000f0dcfffff7eaf8d4
:0a18640000231800bd460ab080bd45
:020000040000fa
:02186e007047c1
:020000040000fa
:1018700080b586b000af78607b683b6100237b61f8
:101880007b68002b00d177e03b69da6a3d4b1b682f
:10189000db6a9a4267d23b699b69002b06db394bb6
:1018a0001b68db6a0322d21a3b699a613b6959695a
:1018b0003b69da6a13009b009b189b00324a9b1815
:1018c000994248d13b690433180002f06bf92d4b63
:1018d0001b68da6a3b69da623b69da6a2b4b1b6880
:1018e0009a4203d93b69da6a284b1a603b69da6a83
:1018f000254913009b009b189b00cb1804331b68e1
:10190000fb603b69fa689a60fb689a683b69da6039
:10191000fb689b683a6904325a603b691a1dfb6890
:101920009a603b69da6a13009b009b189b00164a79
:101930009a183b695a613b69da6a134913009b00a4
:101940009b189b005b58581c0f4913009b009b1869
:101950009b00585004e00b4b1b68da6a3b69da6263
:1019600001237b6108e03b695a6c064b1b68db6a0c
:101970009a4201d201237b617b691800bd4606b003
:1019800080bdc046ac63002040620020c4630020dc
:020000040000fa
:1019900080b584b000af786002f006fe3b4b1b6858
:1019a0005a1c3a4b1a603a4b1b68002b09d1384b32
:1019b0007a681a60354b1b68012b10d101f09cfc32
:1019c0000de0344b1b68002b09d1314b1b68da6ae0
:1019d0007b68db6a9a4202d82d4b7a681a602e4bdc
:1019e0001b685a1c2c4b1a607b68da6a2b4b1b68ed
:1019f0009a4203d97b68da6a284b1a607b68da6af4
:101a0000274913009b009b189b00cb1804331b68cd
:101a1000fb607b68fa689a60fb689a687b68da60aa
:101a2000fb689b687a6804325a607b681a1dfb6801
:101a30009a607b68da6a13009b009b189b00184a27
:101a40009a187b685a617b68da6a154913009b0013
:101a50009b189b005b58581c114913009b009b1856
:101a60009b00585002f0b2fd0a4b1b68002b08d0b7
:101a7000074b1b68da6a7b68db6a9a4201d202f084
:101a8000edfdc046bd4604b080bdc046bc6300202d
:101a9000ac630020c8630020d8630020c46300202a
:041aa0004062002080
:020000040000fa
:101aa40080b584b000af02003960bb1d1a800023ea
:101ab400fb603b68bb60bb1d1b88002b02d001236d
:101ac4005b426ae0bb1d1a88364913001b019b1850
:101ad4009b005b5c002b02d001235b425de0bb1ddd
:101ae4001a8813001b019b189b002e4a9b18fb604d
:101af400fb683433180002f0dffc0300012b02d032
:101b040001235b4249e0fb683833180002f0d4fc3f
:101b14000300012b02d001235b423ee0fb6801225b
:101b24001a70bb681a68fb68da60bb685a69fb689c
:101b34009a61bb685a68fb68da61bb689a68fb689b
:101b44009a60bb681b691a00fb685a62bb68da6852
:101b5400fb681a62fb6800229a62fb6800225a60e2
:101b6400fb6800229a70fb6800221a63fb6801225a
:101b74009a85bb689a69fb681a61bb689a69fb68b5
:101b84005a61fb68db689b69f968074a100098474b
:101b9400fb6802225a70bb1d1b881800bd4604b0a6
:0c1ba40080bdc046fc610020d52d000073
:020000040000fa
:101bb00090b589b000aff860b9607a600023fb612e
:101bc000f86802f06bfd031cbb61b86802f066fdab
:101bd000031c7b6100233b61bb685b00fa689a428f
:101be00001d2002359e0bb682e4a93421fd879697d
:101bf000b86901f0d9f9031c1c1c2b49b86900f025
:101c0000ddff031c2949181cfff764fc031c191c89
:101c1000201c02f033fe031c3b61386902f0fafc21
:101c20000300fb61bb68224a934214d801e0002301
:101c300033e0fa69ff235b009a4202d9ff23fb617c
:101c400027e0fb69012b02d80123fb6121e0fb693e
:101c50005b08fb611de0fa697e23ff339a4202d9db
:101c6000144bfb6115e0fb69032b02d8124bfb619f
:101c70000fe0fb695b000321180001f0b3fa0300d9
:101c80001c02fb690321180001f0acfa0300234396
:101c9000fb617b68fa691a6001231800bd4609b030
:101ca00090bdc04640420f0095bfd6330000204192
:0c1cb000801a06007fff00000102000007
:020000040000fa
:101cbc0080b588b000af786039607b68bb61012368
:101ccc007b617b68002b71d0bb695b6c3a689a4274
:101cdc0002d93b68fb6102e0bb695b6cfb61bb69d1
:101cec00db6afa699a4261d0bb699b6c7a699a4249
:101cfc005cd1bb69db6a3b61bb69fa69da62bb69bf
:101d0c009b69002b04dbfb690322d21abb699a6125
:101d1c00bb6959693a6913009b009b189b00254ac3
:101d2c009b18994242d1bb690433180001f034ff6f
:101d3c00bb69da6a204b1b689a4203d9bb69da6a21
:101d4c001d4b1a60bb69da6a1a4913009b009b1879
:101d5c009b00cb1804331b68fb60bb69fa689a6064
:101d6c00fb689a68bb69da60fb689b68ba690432e5
:101d7c005a60bb691a1dfb689a60bb69da6a13006a
:101d8c009b009b189b000b4a9a18bb695a61bb6954
:101d9c00da6a084913009b009b189b005b58581c7f
:101dac00044913009b009b189b005850c046bd462d
:0c1dbc0008b080bd40620020c46300201d
:020000040000fa
:101dc80080b586b000aff860b9607a603b60bb6ae6
:101dd8001a6b7b683a498c4663449b00d3183b6175
:101de8003b69072293433b61bb68002b20d000234b
:101df8007b6113e0ba687b69d3181878ba6a342112
:101e08007b69d3185b18021c1a70ba687b69d318ef
:101e18001b78002b06d07b6901337b617b690f2b14
:101e2800e8d900e0c046bb6a43220021995403e088
:101e3800bb6a3422002199543b6a022b01d9022340
:101e48003b62bb6a3a6ada62bb6a3a6a5a64bb6a3c
:101e580000229a64bb6a0433180002f089fcbb6a4a
:101e68001833180002f084fcbb6aba6a1a613b6a2c
:101e78000322d21abb6a9a61bb6aba6a5a62bb6aff
:101e88004c3304220021180002f0fcfcbb6a5033da
:101e980001220021180002f0f5fc3a68f9683b6954
:101ea800180001f029fe0200bb6a1a607b6a002b49
:101eb80002d07b6aba6a1a60c046bd4606b080bdc9
:041ec800ffffff3fda
:020000040000fa
:101ecc00b0b584b000af786039600123fb607b68eb
:101edc00bb60bb68002b00d16ae0bb68db6b002bde
:101eec0066d0bb681a6cbb68db6b0024150c190c34
:101efc00a8b2002804d188b2002813d0101c04e02a
:101f0c0089b200290dd1291c181c92b29bb25a43dc
:101f1c0083b289b24b43120c9b181b149bb2002b3f
:101f2c0000d00124231e43d102f038fbbb681a6891
:101f3c00bb68d96bbb681b6c4b43d218bb689a60ef
:101f4c00bb6800229a63bb681a68bb685a60bb689e
:101f5c001a68bb68db6b591ebb681b6c4b43d218f1
:101f6c00bb68da60bb684422ff219954bb684522e8
:101f7c00ff2199543b68002b0dd1bb681b69002bca
:101f8c0013d0bb6810331800fef7f8fe031e0cd0fc
:101f9c0002f05efb09e0bb681033180002f030f869
:101fac00bb682433180002f02bf802f009fb01e0a7
:0e1fbc000023fb60fb681800bd4604b0b0bdfa
:020000040000fa
:021fca0070475e
:020000040000fa
:101fcc0080b500af354b1b78dbb2344a01210b4393
:101fdc00dbb21370c046314b5b6801221340012bfe
:101fec00f9d02e4b12225a702c4b2222da612b4b39
:101ffc00802292051a62294b294a9a61274b284a5a
:10200c001a61284b00221a81264b01229a82254bf9
:10201c0010221a84234b10229a85224b10221a87e5
:10202c00204b4422102199521e4b502210219952c0
:10203c001c4b5c22102199521a4b68221021995288
:10204c00184b742210219952164b80221021995250
:10205c00144b8c2210219952124b98221021995218
:10206c00104ba422102199520e4bb02210219952e0
:10207c000c4bbc220f219952084b1b78dbb2074a40
:10208c0002210b43dbb21370c046044b5b68022287
:10209c001340022bf9d0c046bd4680bd002800403d
:0820ac00038000000060002029
:020000040000fa
:1020b40080b500af01f0f8fc02f00cfb02f026fa48
:1020c400304a88234021d150c0462e4a8823d35811
:1020d40040221340402bf8d12a4ad8234021d15022
:1020e400c046284ad823d35840221340402bf8d165
:1020f400244ae8234021d150c046224ae823d35839
:1021040040221340402bf8d11e4af0234021d150e5
:10211400c0461c4af023d35840221340402bf8d128
:10212400184af8234021d150c046164af823d35800
:1021340040221340402bf8d1124a82235b004021f5
:10214400d150c0460f4a82235b00d358402213402b
:10215400402bf7d10b4a84235b004021d150c04669
:10216400084a84235b00d35840221340402bf7d104
:10217400054b064a1a61044b054ada61c046bd465e
:1021840080bdc046001c004000080040ff1d000048
:0421940010320600ff
:020000040000fa
:1021980080b586b000af78607b683b6100237b61c7
:1021a8007b68002b5dd03b699b6c5a1e3b699a6427
:1021b8003b69da6a3b695b6c9a4252d03b699b6c1b
:1021c800002b4ed13b690433180001f0e7fc3b6952
:1021d8005a6c3b69da623b69db6a0322d21a3b69b3
:1021e8009a613b69da6a214b1b689a4203d93b69b9
:1021f800da6a1e4b1a603b69da6a1d4913009b00b4
:102208009b189b00cb1804331b68fb603b69fa687a
:102218009a60fb689a683b69da60fb689b683a6970
:1022280004325a603b691a1dfb689a603b69da6a96
:1022380013009b009b189b000d4a9a183b695a6132
:102248003b69da6a0a4913009b009b189b005b589c
:10225800581c074913009b009b189b0058500123ea
:102268007b617b691800bd4606b080bdc463002051
:0422780040620020a0
:020000040000fa
:10227c0090b583b000af02003960fb1d1a70fb1dd6
:10228c001b787f2b28d82f4afb1d1b785bb29b0831
:10229c00c0339b009b58fa1d1278110003220a4090
:1022ac00d200ff2191400a00d2431a4011003b6832
:1022bc009b01ff221a40fb1d1b78180003230340cf
:1022cc00db009a401f48fb1d1b785bb29b080a433e
:1022dc00c0339b001a5031e01b4afb1d1b781900c0
:1022ec000f230b40083b9b0806339b00d318043389
:1022fc001b68fa1d1278110003220a40d200ff213c
:10230c0091400a00d2431a4011003b689b01ff2206
:10231c001a40fb1d1b78180003230340db009a4076
:10232c000948fb1d1b781c000f232340083b9b080e
:10233c000a4306339b00c31804331a60c046bd46db
:0c234c0003b090bd00e100e000ed00e0f7
:020000040000fa
:1023580080b586b000af786039602e4b1b687b6112
:102368002d4b1b680433180001f018fc7b680133ff
:1023780024d13b68002b21d0284b5b683b61264b5e
:102388001b683a699a60244b1b683a699268da605c
:10239800214b1a683b699b6804325a601e4b1b68c4
:1023a8001a1d3b699a601c4b1b681c4a5a611b4bdf
:1023b8001b685a1c194b1a60c04626e07a697b686c
:1023c800d318fb60144b1b68fa685a60fa687b697b
:1023d8009a4209d2124b1a680f4b1b680433190032
:1023e800100001f0eff810e00e4b1a680a4b1b685a
:1023f80004331900100001f0e5f80b4b1b68fa686c
:102408009a4202d2084bfa681a60c046bd4606b026
:1024180080bdc046c0630020ac6300204863002034
:0c242800b4630020b0630020dc630020df
:020000040000fa
:1024340080b586b000aff860b9607a6000237b6134
:10244400fb689b6b3b61fb681b6c002b0ed1fb682c
:102454001b68002b4ed1fb689b681800fff79afe9f
:1024640003007b61fb6800229a6043e07b68002bd9
:1024740019d1fb685868fb681a6cbb68190002f034
:10248400e9f9fb685a68fb681b6cd218fb685a6050
:10249400fb685a68fb689b689a422bd3fb681a68ee
:1024a400fb685a6026e0fb68d868fb681a6cbb6856
:1024b400190002f0cff9fb68da68fb681b6c5b4219
:1024c400d218fb68da60fb68da68fb681b689a421a
:1024d40007d2fb689a68fb681b6c5b42d218fb68e6
:1024e400da607b68022b05d13b69002b02d03b6983
:1024f400013b3b613b695a1cfb689a637b6918008a
:06250400bd4606b080bddb
:020000040000fa
:10250c0080b586b000af7860396000237b617b6852
:10251c00002b01d100234ce07b681b683b613b68be
:10252c00002b01d1254b3b600c23fa1839693b6811
:10253c001800fff737fb03001a0001235340dbb2ee
:10254c00002b01d0002334e03b691d4a934201d992
:10255c0001237b611b4b1a681a4b02218a431a60b8
:10256c00c046184bdb69002bfbd1164bfa68da60be
:10257c00144b1b68144a134019007b691a06c023bc
:10258c009b041a400f4b0a431a600e4b1a680d4bf2
:10259c0002210a431a60c0460a4bdb69002bfbd1af
:1025ac00084b10225a83c046064bdb69002bfbd12b
:1025bc0001231800bd4606b080bdc046006cdc028d
:0c25cc00801a060000100042fffffffc18
:020000040000fa
:1025d800f0b40125ed070c005c402c40a446ae0a7f
:1025e8004c18df18f4423dd2f74245d2640d4cd066
:1025f8007f0d3cd0e41bc9022943cf0adb022b43e1
:10260800db0a0600b61a9f4104d2013cb6197f4185
:10261800b6185f416812800d241838dd001884420e
:1026280025d8e80c0021b6197f41b61a9f4103d37b
:1026380040414941f7d304e0b6185f4100184941c9
:10264800f1d32405b6197f41b61a9f4105d3374304
:10265800c20717430022012f5041614162461143ce
:10266800f0bc70470cd100280ad1f74208d20020ec
:10267800c143490d0905f1e7002a01d1f74206d007
:102688000020c143090dc904eae77f0df8d00020f6
:042698006146e5e7cb
:020000040000fa
:10269c0080b584b000afc023db01bb60264bfb6070
:1026ac00fb68072213400cd0fb680733fb60fb6808
:1026bc0007229343fb60ba68fb68d21a1e4bd318ef
:1026cc00bb60fb687b601d4b7a681a601b4b002259
:1026dc005a607b68ba68d318fb600822fb689b1aa7
:1026ec00fb60fb6807229343fb60fa68144b1a608b
:1026fc00134b1b6800225a60114b1b6800221a6096
:10270c007b683b603b68fa68d21a3b685a600c4b9a
:10271c001a683b681a603b685a680a4b1a603b6837
:10272c005a68094b1a60094b802212061a60c0467f
:10273c00bd4604b080bdc046000000208c63002064
:10274c00ec630020f4630020f063002000640020a0
:020000040000fa
:10275c0080b582b000affb1d00221a7000233b60d5
:10276c00fb1d00221a7044e0fb1d1a78254913004a
:10277c005b009b189b00cb1808331b88dbb2fa1d3f
:10278c0012789a4230d1204b5b69fa1d12780121e4
:10279c0091400a0013403b603b68002b24d0fb1d8a
:1027ac001a78184913005b009b189b005b58002b90
:1027bc0013d0fb1d1a78134913005b009b189b0068
:1027cc005958fb1d1a780f4813005b009b189b008f
:1027dc00c31804331b6818008847fb1d1a780a4b72
:1027ec00012191400a005a61fb1d1a78fb1d013230
:1027fc001a70fb1d1b780f2bb6d9c046bd4602b014
:0c280c0080bdc046006000200028004095
:020000040000fa
:1028180080b584b000af786001f0c2fe0f23fb18ca
:102828007a684521525c1a7013e07b685b6a002b5a
:1028380016d07b6824331800fef7a2fa031e01d0d5
:1028480001f0c0ff0f217b181b78013bdab27b181f
:102858001a700f23fb181b785bb2002be5dc00e035
:10286800c0467b684522ff21995401f0abfe01f078
:1028780097fe0e23fb187a684421525c1a7013e005
:102888007b681b69002b16d07b6810331800fef795
:1028980077fa031e01d001f095ff0e217b181b78f3
:1028a800013bdab27b181a700e23fb181b785bb257
:1028b800002be5dc00e0c0467b684422ff219954e8
:0c28c80001f080fec046bd4604b080bd9b
:020000040000fa
:1028d40080b582b000af284b1b68002b03d0274b78
:1028e40001221a6043e0254b00221a60244b1b6826
:1028f4001a68234b1b681b6b9a4208d8204b1a6832
:102904001f4b1b6834331900100001f0c5ff1d4b29
:102914001b687b6002e07b68013b7b601a497a6834
:1029240013009b009b189b005b58002bf3d07a6824
:1029340013009b009b189b00134a9b183b603b6849
:102944005b685a683b685a603b685a683b6808335e
:102954009a4204d13b685b685a683b685a603b689a
:102964005b68da68064b1a60064b7a681a60c046e0
:10297400bd4602b080bdc046e4630020d0630020a1
:0c298400ac630020c4630020406200200f
:020000040000fa
:1029900090b587b000af00237b6101f005fc2649ac
:1029a000786900f001fb031c3b61c04601f08cfc20
:1029b00003001a0001235340dbb2002bf6d101f0d3
:1029c000e7fe0300180001f069fe031c181c01f06b
:1029d0007ffa1a4a1a4bfef7b9fa03000c001800e6
:1029e00021000022174bfff7f7fd03000c00180031
:1029f000210000f087fe031cfb607969f86801f094
:102a00003dff031c0021181c00f0d8f8031cbb601c
:102a1000b9683869fef75efd031c7b600a4b7a6873
:102a20005a60fb687b6101235b421a000121002090
:102a300000f068f8b1e7c04600401c46666666666e
:0c2a400066660a4000009040846300209d
:020000040000fa
:102a4c0080b582b002af80239a001c491c481d4bf4
:102a5c00019301230093002300f0eafa1a491b4862
:102a6c001b4b0193012300930023802200f0e0fa1a
:102a7c0080239a0017491848184b0193012300939f
:102a8c00002300f0d5fa80239a0015491548164bff
:102a9c00019301230093002300f0cafa80239a00cb
:102aac0012491348134b019303230093002300f0a6
:102abc00bffa00f0bbfdc046bd4680bd683d0000be
:102acc00ab48000098630020743d0000b94800003a
:102adc009c630020803d0000c7480000a0630020dc
:102aec00903d0000d5480000a4630020a03d0000ec
:082afc00e3480000a86300207c
:020000040000fa
:102b040080b586b000aff860b9607a6001f04afd24
:102b1400284b1a68fb6812339b00d31804331b68d4
:102b2400002b11d1234b1a685021fb68d3185b1872
:102b340001221a707b68002b06d07b6801211800e3
:102b4400fff708fc01f088fd01f03efd01f02afdcd
:102b5400184b1a68fb6812339b00d31804331b68a4
:102b64007b617b69002b16d0bb68002b09d0114b0d
:102b74001a68fb6812339b00d318043300221a60ce
:102b840009e00c4b19687b695a1efb6812339b00e1
:102b9400cb1804331a60074b1a685021fb68d3180a
:102ba4005b1800221a7001f00ffd7b691800bd4606
:082bb40006b080bdac630020f7
:020000040000fa
:102bbc0030b405004d400124e407254042004b0091
:102bcc00120e32d01b0e3cd0ff2a33d0ff2b3fd03d
:102bdc00d21800022043000a09022143090ac4b298
:102bec004c43000ac3b24b43000a4843210a5b180a
:102bfc00190a091801d44900013a080a7f3a2adb5c
:102c0c00fe2a0fd2d2051c43240601d001242143f5
:102c1c00c9b280295041802901d140084000284385
:102c2c0030bc7047ff20c005f9e71b0eff2b0ad004
:102c3c002800f5e7400206d1ff2bf3d1490202d15f
:102c4c00f0e7ff2af4d17f2000010c300005e7e704
:102c5c004902f8d1e6e743020132e9d15b120233b3
:062c6c00e6d9d805e4e7fb
:020000040000fa
:102c7200f0b58bb002aff860b960fb1d1a7000238b
:102c8200fb61fb68002b46d00020bb68190cbb68b7
:102c92001e1cfb681b0cfa68151c8ab2002a05d19f
:102ca2009ab2002a13d0191c341c03e09bb2002be9
:102cb2000cd12c1cb3b2aab25a43a3b289b24b4371
:102cc200120c9b181b149bb2002b00d00120031e78
:102cd20021d1fb68ba68534349331cd8fb68ba68f0
:102ce2005343bb61bb6948331800fef794fa0300f3
:102cf200fb61fb69002b0ed0fb697b617b6948336a
:102d02007b61fb1d1c787a69b968f868fb690093de
:102d1200230001f098f8fb691800bd4609b0f0bd28
:020000040000fa
:102d240080b584b000af7860274bfb6002e0fb689d
:102d34001b68fb60fb681b687a689a42f7d8fb68db
:102d4400bb60fb685b68ba68d3187a689a4208d19a
:102d5400fb685a687b685b68d218fb685a60fb683a
:102d64007b607b68bb607b685b68ba68d218fb6871
:102d74001b689a4218d1fb681a68144b1b689a4264
:102d84000dd07b685a68fb681b685b68d2187b6847
:102d94005a60fb681b681a687b681a6008e00b4b72
:102da4001a687b681a6003e0fb681a687b681a601b
:102db400fa687b689a4202d0fb687a681a60c04657
:102dc400bd4604b080bdc0468c630020ec63002087
:020000040000fa
:102dd40080b586b000af78607b687b6100233b617f
:102de4000023fb607b691b7801225340dbb2002b7c
:102df4003ad17b695b785bb2022b35d17b691800d1
:102e040001f059fc0300fb60fb689b69ff221a4038
:102e140013005b009b18db001800fb689b691b0a0e
:102e2400ff221a40124913001b019b189b00cb1868
:102e34001c331b68c3183b613b691a69fb689b69b7
:102e44009a4206d1fa6839697b69180000f00efad3
:102e540003e07b69180001f05bf83a697b691100b3
:102e64001800fef789fa00e0c046bd4606b080bdf2
:042e7400fc610020dd
:020000040000fa
:102e780090b583b000af234b01221a70c046214b96
:102e88001b8c9bb21a0001231340012bf7d01e4b59
:102e98005c681b687b607b689b099bb21b021ab24b
:102ea800e023db0013401ab27b685b0a1bb20721e0
:102eb8000b401bb213431ab2124b92b29a85114bb4
:102ec80002225a700f4b04225a730e4b05229a7035
:102ed8000c4b0a221a810b4b10225a81094b0422ef
:102ee8001a73084b07229a71064b01225a71c04681
:102ef800044b1b8c9bb2002bfad1c046bd4603b0d5
:0c2f080090bdc0460048004220608000e0
:020000040000fa
:102f140080b586b000af7860396001f043fb1f4b89
:102f24001b683b617b685b683a69d31afb603b684a
:102f34001b68013302d100237b6127e07b681a6898
:102f4400174b1b689a420ad07b685b683a699a42bd
:102f540005d301237b613b6800221a6016e03b68bd
:102f64001b68fa689a420cd23b681a68fb68d21a4a
:102f74003b681a607b68180001f0dcfa00237b616f
:102f840004e03b6800221a6001237b6101f01cfb12
:102f94007b691800bd4606b080bdc046c0630020f2
:042fa400d4630020d2
:020000040000fa
:102fa80030b405004d400124e407254042004b00a1
:102fb800120e26d01b0e34d0ff2a2dd0ff2b35d071
:102fc800d21a000220430902214343084908a00df0
:102fd8005b1a02d2013a5b005b185b008b4200d39c
:102fe8005b1a4041f9d37f3222ddff2a06d2d2058f
:102ff800c91a8b425041284330bc7047ff20c00596
:10300800f9e71b0e03d0ff2b12d1490210d07f2005
:1030180000010c300005efe74002f8d1ff2bedd19d
:10302800f5e7ff2aead14002f1d1e7e74902eed1fc
:043038002800e1e7a4
:020000040000fa
:10303c0090b58db004aff860b9603b60bb1d1a80d1
:10304c00bb1d1b889b001800fef7e0f803007b619a
:10305c007b69002b10d05420fef7d8f80300fb61dd
:10306c00fb69002b03d0fb697a691a6306e07b6964
:10307c00180000f07ff901e00023fb61fb69002bd5
:10308c0016d0bb1d1a883c68b968f86800230393f6
:10309c00fb6902937b6b01933b6b00932300fef760
:1030ac008dfefb691800fef76dfc0123bb6102e08d
:1030bc0001235b42bb61bb691800bd4609b090bde2
:020000040000fa
:1030cc0090b583b000af1f4b01221a70c0461d4b48
:1030dc001b8c9bb21a0001231340012bf7d01a4b07
:1030ec005c681b687b607b689bb21b021ab2e02396
:1030fc00db0013401ab27b68db081bb207210b40c4
:10310c001bb213431ab20f4b92b29a850d4b00228d
:10311c005a700c4b03225a730a4b05229a70094bb6
:10312c00f3229a62074b00225a81064b07229a71ae
:10313c00c046044b1b8c9bb2002bfad1c046bd463b
:0c314c0003b090bd0044004220608000f1
:020000040000fa
:10315800b0b584b000afb9607a603b600e23fb184d
:10316800021c1a801c4b20229b5c5bb2002b01d0f6
:1031780000232de0184b0e203a1812889a80164b1f
:103188003a68da60144b3a6a5a61134bba689a6023
:10319800114b7a681a61104b1c2408257a191219e8
:1031a80012789a700c4b202208218c46bc44624449
:1031b80012781a70084b2122002199547b191b1987
:1031c8001a783b181b881100180000f0f9fa01233f
:0c31d8001800bd4604b0b0bd7c620020b1
:020000040000fa
:1031e400002934d00123002210b488422cd30124b6
:1031f4002407a14204d2814202d209011b01f8e74b
:10320400e400a14204d2814202d249005b00f8e703
:10321400884201d3401a1a434c08a04202d3001b2f
:103224005c0822438c08a04202d3001b9c08224362
:10323400cc08a04202d3001bdc082243002803d0a0
:103244001b0901d00909e3e7101c10bc704701b544
:10325400002001f067fb02bd0029f8d003b5fff799
:0c326400c1ff0ebc4243891a1847c04647
:020000040000fa
:10327000b0b586b000aff860b9607a60fb68db6813
:103280001b699847030019007b68242299547b68c6
:1032900024229b5cdbb2002b03d17b6801225a7590
:1032a00002e07b68ff225a7517257b197a68527de8
:1032b0001a707b681b6a3b61fb68180000f02afeed
:1032c000bb689b68002b13d0fb681b6b5a1cfb6808
:1032d0001a63bb689c68bb68da6839697b191b781c
:1032e0005bb21800a047fb681b6b5a1efb681a6391
:0832f000c046bd4606b0b0bdaa
:020000040000fa
:1032f80080b582b000af00237b600ce07a681300d1
:103308009b009b189b00144a9b18180000f07afe3b
:103318007b6801337b607b68022befd90f4b180069
:1033280000f070fe0e4b180000f06cfe0d4b1800fc
:1033380000f068fe0c4b180000f064fe0b4b180000
:1033480000f060fe0a4b054a1a600a4b044a1a60ec
:10335800c046bd4602b080bd40620020f862002031
:103368000c630020206300203463002048630020a1
:08337800b0630020b4630020e3
:020000040000fa
:1033800080b584b000af78607b68fb607b68002b01
:103390002cd008235b42fa68d318fb60fb68bb6043
:1033a000bb685a68134b1b6813401fd0bb681b686f
:1033b000002b1bd1bb685a680e4b1b68db431a40bd
:1033c000bb685a6001f0ccf9bb685a680a4b1b68ad
:1033d000d218094b1a60bb681800fff7a3fc074b13
:1033e0001b685a1c054b1a60fdf726fbc046bd46fc
:1033f00004b080bd00640020f0630020fc63002066
:020000040000fa
:1034000080b582b000af7860194b06225a60fef793
:10341000fef8fef74ffe00f031f801f0c3f901f0bd
:103420006dfa00f09df8fef7d1fd00f02dfa00f0e6
:1034300059fa00f085fafff749fefff71dfd0d4b25
:1034400019000020fef72efb02000b4b1a6001f062
:10345000d1f901f0d9f901f0e1f901f0e9f901f050
:10346000f1f900f01df9c046bd4602b080bdc0466e
:0c34700000400041104700009463002061
:020000040000fa
:10347c0080b500af184b01221a60c046164bdb69b1
:10348c00002bfbd1144b802252005a60c046124bc9
:10349c00db69002bfbd1104be822da600e4b0f4a94
:1034ac001a60c0460c4bdb69002bfbd10a4b102277
:1034bc005a83c046084bdb69002bfbd1084b2122f9
:1034cc0000219954064b202200219954024b83224f
:1034dc009a75c046bd4680bd001000421600100013
:0434ec007c620020de
:020000040000fa
:1034f0000021f0b5174b184a934208d30027174a0a
:1035000013685168002b05d1002903d1f0bd197053
:103510000133f1e7100095680c305c18002d16d0cf
:103520000b25ed1a5219a3420ad10b0003221340b6
:103530005a1e934189085918890040180200dfe794
:103540005d1cae5c1e702b00ede71f700133a342c3
:10355000fbd1f3e70000002000000020dc000000a9
:020000040000fa
:1035600080b500af164b01229a61c046144b9b698f
:1035700001221340012bf9d1114b9a69104b022102
:103580000a439a610e4b0f4ada610d4a80232821c3
:10359000d1500b4b9a690a4b01218a439a61c0466c
:1035a000074b9b6901221340012bf9d0064b1c22cb
:1035b0000021180001f06af9c046bd4680bdc04632
:0c35c000001c00421746002ec4620020d0
:020000040000fa
:1035cc0080b584b000af786039603b681b68bb6025
:1035dc00bb68013303d17b681b69fb600ce07b6823
:1035ec000833fb6002e0fb685b68fb60fb685b68b0
:1035fc001b68ba689a42f6d2fb685a683b685a60f4
:10360c003b685b683a689a603b68fa689a60fb684a
:10361c003a685a603b687a681a617b681b685a1c66
:0c362c007b681a60c046bd4604b080bd3b
:020000040000fa
:1036380080b584b002af80239a0010491048114b1e
:103648000193002300930023fff7f4fc03007b6041
:103658007b68012b0cd172b60b4b012252421a60c7
:103668000a4b01221a600a4b00221a6000f09cfbe8
:10367800084b1b68c046bd4602b080bd104900001b
:103688007d460000e0630020dc630020c863002062
:08369800c0630020246400203f
:020000040000fa
:1036a00080b500afbff35f8f62b603210320fef742
:1036b000e5fd032000f022fe03210c20fef7defdd5
:1036c0000c2000f01bfe03211120fef7d7fd112076
:1036d00000f014fe03211420fef7d0fd142000f0aa
:1036e0000dfe03211520fef7c9fd152000f006fe92
:1036f00003211a20fef7c2fd1a2000f0fffdc0468c
:04370000bd4680bd85
:020000040000fa
:103704004b1801225205da4217d25b0d0722d2016f
:103714009b1a0fd9ff2b13d2db05ca0fd207134311
:103724000903020d1143490ac200524100d9013173
:10373400c8187047c80fc007704706d1002804d1c5
:10374400c80f0002ff30c00570470123db070a00e1
:10375400c900400f084398431a4010435b0a1843ba
:023764007047ac
:020000040000fa
:1037680080b582b000af0200bb1d1a807b1d0a1c09
:103778001a707b1d1b78002b04d00f4b20220321cd
:10378800995403e00c4b202204219954bb1d1b883b
:1037980059007b1d1b78002b01d0012200e000227c
:1037a800064b0a435a62c046044bdb69002bfbd127
:1037b800c046bd4602b080bd7c62002000100042b9
:020000040000fa
:1037c80080b582b000af0200bb1d1a807b1d0a1ca9
:1037d8001a70104b00229a610e4b0022da610e4bd0
:1037e80083221a760c4b5a680b4b0c490a405a60d4
:1037f800c046094bdb69002bfbd17b1d1a78bb1d2a
:103808001b8811001800fff7abffc046bd4602b089
:1038180080bdc0467c62002000100042fffffbff15
:020000040000fa
:1038280080b500af144b212200219954124b20225d
:1038380000219954114b1a68104b02218a431a60cf
:10384800c0460e4bdb69002bfbd10c4b1a680b4ba7
:1038580002210a431a60c046084bdb69002bfbd1e2
:10386800064b10225a83c046044bdb69002bfbd160
:10387800c046bd4680bdc0467c62002000100042a4
:020000040000fa
:1038880080b500af124b01221a60c046104b1b696d
:1038980001221340012bf9d00d4bc222d2001a602d
:1038a8000b4b03221a730a4b0a4a9a83084b33229a
:1038b8009a72094b00221a60054b01225a72c046bf
:1038c800034b1b69002bfbd1c046bd4680bdc046db
:0c38d800003400423e4900006c630020f8
:020000040000fa
:1038e40080b500af124b01221a60c046104b1b6911
:1038f40001221340012bf9d00d4be222d2001a60b1
:103904000b4b03221a730a4b0a4a9a83084b33223d
:103914009a72094b00221a60054b01225a72c04662
:10392400034b1b69002bfbd1c046bd4680bdc0467e
:0c39340000300042cba4ffff74630020b1
:020000040000fa
:1039400080b500af124b01221a60c046104b9b6835
:1039500001221340012bf9d00d4b00221a600c4bb1
:103960000222da630a4b962252011a64084b094a72
:10397000da62094b00221a60054b01229a62c046a6
:10398000034b9b68002bfbd1c046bd4680bdc046a3
:0c399000002400420ffc0f007c630020ac
:020000040000fa
:10399c0080b582b000af1ae000f000fe104bdb687f
:1039ac00db687b607b680433180000f0f5f80d4b86
:1039bc001b685a1e0b4b1a600b4b1b685a1e0a4b8a
:1039cc001a6000f0fdfd7b68180000f02ffe064b1e
:1039dc001b68002be0d1c046bd4602b080bdc0467e
:0c39ec0034630020bc630020b86300209e
:020000040000fa
:1039f80000230e4a10b513600d4a13600d4a136078
:103a08000d4a13600d4a13600d4a53621361013366
:103a18009360fef7d6fafef7d4fa0a4c0a4b9c429a
:103a280000d310bd08cc9847f8e7c04608640020ca
:103a3800b8610020b4610020ac610020b0610020b2
:0c3a4800bc610020c8000000cc000000a1
:020000040000fa
:103a540080b582b000af114b1b78002b02d0012b34
:103a640015d017e00f210020fdf7c6f802000c4b1b
:103a74001a600c4b01221a70fb1d01221a70fb1de7
:103a84001b78002b05d0054b01221a7001e0c046bb
:103a940000e0c046c046bd4602b080bd1c640020a4
:083aa400e8630020c06000206f
:020000040000fa
:103aac0090b583b000af114b5c681b686003d90cf8
:103abc000143e20c0b009b029b0a7b600c4b7a6867
:103acc009a630b4b00225a75c046094b9b69042222
:103adc001340042bf9d0c046054bdb681022134071
:103aec00102bf9d1c046bd4603b090bd20608000bc
:043afc000010004076
:020000040000fa
:103b000080b584b000aff860b9607a60fb68043bb0
:103b1000fb60fb68802252041a60fb68043bfb6078
:103b2000ba68fb681a60fb68043bfb60084afb68e4
:103b30001a60fb68143bfb607a68fb681a60fb68dc
:103b4000203bfb60fb681800bd4604b080bdc0464a
:043b50002d470000fd
:020000040000fa
:103b540080b584b000af78600a00bb1c1a800023d3
:103b6400fb60bb1c1b880d4a934203d101235b42bb
:103b7400fb6002e0bb1c1b88fb607b681b68fa6867
:103b840011001800fdf789fa0300012b01d101236c
:103b940000e000231800bd4604b080bdffff000014
:020000040000fa
:103ba40080b584b000af78607b681b69fb607b687c
:103bb4005b687a6892689a607b689b687a685268e6
:103bc4005a60fb685b687a689a4203d17b689a689a
:103bd400fb685a607b6800221a61fb681b685a1ee6
:103be400fb681a60fb681b681800bd4604b080bd02
:020000040000fa
:103bf40080b582b000af0f4b5b7adbb2002b14d0e0
:103c04000c4b9b7adbb27b600a4b33229a727b6843
:103c1400002b0ad0084b1b68002b06d0064b1a68f1
:103c2400054b59687b6818009047c046bd4602b0f2
:0c3c340080bdc046003400426c630020dc
:020000040000fa
:103c400080b582b000af0f4b5b7adbb2002b14d093
:103c50000c4b9b7adbb27b600a4b33229a727b68f7
:103c6000002b0ad0084b1b68002b06d0064b1a68a5
:103c7000054b59687b6818009047c046bd4602b0a6
:0c3c800080bdc04600300042746300208c
:020000040000fa
:103c8c0080b582b000af0f4b1b78002b02d0012bfc
:103c9c0010d013e00c4b0021180000f06dfcfb1d44
:103cac0001221a70fb1d1b78002b06d0054b01223c
:103cbc001a7002e0fef766fe00e0c046c046bd4644
:0c3ccc0002b080bd0c6400208d3e0000a2
:020000040000fa
:103cd80010b5064c2378002b07d1054b002b02d0da
:103ce800044800e000bf0123237010bda862002033
:103cf8000000000000000000044b10b5002b03d0aa
:103d08000349044800e000bf10bdc04600000000a1
:083d1800ac6200200000000075
:020000040000fa
:103d200010b50a4b98470a4b984700f0f5fd094b30
:103d3000ff229343084a9360084b9847084b9847e3
:103d4000084b984700f091fdfee7c0466f18000051
:103d50006f1800000000000000ed00e0f9390000dd
:083d60006f1800006f1800004d
:020000040000fa
:103d68004932435f5461736b7300c04643414e5ff1
:103d78005461736b7300c04656545f53454e5345a8
:103d88005f5461736b730000415645524147455f6c
:103d98005461736b7300c04643555252454e545f8d
:083da8005461736b7300c04607
:020000040000fa
:103db00080b500af0e4b1a680d4bff2109040a4372
:103dc0001a600b4b1a680a4bff2109060a431a6056
:103dd00000f0c8fa074b00221a6000f021fafef743
:103de00079fd00f0a3fc00231800bd4680bdc0464d
:083df00020ed00e0206400203a
:020000040000fa
:083df80080b500af72b6fee7d2
:020000040000fa
:103e0000eff309800e4b1a6820381060f0c044466a
:103e10004d4656465f46f0c008b572b6fef75afded
:103e200062b60cbc116808681030f0c8a046a946fc
:103e3000b246bb4680f309882038f0c81847c04610
:083e4000ac630020c046c0463f
:020000040000fa
:103e480080b584b000aff860b9607a601a00fb1cd6
:103e58001a70bb68002b03d1bb69ba691a6002e00b
:103e6800bb697a681a60bb69fa68da63bb69ba68c1
:103e78001a64bb6901211800fef724f8c046bd4644
:043e880004b080bd45
:020000040000fa
:103e8c0080b586b002af786039600023fb600b4bc5
:103e9c0018680c23fb1801930023009300230022c5
:103eac000021fcf785fafb68002b03d0044b802221
:103ebc0052051a60c046bd4604b080bda863002000
:043ecc0004ed00e021
:020000040000fa
:103ed00041008c46012212068a420bd80909382378
:103ee0001b06c918c30fdb07194340076346da42b4
:103ef00004d27047c10fc9070020704703d138238f
:103f00001b06c918704738231b06c9180122d204a2
:043f100011437047a2
:020000040000fa
:103f140080b584b000af78607b682833fb60fb68b1
:103f24001b68002b10d0fb681b68bb60fb681b6818
:103f34009a6afb681a60bb6800221a77bb68002281
:103f44009a62bb6800221a70c046bd4604b080bda8
:020000040000fa
:103f540080b582b000af0b4bdb6a7b60094b0a4a29
:103f6400da62084bdb6a094b1b68002b06d0074b4f
:103f74001a68064b59687b6818009047c046bd46ce
:103f840002b080bd002400420ffc0f007c630020bf
:020000040000fa
:103f940080b582b000af0b4b9b79dbb27b60094be1
:103fa40001229a71084b1b68002b06d0064b1a6835
:103fb400054b59687b6818009047c046bd4602b05f
:0c3fc40080bdc046004800425c63002045
:020000040000fa
:103fd00080b500af0b4b5b889bb21a0001231340e6
:103fe000012b0cd1074b01225a80074b1b68002b79
:103ff00005d0054b1a68044b5b6818009047c04613
:0c400000bd4680bd002800406463002025
:020000040000fa
:10400c0080b582b000af78607b6808331a007b689b
:10401c005a607b68012252429a607b6808331a000e
:10402c007b68da607b6808331a007b681a617b68ee
:0c403c0000221a60c046bd4602b080bde4
:020000040000fa
:1040480080b582b000af0c4b1b78002b02d0012b3f
:104058000bd00de0fb1d01221a70fb1d1b78002bf5
:1040680005d0054b01221a7001e0c04600e0c046a9
:0c407800c046bd4602b080bd18640020a8
:020000040000fa
:1040840080b582b000af0c4b1b78002b02d0012b03
:104094000bd00de0fb1d01221a70fb1d1b78002bb9
:1040a40005d0054b01221a7001e0c04600e0c0466d
:0c40b400c046bd4602b080bd1464002070
:020000040000fa
:1040c00080b582b000af0c4b1b78002b02d0012bc7
:1040d0000bd00de0fb1d01221a70fb1d1b78002b7d
:1040e00005d0054b01221a7001e0c04600e0c04631
:0c40f000c046bd4602b080bd1064002038
:020000040000fa
:1040fc0090b583b000af040008001100bb1d221c5a
:10410c001a807b1d021c1a703b1d0a1c1a70bb1de9
:10411c001b881a047b1d1b781b021a433b1d1b7842
:0a412c0013431800bd4603b090bd18
:020000040000fa
:10413600b0b588b004afb9607a603b600e257b19d4
:10414600021c1a803c687a68b9687b1918880023b3
:104156000293002301933b6a00932300fef7f9ffc5
:0a41660003001800bd4604b0b0bd10
:020000040000fa
:1041700080b582b000af0200bb1d1a80bb1d1a883b
:10418000bb1d01321a80bb1d1b88064a934202d117
:10419000bb1d01221a80bb1d1b881800bd4602b042
:0841a00080bdc046ffff0000d6
:020000040000fa
:1041a80080b500af0b4b1b7edbb20a4a02210b43e2
:1041b800dbb21376c046074b1b8c9bb21a008023d8
:1041c800db001a408023db009a42f4d0c046bd468b
:0841d80080bdc0460048004212
:020000040000fa
:1041e00080b588b004afb9607a600e217b18021cdc
:1041f0001a80ba687b181888002302930123019360
:104200007b680093130000220021fef7a5ff030046
:084210001800bd4604b080bd9a
:020000040000fa
:0842180080f310887047c046d6
:020000040000fa
:104220000b4a13681868203080f30988022080f355
:104230001488bff36f8f3fbcae4608bc04bc62b6a7
:104240001847c046c046c046c046c046c046c046e5
:08425000ac630020c046c0462b
:020000040000fa
:1042580080b586b000af0200fb1d1a7001237b6198
:1042680000233b61fb1d1a7839697b691800fef74a
:10427800fcfc0300fb60fb68180000f089f8fb6891
:084288001800bd4606b080bd20
:020000040000fa
:1042900090b589b004afb9607a600e243b19021c56
:1042a0001a807a68b9683b191888002302930023a2
:1042b0000193002300930023fef74eff0300180034
:0642c000bd4605b090bdf3
:020000040000fa
:1042c80080b582b000affb1d00221a70084bdb7965
:1042d800dbb21a0080231340802b02d0fb1d012281
:1042e8001a70fb1d1b781800bd4602b080bdc04681
:0442f8000048004238
:020000040000fa
:1042fc0080b582b000af0200fb1d1a70fb1d1b784d
:10430c007f2b09d8fb1d1b781a001f231a40044b66
:10431c00012191400a001a60c046bd4602b080bd22
:04432c0000e100e0cc
:020000040000fa
:1043300080b582b000af00f0dbfa03007b60fcf7d1
:1043400077fa031e03d0064b802252051a607b6861
:104350001800fff761ffc046bd4602b080bdc046f1
:0443600004ed00e088
:020000040000fa
:1043640080b500af074b00221a60074b00221a6089
:10437400064b074a1a60034b07221a60c046bd4623
:1043840080bdc04610e000e018e000e014e000e06a
:044394007fbb0000eb
:020000040000fa
:1043980080b582b000af78607b68002b0ed07b6858
:1043a80000229a607b6800221a607b680022da602b
:1043b8007868002300220021fdf7c0f9c046bd46f9
:0443c80002b080bd02
:020000040000fa
:1043cc0080b582b000af78603960094b1b68183338
:1043dc001a007b6811001800fff7f2f83b68012106
:1043ec001800fdf7b3ffc046bd4602b080bdc04605
:0443fc00ac6300208e
:020000040000fa
:1044000080b500af094b1b681b68002b04d1084b1b
:10441000012252421a6005e0044b1b68db681a68ef
:10442000034b1a60c046bd4680bdc046b063002045
:04443000dc63002029
:020000040000fa
:1044340080b584b000af786000f0b4f87b689a6b04
:104444007b68db6b9a4202d10123fb6001e000230d
:10445400fb6000f0b9f8fb681800bd4604b080bded
:020000040000fa
:1044640080b584b000af78607b685b6a002b06d0af
:104474007b681b6b1b680322d31afb6001e00023db
:0c448400fb60fb681800bd4604b080bd62
:020000040000fa
:1044900080b584b000af786000f086f87b689b6bd5
:1044a000002b02d10123fb6001e00023fb6000f040
:0c44b0008df8fb681800bd4604b080bd0c
:020000040000fa
:1044bc0080b582b000af78607b681b68002b01d0a0
:1044cc00002306e00120fff7c1fe02007b681a60a2
:0a44dc0001231800bd4602b080bda8
:020000040000fa
:1044e60080b582b000af78607b6818680023002230
:1044f6000021fdf724f90300012b01d1012300e07f
:0a45060000231800bd4602b080bd7e
:020000040000fa
:1045100080b500af064b074a1a62c046044b5b6881
:1045200004221340042bf9d0c046bd4680bdc046ce
:08453000001c0040060101001f
:020000040000fa
:1045380080b582b000af7860054b1a687b681a6056
:10454800044b1a687b685a60c046bd4602b080bdfd
:08455800d4630020c0630020c1
:020000040000fa
:1045600080b582b000af78603960054b7a685a62d6
:10457000034b3a689a62c046bd4602b080bdc04651
:044580007c62002039
:020000040000fa
:1045840080b582b000af78603960054b7a681a60f4
:10459400034b3a685a60c046bd4602b080bdc0466f
:0445a4007c63002014
:020000040000fa
:1045a80080b500af72b6064b1b685a1c044b1a60e4
:1045b800bff34f8fbff36f8fc046bd4680bdc04667
:0445c800206400204b
:020000040000fa
:1045cc0080b500af064b1b685a1e054b1a60044b96
:1045dc001b68002b00d162b6c046bd4680bdc046ec
:0445ec002064002027
:020000040000fa
:1045f00080b500af064b1b68002b04d0044b1b6832
:104600009a6c01329a64024b1b681800bd4680bd4b
:04461000ac63002077
:020000040000fa
:1046140041000dd2090e7f390ad449421f3105d415
:1046240000020122d2071043c8407047c8177047e0
:0446340000207047ab
:020000040000fa
:1046380080b582b000af78607b681b6b1800fef70e
:104648009bfe7b681800fef797fec046bd4602b089
:0246580080bd23
:020000040000fa
:10465c0080b500af054b802252051a60bff34f8f17
:10466c00bff36f8fc046bd4680bdc04604ed00e071
:020000040000fa
:10467c0080b582b000af7860fff78af9034b1b68f6
:10468c00012bf9d9fff7e4fff6e7c04640620020a2
:020000040000fa
:10469c009d2201000ad002d4013a4900fcd5d20572
:0e46ac00080a0906494100d301295041704710
:020000040000fa
:1046ba0080b584b000af78600023fb607b689b6a9a
:0c46ca00fb60fb681800bd4604b080bd1a
:020000040000fa
:1046d80080b500af044b00229a61034b00221a6197
:0c46e800c046bd4680bdc0460014004026
:020000040000fa
:1046f400e1410000914200003741000029380000e8
:0c470400494700000d2500006145000041
:020000040000fa
:10471000f4460000e06200200100000002000000fa
:0c47200054610020b84700006400000055
:020000040000fa
:10472c0080b582b000af00237b6072b6c0467b6858
:0c473c00002bfcd0c046bd4602b080bd82
:020000040000fa
:1047480080b500af034b21229b5cdbb21800bd464d
:0847580080bdc0467c62002018
:020000040000fa
:1047600080b500af034b1b685a1c024b1a60c04651
:08477000bd4680bde46300209a
:020000040000fa
:1047780080b582b000af78607b6800221a61c046bd
:06478800bd4602b080bd39
:020000040000fa
:1047900080b500af024b9b8c9bb21800bd4680bd1c
:0447a000004800428b
:020000040000fa
:1047a40080b500af024b84225a60c046bd4680bd2e
:0447b4000040004180
:020000040000fa
:1047b800010000000c0000000000000000000000e4
:0447c80000000000ed
:020000040000fa
:1047cc0080b500af024b01221a60c046bd4680bdc9
:0447dc00d063002086
:020000040000fa
:1047e000a2040000280400004a0400006a0400003b
:0447f0007c04000045
:020000040000fa
:1047f40080b500af024b00221a70c046bd4680bd92
:044804001c64002010
:020000040000fa
:1048080080b500af024b00221a70c046bd4680bd7d
:044818001864002000
:020000040000fa
:10481c0080b500af024b00221a70c046bd4680bd69
:04482c0014640020f0
:020000040000fa
:1048300080b500af024b00221a70c046bd4680bd55
:0448400010640020e0
:020000040000fa
:1048440080b500af024b00221a70c046bd4680bd41
:044854000c640020d0
:020000040000fa
:10485800002310b59a4200d110bdcc5cc45401337a
:02486800f8e76f
:020000040000fa
:10486a0080b500af0020fef7c6fdfef7eaf8fce7c8
:020000040000fa
:10487c000122d2075140014b18470000d914000007
:020000040000fa
:10488c0003001218934200d1704719700133f9e7f5
:020000040000fa
:0e489c0080b582b000af7860396072b6fee77a
:020000040000fa
:0e48aa0080b582b000af7860fff7cff8fce772
:020000040000fa
:0e48b80080b582b000af7860fff7c2fbfce76e
:020000040000fa
:0e48c60080b582b000af7860fff7d9fbfce749
:020000040000fa
:0e48d40080b582b000af7860fff7f0fbfce724
:020000040000fa
:0e48e20080b582b000af7860fff7cff9fce739
:020000040000fa
:0c48f000eff3108072b67047c04618004d
:020000040000fa
:0a48fc0080b500afc046bd4680bd88
:020000040000fa
:0a49060080b500afc046bd4680bd7d
:020000040000fa
:0849100049444c450000c0467b
:020000040000fa
:0849180010b5fef7e9fd10bd2a
:020000040000fa
:0649200080b500affee7c8
:020000040000fa
:044928007047c046ce
:020000040000fa
:0200000400807a
:04400000770800003d
:020000040000fa
:0200000400807a
:044004000000ffffba
:00000001FF
