:040000008031212802
:1000060008007E1480318B190B1C0D2880310320CB
:1000160080311F280B1F1F282100921920009219DA
:100026001A282100911D1F282000911D1F285B08FA
:100036008A005A080A0080317E1009008031232880
:10004600F701F801F9014A308400003085002330B9
:100056008F313C278031A0308400003085000B3082
:100066008F313C277E1020008731A52F20002808DD
:100076008039B2002835B800A71B38143808031990
:100086005128380A031D4F280030A8000030A70069
:100096000030A6000030A500A71759280030A80098
:1000A6000030A7000030A6000030A5002C088039DB
:1000B600AD002D08B2062C35B300AB1B3314330844
:1000C60003197228330A031D70280030AC00003073
:1000D600AB000030AA000030A900AB177A28003028
:1000E600AC000030AB000030AA000030A900330895
:1000F600031D3808031D88280030A8000030A7001B
:100106000030A6000030A50008002508F3002B08E3
:100116008F31E027803174082000BE007308BD00CF
:100126003D08AD00AE01AF01B0013008B7002F08A1
:10013600B6002E08B5002D08B4003E08AD00AE018D
:10014600AF01B0013008BC002F08BB002E08BA0072
:100156002D08B9002608F3002A088F31E0278031E0
:1001660074082000BE007308BD003D08AD00AE0156
:10017600AF01B0012D08B4072E08B53D2F08B63DD6
:100186003008B73D3E08AD00AE01AF01B0012D0805
:10019600B9072E08BA3D2F08BB3D3008BC3D2708DD
:1001A600F30029088F31E027803174082000BE0053
:1001B6007308BD003D08AD00AE01AF01B0012D08CA
:1001C600B4072E08B53D2F08B63D3008B73D3E08AA
:1001D600AD00AE01AF01B0012D08B9072E08BA3D3A
:1001E6002F08BB3D3008BC3D0830B435B50DB60D03
:1001F600B70D890BF8282608F30029088F31E02768
:10020600803174082000BE007308BD003D08B407A5
:100216003E08B53D0030B63DB73D2508F3002A0837
:100226008F31E027803174082000BE007308BD00BE
:100236003D08B4073E08B53D0030B63DB73D083031
:10024600B435B50DB60DB70D890B23292508F30076
:1002560029088F31E027803174082000BE0073081A
:10026600BD003D08B4073E08B53D0030B63DB73D7C
:100276002608F3002B088F31E02780317408200010
:10028600BE007308BD003D08B9073E08BA3D003000
:10029600BB3DBC3D2708F3002A088F31E02780319B
:1002A60074082000BE007308BD003D08B9073E086B
:1002B600BA3D0030BB3DBC3D2708F3002B088F310B
:1002C600E027803174082000BE007308BD003D0899
:1002D600AD003E08AE00AF01B0010830AD35AE0D41
:1002E600AF0DB00D890B71292D08B9072E08BA3D3F
:1002F6002F08BB3D3008BC3D3408AD003508AE00C4
:100306003608AF003708B0001830B036AF0CAE0C68
:10031600AD0C890B88292D08B9072E08BA3D2F0880
:10032600BB3D3008BC3D0830B435B50DB60DB70D34
:10033600890B972938083307AD00AE01AE0D2D089D
:10034600823EBD00FF302E3DBE00BB1BBF290130E3
:10035600B935BA0DBB0DBC0D890BAB29B71B3914CA
:100366000130B435B50DB60DB70D890BB429FF3084
:10037600BD07FF30BE3DA829B301B71FD829FF30FE
:100386003405AD00FF303505AE00FF303605AF0051
:100396007F303705B00030082F042E042D040319D2
:1003A6003918D629D829B301B30A33080319012A03
:1003B6000130B9070030BA3D0030BB3D0030BC3DCE
:1003C6003C1C012A3908AD003A08AE003B08AF00D4
:1003D6003C08B0000130B100B037AF0CAE0CAD0C2C
:1003E600B10BEF293008BC002F08BB002E08BA005D
:1003F6002D08B9000130BD070030BE3D3E08803AE9
:10040600AD0080302D02031D0A2AFF303D02031C79
:10041600162A7F302000BC008030BB000030BA00B6
:100426000030B9003C2A20003E08803AAD008030FA
:100436002D02031D202A01303D0203182D2A00300B
:100446002000BC000030BB000030BA000030B9000C
:10045600B2013C2A20003D08B800FF30B905FF3044
:10046600BA057F30BB050030BC053818BB173836D7
:10047600BC003208AD002D08BC043C08A8003B08AF
:10048600A7003A08A6003908A50008000230200097
:10049600DC0002308F31AC27823174082100A200C3
:1004A6007308A10003302000DC0003308F31AC2735
:1004B600823174082100A4007308A30007302000CD
:1004C600DC0007308F31AC27823174082100A6008A
:1004D6007308A50008302000DC0008308F31AC27F7
:1004E600823174082100A8007308A7000930200093
:1004F600DC0009308F31AC27823174082100AA0054
:100506007308A900FF30840087308500003F200073
:10051600C400013FC5002100220820004502031D3A
:10052600982A2100210820004402031C9C2A22004C
:100536008E100130840088308500003F2000C40002
:10054600013FC5002100220820004502031DAF2AF5
:100556002100210820004402031CB42A22000E11A7
:10056600B62A22000E15FF30840087308500003F32
:100576002000C400013FC5002100240820004502D8
:10058600031DC92A2100230820004402031CCD2A8A
:1005960022008E100130840088308500003F200044
:1005A600C400013FC5002100240820004502031DA8
:1005B600E02A2100230820004402031CE52A220029
:1005C6000E11E72A22000E15FF30840087308500C1
:1005D600003F2000C400013FC5002100260820007E
:1005E6004502031DFA2A2100250820004402031CA7
:1005F600FE2A22008E100130840088308500003FDC
:100606002000C400013FC500210026082000450245
:10061600031D112B2100250820004402031C162B64
:1006260022000E11182B22000E15FF308400873091
:100636008500003F2000C400013FC50021002808B6
:1006460020004502031D2B2B210027082000440211
:10065600031C2F2B22008E10013084008830850069
:10066600003F2000C400013FC500210028082000EB
:100676004502031D422B2100270820004402031CCB
:10068600472B22000E11492B22000E15FF30840045
:1006960087308500003F2000C400013FC5002100CF
:1006A6002A0820004502031D5C2B21002908200092
:1006B6004402031C602B22008E1001308400883017
:1006C6008500003F2000C400013FC50021002A0824
:1006D60020004502031D732B210029082000440237
:1006E600031C782B22000E117A2B22000E151F30C8
:1006F6002000DC001F308F31AC27823174082100C6
:10070600B0007308AF002F08F3003008F400F501BD
:10071600F601003085318F25823176082000AD0044
:100726007508AC007408AB007308AA004030B1002D
:100736000330B0001230AF006F30AE0084311F249A
:10074600823120002D082100AE0020002C08210057
:10075600AD0020002B082100AC0020002A08210053
:10076600AB0044302000A8008030A7000030A6006F
:100776000030A50021002E082000AC0021002D0825
:100786002000AB0021002C082000AA0021002B0825
:100796002000A90080313920823120002808CD00B0
:1007A6002708CC002608CB002508CA004D08A30060
:1007B6004C08A2004B08A1004A08A000FB308400A8
:1007C60087308500003FC400013FC500023FC600D8
:1007D600033FC7004708A7004608A6004508A5002E
:1007E6004408A40086312326823103181C2CF730D6
:1007F600840087308500003F2000C400013FC5000B
:10080600023FC600033FC7004708A3004608A200F0
:100816004508A1004408A0004D08A7004C08A60002
:100826004B08A5004A08A400863123268231031C02
:10083600080022008E100800200031088039BB0015
:100846003135C200B01B421442080319382C420A43
:10085600031D352C0030B1000030B0000030AF0071
:100866000030AE00B017B101402C0030B1000030AE
:10087600B0000030AF000030AE002D088039B20065
:100886003208BB062D35C300AC1B431443080319BD
:100896005A2C430A031D572C0030AD000030AC0023
:1008A6000030AB000030AA00AC17AD01622C00305E
:1008B600AD000030AC000030AB000030AA002D08BF
:1008C6002C042B042A04031D812C0030B1000030B7
:1008D600B0000030AF000030AE008030B0047F3092
:1008E600B1043B08B2003208B1043108AD0030084B
:1008F600AC002F08AB002E08AA0008004208031D12
:100906008D2C0030AD000030AC000030AB00003064
:10091600AA0008004208B200B3013308B500430834
:100926003202B400031CB50334087F3EBC0000301D
:10093600353DBD003108BA003008B9002F08B800AF
:100946002E08B7000030B1000030B0000030AF0014
:100956000030AE000030C1000030C0000030BF00E3
:100966000030BE00C3011A3043020318F22C4308BC
:100976000319D42C0130B735B80DB90DBA0D890B52
:10098600BE2C0130AE35AF0DB00DB10D890BC52CA7
:10099600C11B2E140130BE35BF0DC00DC10D890B14
:1009A600CE2C2D083A02031DE22C2C083902031D19
:1009B600E22C2B083802031DE22C2A083702031CFE
:1009C600ED2C41172A08B7022B08B83B2C08B93B77
:1009D6002D08BA3B0130B2003208C307B62C3A08DC
:1009E600390438043704031D3E14B01B0F2D0130A3
:1009F600AE35AF0DB00DB10D890BFB2CC11B2E14FE
:100A06000130BE35BF0DC00DC10D890B042DFF3061
:100A1600BC07FF30BD3DF82CC301C11F282DFF3098
:100A26003E05B200FF303F05B300FF304005B4007D
:100A36007F304105B5003508340433043204031908
:100A46002E18262D282DC301C30A43080319512D3C
:100A56000130AE070030AF3D0030B03D0030B13D53
:100A6600311C512D2E08B2002F08B3003008B400F7
:100A76003108B5000130B600B537B40CB30CB20C72
:100A8600B60B3F2D3508B1003408B0003308AF006F
:100A96003208AE000130BC070030BD3D3D08803A4B
:100AA600B20080303202031D5A2DFF303C02031C77
:100AB600692DFF302000BC000030BD000030B100C1
:100AC6000030B0000030AF000030AE0020003D081E
:100AD600803AB20080303202031D732D01303C0291
:100AE6000318812D2000BC01BD010030B10000308B
:100AF600B0000030AF000030AE00BB0120003C0863
:100B0600C200421C882DB0178C2D7F30B2003208EF
:100B1600B0054236B100742C2000A4002408031D41
:100B2600F61FA52D7309A6007409A7007509A8006C
:100B36007609A900A60A0319A70A0319A80A031920
:100B4600A90AAD2D7608A9007508A8007408A700A3
:100B56007308A6007608750474047304031DBC2D7F
:100B66000030F6000030F5000030F4000030F300ED
:100B760008009630A500FE3029050319E12D013045
:100B8600A0002008A5070130A936A80CA70CA60CC2
:100B9600890BC72DBE2D0130A0002008A507013006
:100BA600A6070030A73D0030A83D0030A93D013022
:100BB600A936A80CA70CA60C890BDB2DFF3029053E
:100BC6000319F32DCE2D02302502031CF52D01301D
:100BD600A5020130A635A70DA80DA90D890BED2D8F
:100BE600A81FE62D2518FF2DFF30A605FF30A70507
:100BF6007F30A805FF30A9050310A50C2508A00025
:100C0600A101A201A3011830A035A10DA20DA30DCB
:100C1600890B072E2008A6042108A7042208A80489
:100C26002308A9042408031DF61F1A2EA91729084C
:100C3600F6002808F5002708F4002608F300080047
:100C4600003020002005F30000302105F40080303C
:100C56002205F5007F302305F60076087504740436
:100C66007304031D3E2E0030A3000030A2000030A6
:100C7600A1000030A00000302405F3000030250557
:100C8600F40080302605F5007F302705F60076084B
:100C9600750474047304031D582E0030A700003039
:100CA600A6000030A5000030A400A31F722E00305D
:100CB600F3000030F4000030F5008030F600200824
:100CC600F3022108F43B2208F53B2308F63B76089D
:100CD600A3007508A2007408A1007308A000A71F4E
:100CE6008C2E0030F3000030F4000030F500803028
:100CF600F6002408F3022508F43B2608F53B2708EE
:100D0600F63B7608A7007508A6007408A5007308C8
:100D1600A4008030A3068030A70627082302031DFF
:100D2600080026082202031D080025082102031DCB
:100D3600080024082002080020005F08240012068C
:100D46000319E72E162F21002208F4002108F300CC
:100D56008F310C278631162F21002408F400230832
:100D6600F3008F310C278631162F21002608F40058
:100D76002508F3008F310C278631162F210028080D
:100D8600F4002708F3008F310C278631162F210037
:100D96002A08F4002908F3008F310C278631162F14
:100DA6008F3159278631162F210020082000E100B7
:100DB600162F21001714162F21001710162FDD01EC
:100DC600DD0A162FDD01162F20006008F500F6015A
:100DD6007608003A0319F02E162F7508013A031902
:100DE600A62E033A0319AF2E013A0319B82E073A75
:100DF6000319C12E013A0319CA2E033A0319D32E39
:100E0600013A0319D72E0F3A0319162F013A03197F
:100E1600DC2E033A0319DF2E013A0319E22E073AB4
:100E26000319E52E162F2000E00108008E31D92681
:100E360087318F3142278731003A03192C2F8E31A3
:100E4600F3268731003A03192A2F0130352F023055
:100E5600352F8E31F3268731003A0319342F0330AC
:100E6600352F04302000DE00542F8F316D27873157
:100E76008F3149278731003A03196A2F8F3183272B
:100E860087316A2F8F316D2787316A2F3B2F8E313D
:100E9600E2268731003A03196A2F8F317827873186
:100EA6006A2F5E08F100F2017208003A03195C2FFE
:100EB6006A2F7108013A0319382F033A0319452F8F
:100EC600013A0319492F073A03194A2F6A2F8E311F
:100ED600DC2608008F318E27873108308F310227B4
:100EE600873100308F31072787311930F3000730FB
:100EF600F4008F311E2787310030F3000030F400F4
:100F06008F3118278731D530F3000730F4008F3141
:100F160030278731F830F3000E30F4008F31242764
:100F26008731EE30F3000E30F4008F31122787310F
:100F36000030F3000030F4008F312A2787318E31DC
:100F4600DF2608008F319A2787318B170B178731D9
:100F56006D27873186319F26873120005D0803196A
:100F6600D12F22008D1713302000C9004430C8004D
:100F76004430890BBC2FC80BBC2FC90BBC2F0000FB
:100F860022008D1302302000C900D430C8008530FD
:100F9600890BCB2FC80BCB2FC90BCB2F8231492204
:100FA6008731AD2F200061088E31FD2620006208B2
:100FB600E1006308E2006408E3006508E4006608EF
:100FC600E5006708E6006808E7006908E8006A08BF
:100FD600E9006B08EA006C08EB007708EC0078087B
:100FE600F7007908F8000800CD34CC344C3440348E
:100FF6006634663486344034E2340034E6340034F1
:101DAC0024001108080020009111080024001516C9
:101DBC0008002100911508002400140801390800BE
:101DCC0082302200970008001A302100970008008A
:101DDC008E31D6262000DF0008002400140C890C5C
:101DEC00013908008E31D6262000E0000800F000F2
:101DFC007008240091000800F30073352400920051
:101E0C000800F300733524009300080074082000C8
:101E1C00E1007308E200080074082000D500730884
:101E2C00D400080074082000D3007308D200080006
:101E3C0074082000DB007308DA0008007408200026
:101E4C00D9007308D800080074082000D10073086A
:101E5C00D000080074082000D7007308D6000800D2
:101E6C00783021009900220096010800640080015E
:101E7C000131890B3D2F003403102400941E0314F0
:101E8C000030093D080003102400141C031400301A
:101E9C00093D0800F03021009E009F019B019C0130
:101EAC0001309D00080020004D08E1004C08E200C4
:101EBC004B08E3004A08E4000800240094010630B3
:101ECC00F300730895040130960095120800200069
:101EDC00540855040319080055088A0054080A00D0
:101EEC008F310800200058085904031908005908BC
:101EFC008A0058080A008F31080020005608570441
:101F0C000319080057088A0056080A008F31080088
:101F1C002400951A080094010630F3007308950408
:101F2C0001309600951608008F3163278F318F3161
:101F3C00C5278F318F3136278F318E31EA268F317D
:101F4C008E31E6268F318F3150270800F600760847
:101F5C00F500F50DF50D21001D0875068339750684
:101F6C009D001D140630890BB92F003221009D14E1
:101F7C009D18BE2F1C08F4001B08F300080022005B
:101F8C008C018D018E013F3021008C0070308D0052
:101F9C00F8308E00CE3023008E0020308D001730AC
:101FAC008C0024008D018C012100951722009D01CD
:101FBC008B1508002000A400A001A1017308F500F6
:101FCC00F6017508A2007608A300241CF12F220844
:101FDC00A0072308A13D0130A235A30D890BF22FD8
:101FEC000310A40C2408031DEB2F2108F400200877
:041FFC00F3000800E6
:020000040001F9
:08000000FF3FFF3FFF3FFF3F00
:04000E00AC3FFF1FE5
:00000001FF
