:0400000080312D28F6
:100008007E1480310B1F2B282100921D14282000FC
:10001800921D142873088A0072080A0080312B2860
:1000280021009119200091190E282100111F232861
:100038002000111F232881315B2180312B282100CA
:10004800111C2B282000111C2B2881310C217E101B
:10005800090080312F28F001F101F201F301F401C8
:10006800F501F601F7012000A001A101A201A301F9
:10007800A401A501A601A7017E10200080319728C0
:100088008131F2218031813196218031003A031982
:1000980057288131CC218031003A03195528013085
:1000A8006028023060288131CC218031003A031960
:1000B8005F28033060280430F4007E2881317221E3
:1000C800803181318F218031003A031994288131A0
:1000D80067218031942881317221803194286528E4
:1000E8008131E1218031003A0319942881317D2141
:1000F800803194287408F900FA017A08003A031943
:10010800862894287908013A03196228033A0319C2
:100118006F28013A03197328073A03197428942899
:100128008131EF2108008031BB2080318B170B17FC
:1001380022008E018131EC2180318131E921803129
:10014800813187218031013022008E008131EC21FC
:10015800803163008131E92180318131872180310B
:1001680022008E018131EC2180316300A128813188
:100178004F2180318031D92080318131BB218031BC
:100188008131D12180318131D52180318131B52131
:1001980080318131AF21803181312021803181311D
:1001A800A92180318031F320080022008C018D01C3
:1001B8008E013F3021008C00F0308D00D4308E004D
:1001C800C63023008E0020308D0014308C002400AF
:1001D8008D018C012100951722009D010800033034
:1001E80020009900C330970074309600111017084A
:1001F800AB001608AA0021001114F8302000AE0048
:100208000130AF008131A321C530200098000800DB
:10021800200011102B08F9002A08F800813140212C
:1002280081312000280829040319080029088A00B8
:1002380028080A0081310800F03021009E009F0143
:100248009B019C0111309D001117FA302000AE006F
:100258000130AF008131C12108002000181D3B2961
:1002680018102F0897002E089600181408002F0859
:1002780097002E08960008002000181D4A2918101B
:1002880079089700780896001814080079089700EC
:1002980078089600080024009401E6302000AE009B
:1002A8002E0824009504C1309600951208002000FD
:1002B80011132C082D04031908002D088A002C0896
:1002C8000A008131080020002608270403190800C5
:1002D80027088A0026080A0081310800200024081F
:1002E80025040319080025088A0024080A0081311A
:1002F8000800700871040319080071088A00700862
:100308000A008131080020002B08AF002A08AE003F
:1003180081313121080003102400141C031400301B
:10032800093D080003102400941E03140030093D01
:10033800080003340034043400343C340034200012
:100348002F08A9002E08A8000800D0302C009C0017
:100358009B019A010800D0302C0096009501940169
:100368000800D0302C0093009201910108007830E9
:100378002100990022009601080020002F08AD00F6
:100388002E08AC000800F800780824009100080046
:100398002400140C890C013908001330210097003F
:1003A8000800B23022009700080077088131C72181
:1003B80008008131F521F6000800240014080139ED
:1003C80008008131F521F500080020001810080008
:1003D80020001814080024001516080020009111A8
:0E03E8000800240011080800090008000800A1
:020000040001F9
:08000000FF3FFF3FFF3FFF3F00
:04000E00E43FFF1FAD
:00000001FF
