:0400000080311A2809
:100008007E1480310B1F18282100921920009219A4
:1000180013282100911D18282000911D1828750803
:100028008A0074080A0080317E10090080311C287B
:10003800F001F101F201F301F401F501F601F70114
:10004800F801F9012000A001A101A201A301A40166
:10005800A501A601A7017E1020008031F728813173
:10006800242180318031EA208031003A0319462862
:10007800813108218031003A0319442801304F2882
:1000880002304F28813108218031003A03194E2867
:1000980003304F280430F6006D288031BB208031B2
:1000A8008031E3208031003A031983288031C6204B
:1000B800803183288031BB208031832854288131C6
:1000C80019218031003A031983288031D0208031EA
:1000D80083287608FB00FC017C08003A0319752880
:1000E80083287B08013A03195128033A03195E282B
:1000F800013A03196228073A0319632883288131D2
:100108002121080022008C018D018E013F30210041
:100118008C0070308D00F8308E00C83023008E00BF
:1001280020308D0017308C0024008D018C012100B7
:10013800951722009D0108008031AF208031803161
:10014800862080318031FD20803181310D21803140
:100158008031DA20080024009401E6302000A8004D
:10016800280824009504C130960095120800200044
:10017800260827040319080027088A0026080A0009
:1001880080310800700871040319080071088A009A
:1001980070080A0080310800720873040319080007
:1001A80073088A0072080A00803108007030210044
:1001B8009E009F019B019C0101309D0008000310D7
:1001C8002400141C03140030093D08000310240007
:1001D800941E03140030093D08000334003404342D
:1001E80000343C3400348031A02080318B170B1749
:1001F800FC28383021009900220096010800FA00F6
:100208007A082400910008002400140C890C013994
:100218000800133021009700080079088131032174
:10022800080081312721F80008002400140801394A
:10023800080081312721F70008002400151608005E
:0C0248002000911108002400110808009B
:020000040001F9
:08000000FF3FFF3FFF3FFF3F00
:04000E00EC3FFF1FA5
:00000001FF
