:0400000080313528EE
:1000060008007E1480310B1F09280A283328210096
:10001600921D0E280F281A282000921D1328142836
:100026001A2864088A0063080A00803133282100F0
:10003600911D1E281F2825282000911D23282428CD
:10004600252814282100111C29282A2833282000B5
:10005600111C2E282F2833288D31E925803133288D
:100066007E10090080313728F701F801F901483080
:1000760084000030850020308D31762580317E1059
:100086002000803146288E31182680318B170B17B9
:100096008E31BA268031210017102100171C5428F2
:1000A6005528562863008D310B2580312000E50048
:1000B600AA284A08F6004908F5008E314B268031F9
:1000C600E1284C08F6004B08F5008E314B268031AE
:1000D600E1284E08F6004D08F5008E314B2680319A
:1000E600E1285008F6004F08F5008E314B26803186
:1000F600E1285208F6005108F5008E314B26803172
:10010600E1288E31F3268031E12848088D317025AB
:100116008031E12821001714E12821001710E12879
:10012600181422008D1721001710E128181022003C
:100136008D1321001714E12801308F312E278031CD
:10014600E1288E3189268031E1280100E128650801
:10015600C400C5014508003A0319B228E12844083D
:10016600003A0319E128013A03195C28033A0319F6
:100176006428013A03196C28073A03197428013ACE
:1001860003197C28033A03198428013A031988289D
:100196000F3A03198D28013A03199028033A0319D7
:1001A6009328013A03199928073A03199F28013A17
:1001B6000319A428033A0319A828E1282400910169
:1001C6002000181CE728E828052922008D1713307F
:1001D6002000C5004430C4004430890BF028C40B0D
:1001E600F028C50BF028000022008D1303302000F4
:1001F600C5000830C4007730890BFF28C40BFF28E0
:10020600C50BFF2802302000E60002308731E527C3
:10021600803174082000CA007308C90008308400C1
:1002260088308500003FC400013FC5004A084502EA
:10023600031D1F2949084402031C222923292529B5
:1002460022008E100A30840088308500003F20008E
:10025600C400013FC5004A084502031D3429490868
:100266004402031C372938293B2922000E113D2957
:1002760022000E1503302000E60003308731E52703
:10028600803174082000CC007308CB00083084004D
:1002960088308500003FC400013FC5004C08450278
:1002A600031D57294B084402031C5A295B295D2963
:1002B60022008E100A30840088308500003F20001E
:1002C600C400013FC5004C084502031D6C294B08BC
:1002D6004402031C6F297029732922000E11752907
:1002E60022000E1507302000E60007308731E5278B
:1002F600803174082000CE007308CD0008308400D9
:1003060088308500003FC400013FC5004E08450205
:10031600031D8F294D084402031C92299329952910
:1003260022008E100A30840088308500003F2000AD
:10033600C400013FC5004E084502031DA4294D080F
:100346004402031CA729A829AB2922000E11AD29B6
:1003560022000E1508302000E60008308731E52718
:10036600803174082000D0007308CF000830840064
:1003760088308500003FC400013FC5005008450293
:10038600031DC7294F084402031CCA29CB29CD29BE
:1003960022008E100A30840088308500003F20003D
:1003A600C400013FC50050084502031DDC294F0863
:1003B6004402031CDF29E029E32922000E11E52966
:1003C60022000E1509302000E60009308731E527A6
:1003D600803174082000D2007308D10008308400F0
:1003E60088308500003FC400013FC5005208450221
:1003F600031DFF2951084402031C022A032A052A69
:1004060022008E100A30840088308500003F2000CC
:10041600C400013FC50052084502031D142A5108B5
:100426004402031C172A182A1B2A22000E111D2A11
:1004360022000E151F302000E6001F308731E52709
:10044600803174082100A5007308A4002408F30075
:100456002508F400F501F60100308631AF2680311B
:1004660076082000AD007508AC007408AB00730870
:10047600AA004030B1000330B0001230AF006F3038
:10048600AE0085310525803120002D082100A3000E
:1004960020002C082100A20020002B082100A1002A
:1004A60020002A082100A00044302000A800803047
:1004B600A7000030A6000030A50021002308200078
:1004C600AC00210022082000AB00210021082000FA
:1004D600AA00210020082000A9008231CA2280310A
:1004E60020002808D6002708D5002608D4002508AD
:1004F600D3005608A3005508A2005408A1005308CB
:10050600A0000430840088308500003FC400013F0D
:10051600C500023FC600033FC7004708A7004608BC
:10052600A6004508A5004408A40087315A27803153
:1005360003189E2A9F2AC32A00308400883085002B
:10054600003F2000C400013FC500023FC600033F34
:10055600C7004708A3004608A2004508A1004408B2
:10056600A0005608A7005508A6005408A500530881
:10057600A40087315A278031031CC22AC32AC52A00
:1005860022008E10240011085028803135282000C2
:1005960028088039B2002835B800A71FD32AD42AE4
:1005A600D52A381438080319D92ADA2AE92A380A42
:1005B600031DDE2ADF2AE72A0030A8000030A70044
:1005C6000030A6000030A500A717F12A0030A800C9
:1005D6000030A7000030A6000030A5002C088039A6
:1005E600AD002D08B2062C35B300AB1FFB2AFC2A42
:1005F600FD2A331433080319012B022B112B330A5E
:10060600031D062B072B0F2B0030AC000030AB0070
:100616000030AA000030A900AB17192B0030AC003F
:100626000030AB000030AA000030A90033080319DF
:100636001D2B1E2B232B3808031D222B232B2C2B83
:100646000030A8000030A7000030A6000030A5004A
:10065600042D2508F3002B088E3165268231740897
:100666002000BE007308BD003D08AD00AE01AF011D
:10067600B0013008B7002F08B6002E08B5002D08C7
:10068600B4003E08AD00AE01AF01B0013008BC00B9
:100696002F08BB002E08BA002D08B9002608F30063
:1006A6002A088E316526823174082000BE00730840
:1006B600BD003D08AD00AE01AF01B0012D08B40785
:1006C6002E08B53D2F08B63D3008B73D3E08AD00B3
:1006D600AE01AF01B0012D08B9072E08BA3D2F08AB
:1006E600BB3D3008BC3D2708F30029088E3165263E
:1006F600823174082000BE007308BD003D08AD00BD
:10070600AE01AF01B0012D08B4072E08B53D2F0884
:10071600B63D3008B73D3E08AD00AE01AF01B001B1
:100726002D08B9072E08BA3D2F08BB3D3008BC3D41
:100736000830B435B50DB60DB70D890B9C2B2608C0
:10074600F30029088E316526823174082000BE0028
:100756007308BD003D08B4073E08B53D0030B63D00
:10076600B73D2508F3002A088E31652682317408C4
:100776002000BE007308BD003D08B4073E08B53D25
:100786000030B63DB73D0830B435B50DB60DB70DE2
:10079600890BC72B2508F30029088E31652682317F
:1007A60074082000BE007308BD003D08B4073E086B
:1007B600B53D0030B63DB73D2608F3002B088E3117
:1007C6006526823174082000BE007308BD003D080E
:1007D600B9073E08BA3D0030BB3DBC3D2708F300D3
:1007E6002A088E316526823174082000BE007308FF
:1007F600BD003D08B9073E08BA3D0030BB3DBC3DD3
:100806002708F3002B088E316526823174082000F4
:10081600BE007308BD003D08AD003E08AE00AF0146
:10082600B0010830AD35AE0DAF0DB00D890B152CEE
:100836002D08B9072E08BA3D2F08BB3D3008BC3D30
:100846003408AD003508AE003608AF003708B000F2
:100856001830B036AF0CAE0CAD0C890B2C2C2D0815
:10086600B9072E08BA3D2F08BB3D3008BC3D0830FD
:10087600B435B50DB60DB70D890B3B2C38083307CB
:10088600AD00AE01AE0D2D08823EBD00FF302E3DFF
:10089600BE00642C0130B935BA0DBB0DBC0D890BF9
:1008A6004E2CB71F572C582C592C39140130B435FF
:1008B600B50DB60DB70D890B5A2CFF30BD07FF30AD
:1008C600BE3DBB1F672C682C4D2CB301B71F6C2C8B
:1008D6006D2C892CFF303405AD00FF303505AE0098
:1008E600FF303605AF007F303705B00030082F04E3
:1008F6002E042D040319802C812C842CB301B30AF9
:10090600892C391C872C882C892C812C33080319B7
:100916008D2C8E2CB62C0130B9070030BA3D003034
:10092600BB3D0030BC3D3C1C992C9A2CB62C39089A
:10093600AD003A08AE003B08AF003C08B0000130FD
:10094600B100B037AF0CAE0CAD0CB10BA42C300817
:10095600BC002F08BB002E08BA002D08B9000130D4
:10096600BD070030BE3D3E08803AAD0080302D0206
:10097600031DBF2CFF303D02031CC22CC32CCD2C03
:100986007F302000BC008030BB000030BA00003051
:10099600B900F82C20003E08803AAD0080302D02C8
:1009A600031DD72C01303D020318DA2CDB2CE62C74
:1009B60000302000BC000030BB000030BA00003020
:1009C600B900B201F82C20003D08B800FF30B90587
:1009D600FF30BA057F30BB050030BC05381CF42C4F
:1009E600F52CF62CBB173836BC003208AD002D08A6
:1009F600BC043C08A8003B08A7003A08A600390832
:100A0600A5000800200031088039BB003135C2003E
:100A1600B01F0E2D0F2D102D421442080319142D50
:100A2600152D252D420A031D192D1A2D222D0030B4
:100A3600B1000030B0000030AF000030AE00B0179B
:100A4600B1012D2D0030B1000030B0000030AF00F4
:100A56000030AE002D088039B2003208BB062D35B5
:100A6600C300AC1F372D382D392D43144308031905
:100A76003D2D3E2D4E2D430A031D422D432D4B2D5C
:100A86000030AD000030AC000030AB000030AA00F2
:100A9600AC17AD01562D0030AD000030AC00003073
:100AA600AB000030AA002D082C042B042A04031DD9
:100AB6005D2D5E2D772D0030B1000030B000003086
:100AC600AF000030AE008030B0047F30B1043B0888
:100AD600B2003208B1043108AD003008AC002F086E
:100AE600AB002E08AA00AE2E4208031D7B2D7C2DDE
:100AF600852D0030AD000030AC000030AB0000307A
:100B0600AA00AE2E4208B200B3013308B50043086E
:100B16003202B400031CB50334087F3EBC0000302B
:100B2600353DBD003108BA003008B9002F08B800BD
:100B36002E08B7000030B1000030B0000030AF0022
:100B46000030AE000030C1000030C0000030BF00F1
:100B56000030BE00C301ED2D43080319B32DB42D9B
:100B6600CE2D0130B735B80DB90DBA0D890BB52D9F
:100B76000130AE35AF0DB00DB10D890BBC2DC11FC7
:100B8600C52DC62DC72D2E140130BE35BF0DC00D87
:100B9600C10D890BC82D2D083A02031DDC2D2C082A
:100BA6003902031DDC2D2B083802031DDC2D2A0813
:100BB6003702031CDF2DE02DE92D41172A08B70265
:100BC6002B08B83B2C08B93B2D08BA3B0130B200C4
:100BD6003208C3071A304302031CF22DF32DAF2D42
:100BE6003A083904380437040319FA2DFB2D142E5C
:100BF6003E14142E0130AE35AF0DB00DB10D890B7C
:100C0600FE2DC11F072E082E092E2E140130BE35CB
:100C1600BF0DC00DC10D890B0A2EFF30BC07FF307A
:100C2600BD3DB01F172E182EFD2DC301C11F1C2E52
:100C36001D2E392EFF303E05B200FF303F05B300B2
:100C4600FF304005B4007F304105B5003508340457
:100C5600330432040319302E312E342EC301C30A55
:100C6600392E2E1C372E382E392E312E43080319D5
:100C76003D2E3E2E662E0130AE070030AF3D0030D1
:100C8600B03D0030B13D311C492E4A2E662E2E084D
:100C9600B2002F08B3003008B4003108B5000130A7
:100CA600B600B537B40CB30CB20CB60B542E3508DF
:100CB600B1003408B0003308AF003208AE0001308E
:100CC600BC070030BD3D3D08803AB200803032029C
:100CD600031D6F2EFF303C02031C722E732E802ED6
:100CE600FF302000BC000030BD000030B1000030F5
:100CF600B0000030AF000030AE0020003D08803A62
:100D0600B20080303202031D8A2E01303C020318E5
:100D16008D2E8E2E9A2E2000BC01BD010030B10012
:100D26000030B0000030AF000030AE00BB01200044
:100D36003C08C200421CA02EA12EA32EB017A72E3F
:100D46007F30B2003208B0054236B1003B08B2002F
:100D56003208B1046E2D08002000A40024080319EF
:100D6600B52EB62ECA2EF61FB92EBA2ECA2E730966
:100D7600A6007409A7007509A8007609A900A60AA5
:100D86000319A70A0319A80A0319A90AD22E760875
:100D9600A9007508A8007408A7007308A6007608BD
:100DA600750474047304031DD92EDA2EE32E003065
:100DB600F6000030F5000030F4000030F300592F43
:100DC6009630A500F12E0130A0002008A5070130BD
:100DD600A936A80CA70CA60C890BEB2EFE3029050C
:100DE600031DF62EF72EE62E0B2F0130A00020084D
:100DF600A5070130A6070030A73D0030A83D00300A
:100E0600A93D0130A936A80CA70CA60C890B052F05
:100E1600FF302905031D102F112FF82E1B2F01302F
:100E2600A5020130A635A70DA80DA90D890B152F12
:100E3600A81B1E2F1F2F252F023025020318242F33
:100E4600252F122F2518282F292F312FFF30A605E1
:100E5600FF30A7057F30A805FF30A9050310A50CB4
:100E66002508A000A101A201A3011830A035A10DFB
:100E7600A20DA30D890B392F2008A6042108A7046B
:100E86002208A8042308A904240803194B2F4C2F71
:100E9600512FF61F4F2F502F512FA9172908F60053
:100EA6002808F5002708F4002608F300080000309B
:100EB60020002005F30000302105F40080302205D3
:100EC600F5007F302305F600760875047404730474
:100ED600031D6E2F6F2F772F0030A3000030A20066
:100EE6000030A1000030A00000302405F3000030DF
:100EF6002505F40080302605F5007F302705F6002D
:100F06007608750474047304031D8A2F8B2F932FA0
:100F16000030A7000030A6000030A5000030A40075
:100F2600A31F962F972FAF2F0030F3000030F40049
:100F36000030F5008030F6002008F3022108F43B6B
:100F46002208F53B2308F63B7608A3007508A200A5
:100F56007408A1007308A000A71FB22FB32FCB2FD0
:100F66000030F3000030F4000030F5008030F60069
:100F76002408F3022508F43B2608F53B2708F63B30
:100F86007608A7007508A6007408A5007308A400D3
:100F96008030A3068030A70627082302031DDD2F15
:100FA60026082202031DDD2F25082102031DDD2F41
:100FB600240820020318E02FE12FE32F0310E42F6B
:100FC60003140800F6007608F500F50DF50D21006E
:100FD6001D087506833975069D001D140630890B9C
:100FE600F22F003221009D149D18FA2FFB2FF72FA8
:100FF6001C08F4001B08F3000800CD34CC344C3434
:1010060040346634663486344034E2340034E634A0
:021016000034A4
:1019F0002400110808002000911108002400151689
:101A00000800210091150800240011080800240096
:101A10001408013908008D3104258D310800823009
:101A20002200970008001A302100970008002400C7
:101A3000140C890C013908008C31F8248D31F80020
:101A40000800F000700824009100080079088D312A
:101A500021258D310800F300733524009200080021
:101A6000F3007335240093000800F300730824008A
:101A7000910008008C31F8248D312000E700080027
:101A800074082000DE007308DD00080074082000E0
:101A9000DC007308DB00080074082000E400730811
:101AA000E300080074082000E2007308E100080069
:101AB00074082000DA007308D900080074082000B8
:101AC000E0007308DF0008007A302100990022004E
:101AD0009601080074082000E9007308E800080077
:101AE000F40074088D3135258D31080064008001C3
:101AF0000131890B772D003403102400941E031448
:101B00000030093D080003102400141C03140030A9
:101B1000093D0800F93020009B009A0191107C30AB
:101B20009C000800D03021009E009F019B019C0179
:101B300001309D000800240094010630F300730872
:101B4000950496019512080020005D085E040319B3
:101B5000AA2DAB2DB02D5E088A005D080A008D31DC
:101B600008002000610862040319B72DB82DBD2DAF
:101B700062088A0061080A008D31080020005F08B1
:101B800060040319C42DC52DCA2D60088A005F08A2
:101B90000A008D3108002400951ACF2DD02DD72DA5
:101BA00094010630F3007308950496019516080019
:101BB0002000181DDC2DDD2DE42D18107108970074
:101BC000700896001814E82D7108970070089600A8
:101BD0000800200011106B08F1006A08F0008D3138
:101BE000D8258D312000680869040319F82DF92DD6
:101BF000FE2D69088A0068080A008D31080001304E
:101C000020009900C3309700743096001110170817
:101C1000EB001608EA00210011140330F300003035
:101C2000F4008D316A258D31C43020009800080001
:101C30008D319B258E318E3131268E318D3164254B
:101C40008E318D3113258E318D310F258E318D31B1
:101C500092258E318D318A258E318D31FF258E3141
:101C6000080022008C018D018E013F3021008C0084
:101C700070308D00F8308E00CF3023008E00203081
:101C80008D0017308C0024008D018C0121009517E8
:101C900022009D01080076082000A0007508A10020
:101CA00020088D3170258E312400141C582E592E99
:101CB0005D2E161B5C2E5D2E542E200021088D31CA
:101CC00070258E312000E50108002000A400A0014D
:101CD000A1017308F500F6017508A2007608A300BB
:101CE000241C732E742E782E2208A0072308A13DF1
:101CF0000130A235A30D890B792E0310A40C240802
:101D0000031D832E842E702E2108F4002008F3007A
:101D10000800200048088D3170258E3120004A08C7
:101D2000F6004908F5008E314B268E3120004C0814
:101D3000F6004B08F5008E314B268E3120004E0800
:101D4000F6004D08F5008E314B268E3120005008EC
:101D5000F6004F08F5008E314B268E3120005208D8
:101D6000F6005108F5008E314B268E318E31F32668
:101D70008E3108008D31CB258E3108308D312B25E9
:101D80008E3100308D3130258E318B30F3000F30A5
:101D9000F4008D314C258E310030F3000030F4001A
:101DA0008D3146258E312630F3000D30F4008D3113
:101DB0005E258E311C30F3000D30F4008D3152253C
:101DC0008E313A30F3000D30F4008D3140258E31E4
:101DD0000030F3000030F4008D3158258E318D3104
:101DE00001258E310800200056088D3170258E3176
:101DF0002400141CFC2EFD2E012F161B002F012F7A
:101E0000F82E200055088D3170258E312400141CC9
:101E10000A2F0B2F0F2F161B0E2F0F2F062F200010
:101E200054088D3170258E312400141C182F192F61
:101E30001D2F161B1C2F1D2F142F200053088D3112
:101E400070258E312400141C262F272F2B2F161BB4
:101E50002A2F2B2F222F2000E50108002000A000B0
:101E600020080319342F352F602FA101A20106305D
:101E7000F3003030890B3A2FF30B3A2F0032031066
:101E800022008E1C03140318462F492F22008E14A3
:101E90004B2F22008E1001302000A1070030A23D00
:101EA0002208803AF30083307302031D592FE83073
:101EB0002102031C5C2F5D2F372F22008E108A2FEA
:101EC000A301A4010630F3003030890B652FF30B1A
:101ED000652F0032031022008E1C03140318712F8B
:101EE000742F22008E14762F22008E1001302000D5
:101EF000A3070030A43D2408803AF3008330730226
:101F0000031D842FE8302302031C872F882F622FA4
:101F100022008E1408008C31FB248F310310220024
:101F20000E1C03140318952F982F22000E149A2FBD
:101F300022000E108D317C258F31003A0319A12F1C
:101F4000A22FB02F8D3117258F31003A0319A92FF9
:101F5000AA2FAD2F0130F700E62F0230F700E62F51
:101F60008D3117258F31003A0319B72FB82FBB2FAA
:101F70000330F700E62F0430F700E62F8D31A4255B
:101F80008F318D3183258F31003A0319C82FC92F26
:101F9000FC2F8D31BE258F31FC2F8D31A4258F3143
:101FA000FC2F8D3183258F31003A0319D82FD92F7B
:101FB000FC2FC92F8D3107258F31003A0319E12FEE
:101FC000E22FFC2F8D31B1258F31FC2F7708F100E6
:101FD000F2017208003A0319EE2FFC2F7108013A42
:101FE0000319BE2F033A0319CD2F013A0319D12F3C
:101FF000073A0319DA2FFC2F8C31FE248F310800A9
:020000040001F9
:08000000FF3FFF3FFF3FFF3F00
:04000E00AC3FFF1FE5
:00000001FF
