:0400000080313528EE
:100008007E1480310B1F09280A2833282100921DED
:100018000E280F281A282000921D132814281A28A1
:100028003A088A0039080A00803133282100911DD6
:100038001E281F2825282000911D2328242825282C
:1000480014282100111C29282A2833282000111CD3
:100058002E282F2833288231C922803133287E1058
:10006800090080313728F701F801F90120308400B0
:10007800003085001F308331512380317E102000ED
:10008800803146288231972280318B170B17210047
:1000980017102100171C51285228532863000130DB
:1000A80022008E008331912380312000BE00A528D4
:1000B8002408F6002308F500823163228031DC2809
:1000C8002608F6002508F500823163228031DC28F5
:1000D8002808F6002708F500823163228031DC28E1
:1000E8002A08F6002908F500823163228031DC28CD
:1000F8002C08F6002B08F500823163228031DC28B9
:100108002208F6002108F500823163228031DC28BC
:100118002008833157238031DC2821001714DC287C
:1001280021001710DC28BD01BD0ADC28BD01DC2830
:1001380022008E01DC28813118218031DC28010061
:10014800DC283E08C500C6014608003A0319AD2858
:10015800DC284508003A0319DC28013A03195C2811
:10016800033A03196428013A03196C28073A03195A
:100178007428013A03197C28033A03198428013AA0
:1001880003198C280F3A03199128013A0319942866
:10019800033A03199728013A03199A28073A0319C9
:1001A8009C28013A03199F28033A0319A328DC283D
:1001B8000230F90002308231482280317408200070
:1001C800A4007308A3000330F900033082314822E9
:1001D800803174082000A6007308A5000730F900D4
:1001E800073082314822803174082000A800730843
:1001F800A7000830F900083082314822803174089D
:100208002000AA007308A9000930F90009308231DA
:100218004822803174082000AC007308AB0022002B
:100228008E014D288031352820002008833157233E
:10023800813120002408F5002308F6002400141C4E
:10024800262927292B29161F2A292B29222975080F
:100258008331572381312400141C33293429382948
:10026800161F372938292F297608833157238131DA
:1002780020002608F5002400141C43294429482995
:10028800161F472948293F2975088331572381318B
:1002980020002508F6002400141C53295429582945
:1002A800161F572958294F2976088331572381313A
:1002B80020002808F5002400141C632964296829F3
:1002C800161F672968295F297508833157238131EB
:1002D80020002708F6002400141C732974297829A3
:1002E800161F772978296F2976088331572381319A
:1002F80020002A08F5002400141C83298429882951
:10030800161F872988297F2975088331572381314A
:1003180020002908F6002400141C93299429982900
:10032800161F972998298F297608833157238131F9
:1003380020002C08F5002400141CA329A429A829AE
:10034800161FA729A8299F297508833157238131AA
:1003580020002B08F6002400141CB329B429B8295E
:10036800161FB729B829AF29760883315723813159
:1003780020002208F5002400141CC329C429C82918
:10038800161FC729C829BF2975088331572381310A
:1003980020002108F6002400141CD329D429D829C8
:1003A800161FD729D829CF297608833157238131B9
:1003B8002000BE01080083319F23813183314A2305
:1003C8008131003A0319E929EA29F829833184237C
:1003D8008131003A0319F129F229F5290130F70092
:1003E8002E2A0230F7002E2A833184238131003AE5
:1003F8000319FF29002A032A0330F7002E2A0430A4
:10040800F7002E2A83311A23813183314323813126
:10041800003A0319102A112A442A83310023813112
:10042800442A83311A238131442A83314323813179
:10043800003A0319202A212A442A112A83319523B4
:100448008131003A0319292A2A2A442A83310D23A3
:100458008131442A7708F100F2017208003A031941
:10046800362A442A7108013A0319062A033A03195D
:10047800152A013A0319192A073A0319222A442A84
:1004880083319C2381310800F6007608F500F50DCC
:10049800F50D21001D087506833975069D001D148C
:1004A8000630890B552A003221009D149D185D2ABB
:1004B8005E2A5A2A1C08F4001B08F3000800760874
:1004C8002000C3007508C4004308833157238231D4
:1004D8002400141C702A712A752A161B742A752A7E
:1004E8006C2A200044088331572382312000BE0142
:1004F800080022008C018D018E013F3021008C0004
:10050800F0308D00F8308E00CF3023008E00203080
:100518008D0017308C0024008D018C012100951767
:1005280022009D01080083312723823182317D22F8
:10053800823183316323823183318923823183314C
:100548008D23823183313123823183313B238231C0
:100558008231B02282310800013020009900C33076
:1005680097007430960011101708C2001608C100D1
:1005780021001114A530F3000330F40083315D230A
:100588008231C43020009800080020001110420871
:10059800F1004108F0008231DF22823120003F085B
:1005A80040040319D82AD92ADE2A40088A003F08BD
:1005B8000A00823108002000181DE32AE42AEB2AE9
:1005C800181071089700700896001814EF2A71081F
:1005D8009700700896000800CD34CC344C34403471
:1005E80000340034803440343D340A34BF3441345C
:1005F8005C348F34E634413420003508360403195E
:10060800062B072B0C2B36088A0035080A00833185
:1006180008002000370838040319132B142B192B52
:1006280038088A0037080A00833108002000330898
:1006380034040319202B212B262B34088A00330875
:100648000A0083310800240094010630F30073087F
:1006580095048130960095120800D03021009E0044
:1006680030309F009B019C0101309D000800F9304B
:1006780020009B009A0191107C309C000800031018
:100688002400141C03140030093D08000310240042
:10069800941E03140030093D0800640080010131F4
:1006A800890B522B0034F40074088331752383318D
:1006B800080074082000C0007308BF0008007A30E2
:1006C800210099002200960108008331A22383317A
:1006D8002000BC0008008331A22383312000BB0026
:1006E8000800F3007308240091000800780883319B
:1006F8007F2383310800F00070082400910008006F
:100708002400140C890C013908001A3021009700C4
:100718000800823022009700080083319923833132
:1007280008002400140801390800240011080800F2
:100738002400151608002000911108002400110853
:04074800080008009D
:020000040001F9
:08000000FF3FFF3FFF3FFF3F00
:04000E00AC3FFF1FE5
:00000001FF
