:04000000803119280A
:100008007E1480310B1F09280A2817282100111C8B
:100018000E280F2817282000111C13281428172829
:1000280080316C2080317E10090080311B287E10C1
:10003800200080311F288031A32080318B170B17B7
:10004800013022008E008031CA2080316300803167
:10005800C72080318031B020803122008E0180316C
:10006800CA208031630024288031192822008C019D
:100078008D018E013F3021008C00F0308D00FE3064
:100088008E00CF3023008E0030308D0017308C006A
:1000980024008D018C012100951722009D01080084
:1000A80020009901C330970074309600111017088A
:1000B800F3001608F20021001114CD30F6000030CC
:1000C800F7008031BE208031C5302000980008003C
:1000D800200011107308F5007208F4008031922096
:1000E80080317008710403197A287B2880287108E8
:1000F8008A0070080A00803108002000181D852831
:1001080086288D2818107708970076089600181406
:100118009128770897007608960008002000181D97
:10012800962897289E281810750897007408960036
:100138001814A228750897007408960008008031E2
:100148003A2080318031B82080318031C32080311D
:1001580080315420803108007308F7007208F600D7
:1001680080318120803108007A30210099002200F6
:10017800960108007708F1007608F00008001630AC
:10018800210097000800200018100800200018140B
:040198000800080053
:020000040001F9
:08000000FF3FFF3FFF3FFF3F00
:04000E00A43FFF1FED
:00000001FF
