:0400000080312728FC
:100008007E1480310B1F09280A2825282100921DFB
:100018000E280F281A282000921D132814281A28A1
:1000280031088A0030080A00803125282100911DF6
:100038001E281F2825282000911D2328242825282C
:1000480014287E100900803129285130840082301C
:1000580085001200BF001200C0001200C10012008B
:10006800C2001200C3001200C400F601F701F80133
:10007800F90120308400003085001F30823157227A
:1000880080317E102000803149288231022280315F
:100098008B170B1781317421803182313A228031DC
:1000A8008231AF228031790803195B285C287B28CC
:1000B800F90122008D1713302000C8004430C70012
:1000C8004430890B6528C70B6528C80B65280000D4
:1000D80022008D1302302000C800A030C7009230E3
:1000E800890B7428C70B7428C80B742800000230C9
:1000F8008131AD21803175082000BE007408BD0033
:1001080003308131AD21803175082000BC007408AE
:10011800BB0007308131AD21803175082000BA005D
:100128007408B90008308131AD218031750820008C
:10013800B8007408B70009308131AD2180317508E5
:100148002000B6007408B5001F308131AD21803120
:1001580075082000B4007408B30057288031272898
:100168008231BD22803182314A228031003A03191E
:10017800BE28BF28CD288231A6228031003A031933
:10018800C628C728CA280130F60003290230F6001D
:1001980003298231A6228031003A0319D428D528B0
:1001A800D8280330F60003290430F60003298231E9
:1001B80023228031823143228031003A0319E52815
:1001C800E62819298131CB2180311929823123224E
:1001D80080311929823143228031003A0319F528E8
:1001E800F6281929E6288231B3228031003A03190A
:1001F800FE28FF28192981311D2180311929760807
:10020800F200F3017308003A03190B29192972083F
:10021800013A0319DB28033A0319EA28013A0319BA
:10022800EE28073A0319F72819298231BA228031B2
:10023800080020002E082F0403192329242929291E
:100248002F088A002E080A0081312000A201A3018C
:1002580050293E08A5003D08A4006D293C08A500CA
:100268003B08A4006D293A08A5003908A4006D29A7
:100278003808A5003708A4006D293608A5003508F8
:10028800A4006D293408A5003308A4006D29FF30A7
:10029800A400FF30A5006D2977081F39F000F1018F
:1002A8007108003A031959294B297008013A0319B2
:1002B8002D29033A03193229013A03193729073A34
:1002C80003193C29013A03194129143A031946290B
:1002D8004B29F71E7029712973290130F90008008C
:1002E80082311522813115308231922281317F305D
:1002F80082318D228131B430F4000030F500823132
:10030800752281310030F4000030F50082317B2203
:1003180081319730F4000230F50082316322813157
:10032800A130F4000230F50082316F22813187302C
:10033800F4000230F5008231812281310030F4006E
:100348000030F5008231692281318231B722813152
:1003580008002000C6004608C500C50DC50D2100CF
:100368001D08200045068339450621009D001D14FF
:100378000630890BBD29003221009D149D18C5291E
:10038800C629C2291C08F5001B08F4000800200033
:100398002208243E860087010108F8000130A207E0
:1003A8000030A33D01302205A20000302305A30040
:1003B8002C082D040319E129E229E7292D088A00D0
:1003C8002C080A008131080022008C018D018E0161
:1003D8003F3021008C0070308D00F8308E00CF3017
:1003E80023008E0020308D0017308C0024008D01F2
:1003F8008C012100951722009D01080082313022CE
:1004080082318131E821823182315D22823182312B
:10041800AB2282318231AF22823182313A2282315B
:1004280008002400951A192A1A2A222A940106304B
:10043800F400740895040130960095160800200011
:100448002A082B040319292A2A2A2F2A2B088A006A
:100458002A080A0082310800240094010630F400BA
:10046800740895040130960095120800D0302100D8
:100478009E009F019B019C0101309D000800031014
:100488002400141C03140030093D08000310240044
:10049800941E03140030093D0800333435343734D2
:1004A80039343B343D34640080010131890B582ACA
:1004B8000034783021009900220096010800750860
:1004C8002000AD007408AC00080075082000A700E3
:1004D8007408A600080075082000AF007408AE0074
:1004E800080075082000B1007408B00008007508FD
:1004F8002000A9007408A800080075082000AB00B7
:100508007408AA0008008231C02282312000B2009B
:100518000800F4007435240093000800F4007435D2
:10052800240092000800780882319C228231080059
:10053800F00070082400910008008231C022823146
:10054800F70008002400140C890C01390800163043
:10055800210097000800823022009700080024003C
:100568001408013908002100911508002400151607
:0E05780008002000911108002400110808005E
:020000040001F9
:08000000FF3FFF3FFF3FFF3F00
:04000E00E43FFF1FAD
:00000001FF
