:0400000080312728FC
:100008007E1480310B1F09280A2825282100921DFB
:100018000E280F281A282000921D132814281A28A1
:1000280031088A0030080A00803125282100911DF6
:100038001E281F2825282000911D2328242825282C
:1000480014287E10090080312928BC3084008230B1
:1000580085001200C0001200C1001200C200120088
:10006800C3001200C4001200C500F601F701F80130
:10007800F901203084000030850020308231C2220E
:1000880080317E1020008031492882316D228031F4
:100098008B170B178131DF2180318231A522803106
:1000A80083311B238031770803195B285C287B2860
:1000B800F70122008D1713302000C9004430C80012
:1000C8004430890B6528C80B6528C90B65280000D2
:1000D80022008D1302302000C900A030C8009230E1
:1000E800890B7428C80B7428C90B742800000230C7
:1000F80082311822803175082000BF007408BE00C4
:10010800033082311822803175082000BD00740840
:10011800BC00073082311822803175082000BB00EE
:100128007408BA000830823118228031750820001E
:10013800B9007408B8000930823118228031750876
:100148002000B7007408B6001F30823118228031B1
:100158007508F9007408F8002000B20100303F0269
:10016800C63003193E020318BA28BB28BD28B201BD
:10017800B20A00303D02C63003193C020318C528F4
:10018800C628C828B201B20A00303B02C63003199B
:100198003A020318D028D128D328B201B20A003075
:1001A8003902C630031938020318DB28DC28DE2898
:1001B800B201B20A00303702C630031936020318FA
:1001C800E628E728E928B201B20A0230790290301D
:1001D80003197802031CF128F228F428B201B20AA4
:1001E80001307902EE30031978020318FC28FD2843
:1001F800FF28B201B20A32080319032904291B296E
:1002080022000E148E1468302000C800E430890BD8
:100218000B29C80B0B29000022008E109C302000EF
:10022800C800D730890B1629C80B16295728220071
:100238000E105728803127288331292381318231B4
:10024800B5228131003A03192A292B293B29833108
:1002580012238131003A0319322933293729013011
:100268002000B300732902302000B30073298331C2
:1002780012238131003A03194229432947290330BF
:100288002000B300732904302000B30073298231A1
:100298008E2281318231AE228131003A03195529EB
:1002A80056298929823136228131892982318E2243
:1002B800813189298231AE228131003A03196529B9
:1002C80066298929562983311F238131003A031968
:1002D8006E296F29892981318D2181318929330836
:1002E800F200F3017308003A03197B29892972087F
:1002F800013A03194B29033A03195A29013A0319F8
:100308005E29073A03196729892983312623813110
:10031800080020002E082F040319932994299929ED
:100328002F088A002E080A0081312000A201A301AB
:10033800BB293F08A5003E08A400D8293D08A50010
:100348003C08A400D8293B08A5003A08A400D829ED
:100358003908A5003808A400D8293708A5003608A8
:10036800A400D8297908A5007808A400D829760817
:100378001F39F000F1017108003A0319C429D8297E
:100388007008013A03199D29033A0319A229013A71
:100398000319A729073A0319AC29013A0319B12906
:1003A800143A0319B629D829F61EDB29DC29DE29D7
:1003B8000130F70008008231802281311530833105
:1003C800032381317F308231FE2281312030F400D5
:1003D8000130F5008231E02281310030F400003034
:1003E800F5008231E6228131F230F4000230F50066
:1003F8008231CE2281310D30F4000330F500823194
:10040800DA228131F830F4000230F5008231EC2232
:1004180081310030F4000030F5008231D42281317E
:1004280083312323813108002000C7004708C60014
:10043800C60DC60D21001D08200046068339460654
:1004480021009D001D140630890B282A0032210046
:100458009D149D18302A312A2D2A1C08F5001B08E6
:10046800F400080020002208243E860087010108C5
:10047800B5000130A2070030A33D01302205A200DB
:1004880000302305A3002C082D0403194C2A4D2AFB
:10049800522A2D088A002C080A00823108002200FE
:1004A8008C018D018E013F3021008C0070308D0051
:1004B800F8308E00CF3023008E0020308D001730AA
:1004C8008C0024008D018C012100951722009D01CC
:1004D800080082319B22823182315322823182315B
:1004E800C822823183311723823183311B23823121
:1004F8008231A522823108002400951A842A852A8F
:100508008D2A94010630F400740895040130960091
:100518009516080020002A082B040319942A952A06
:100528009A2A2B088A002A080A0082310800240027
:1005380094010630F4007408950401309600951271
:100548000800D03021009E009F019B019C010130D2
:100558009D00080003102400141C03140030093DFA
:10056800080003102400941E03140030093D0800FD
:100578007834363438343A343C343E3464008001BC
:100588000131890BC32A00347830210099002200F8
:100598009601080075082000AD007408AC0008003A
:1005A80075082000A7007408A60008007508200038
:1005B800AF007408AE00080075082000B100740888
:1005C800B000080075082000A9007408A8000800F9
:1005D80075082000AB007408AA0008002000350840
:1005E800833108238231080083312C238231200093
:1005F800B4000800F4007435240093000800F400E7
:100608007435240092000800F0007008240091005E
:10061800080083312C238331F60008002400140CD1
:10062800890C013908001630210097000800823033
:10063800220097000800240014080139080021004E
:1006480091150800240015160800200091110800D3
:0606580024001108080057
:020000040001F9
:08000000FF3FFF3FFF3FFF3F00
:04000E00E43FFF1FAD
:00000001FF
