:0400000080312728FC
:100008007E1480310B1F09280A2825282100921DFB
:100018000E280F281A282000921D132814281A28A1
:1000280031088A0030080A00803125282100911DF6
:100038001E281F2825282000911D2328242825282C
:1000480014287E100900803129284C308400823021
:1000580085001200BF001200C0001200C10012008B
:10006800C2001200C3001200C400F601F701F80133
:10007800F90120308400003085001F30823152227F
:1000880080317E102000803149288131FD21803166
:100098008B170B1781316F218031823135228031E6
:1000A8008231AA228031790803195B285C287B28D1
:1000B800F90122008D1713302000C8004430C70012
:1000C8004430890B6528C70B6528C80B65280000D4
:1000D80022008D1302302000C800A030C7009230E3
:1000E800890B7428C70B7428C80B742800000230C9
:1000F8008131A821803175082000BE007408BD0038
:1001080003308131A821803175082000BC007408B3
:10011800BB0007308131A821803175082000BA0062
:100128007408B90008308131A82180317508200091
:10013800B8007408B70009308131A82180317508EA
:100148002000B6007408B5001F308131A821803125
:1001580075082000B4007408B30057288031272898
:100168008231B8228031823145228031003A031928
:10017800BE28BF28CD288231A1228031003A031938
:10018800C628C728CA280130F60003290230F6001D
:1001980003298231A1228031003A0319D428D528B5
:1001A800D8280330F60003290430F60003298231E9
:1001B8001E22803182313E228031003A0319E5281F
:1001C800E62819298131C6218031192982311E2258
:1001D8008031192982313E228031003A0319F528ED
:1001E800F6281929E6288231AE228031003A03190F
:1001F800FE28FF28192981311D2180311929760807
:10020800F200F3017308003A03190B29192972083F
:10021800013A0319DB28033A0319EA28013A0319BA
:10022800EE28073A0319F72819298231B5228031B7
:10023800080020002E082F0403192329242929291E
:100248002F088A002E080A0081312000A201A3018C
:100258004B293E08A5003D08A40068293C08A500D4
:100268003B08A40068293A08A5003908A4006829B1
:100278003808A5003708A40068293608A5003508FD
:10028800A40068293408A5003308A4006829770861
:100298001F39F000F1017108003A0319542968293F
:1002A8007008013A03192D29033A03193229013A32
:1002B80003193729073A03193C29013A0319412937
:1002C800143A031946296829F71E6B296C296E29E7
:1002D8000130F90008008231102281310830823162
:1002E8008D2281317F30823188228131B430F4000F
:1002F8000030F5008231702281310030F400003086
:10030800F5008231762281319230F4000230F50016
:1003180082315E2281319C30F4000230F500823156
:100328006A2281318230F4000230F50082317C2269
:1003380081310030F4000030F500823164228131CF
:100348008231B222813108002000C6004608C5006B
:10035800C50DC50D21001D08200045068339450639
:1003680021009D001D140630890BB8290032210098
:100378009D149D18C029C129BD291C08F5001B081A
:10038800F400080020002208243E860087010108A6
:10039800F8000130A2070030A33D01302205A20079
:1003A80000302305A3002C082D040319DC29DD29BE
:1003B800E2292D088A002C080A0081310800220051
:1003C8008C018D018E013F3021008C0070308D0032
:1003D800FF308E00CF3023008E0020308D00173084
:1003E8008C0024008D018C012100951722009D01AD
:1003F800080082312B2281318131E3218131823120
:10040800582281318231A62281318231AA2281315A
:1004180082313522813108002400951A142A152AC0
:100428001D2A94010630F4007408950401309600E2
:100438009516080020002A082B040319242A252AC7
:100448002A2A2B088A002A080A0082310800240078
:1004580094010630F4007408950401309600951252
:100468000800D03021009E009F019B019C010130B3
:100478009D00080003102400141C03140030093DDB
:10048800080003102400941E03140030093D0800DE
:1004980033343534373439343B343D3464008001E7
:1004A8000131890B532A0034783021009900220049
:1004B8009601080075082000AD007408AC0008001B
:1004C80075082000A7007408A60008007508200019
:1004D800AF007408AE00080075082000B100740869
:1004E800B000080075082000A9007408A8000800DA
:1004F80075082000AB007408AA0008008231BB22EE
:1005080082312000B2000800F40074352400930002
:100518000800F4007435240092000800780882313D
:10052800972282310800F00070082400910008002A
:100538008231BB228231F70008002400140C890C98
:100548000139080016302100970008008230220087
:1005580097000800240014080139080021009115AB
:100568000800240015160800200091110800240036
:04057800110808005E
:020000040001F9
:08000000FF3FFF3FFF3FFF3F00
:04000E00E43FFF1FAD
:00000001FF
